{
  "contractName": "LuckDApp",
  "abi": [
    {
      "anonymous": false,
      "inputs": [
        {
          "indexed": true,
          "internalType": "address",
          "name": "previousOwner",
          "type": "address"
        },
        {
          "indexed": true,
          "internalType": "address",
          "name": "newOwner",
          "type": "address"
        }
      ],
      "name": "OwnershipTransferred",
      "type": "event"
    },
    {
      "inputs": [
        {
          "internalType": "uint256",
          "name": "",
          "type": "uint256"
        }
      ],
      "name": "ldnaToOwner",
      "outputs": [
        {
          "internalType": "address",
          "name": "",
          "type": "address"
        }
      ],
      "stateMutability": "view",
      "type": "function",
      "constant": true
    },
    {
      "inputs": [
        {
          "internalType": "uint256",
          "name": "",
          "type": "uint256"
        }
      ],
      "name": "luckDNA",
      "outputs": [
        {
          "internalType": "string",
          "name": "r",
          "type": "string"
        },
        {
          "internalType": "string",
          "name": "g",
          "type": "string"
        },
        {
          "internalType": "string",
          "name": "b",
          "type": "string"
        },
        {
          "internalType": "string",
          "name": "a",
          "type": "string"
        }
      ],
      "stateMutability": "view",
      "type": "function",
      "constant": true
    },
    {
      "inputs": [],
      "name": "owner",
      "outputs": [
        {
          "internalType": "address",
          "name": "",
          "type": "address"
        }
      ],
      "stateMutability": "view",
      "type": "function",
      "constant": true
    },
    {
      "inputs": [
        {
          "internalType": "address",
          "name": "",
          "type": "address"
        }
      ],
      "name": "playerToName",
      "outputs": [
        {
          "internalType": "string",
          "name": "",
          "type": "string"
        }
      ],
      "stateMutability": "view",
      "type": "function",
      "constant": true
    },
    {
      "inputs": [],
      "name": "renounceOwnership",
      "outputs": [],
      "stateMutability": "nonpayable",
      "type": "function"
    },
    {
      "inputs": [
        {
          "internalType": "address",
          "name": "newOwner",
          "type": "address"
        }
      ],
      "name": "transferOwnership",
      "outputs": [],
      "stateMutability": "nonpayable",
      "type": "function"
    },
    {
      "inputs": [
        {
          "internalType": "string",
          "name": "_name",
          "type": "string"
        }
      ],
      "name": "newPlayer",
      "outputs": [],
      "stateMutability": "nonpayable",
      "type": "function"
    },
    {
      "inputs": [
        {
          "internalType": "uint256",
          "name": "_ldna",
          "type": "uint256"
        }
      ],
      "name": "luckChallenge",
      "outputs": [
        {
          "internalType": "uint256",
          "name": "",
          "type": "uint256"
        }
      ],
      "stateMutability": "pure",
      "type": "function",
      "constant": true
    },
    {
      "inputs": [
        {
          "internalType": "string",
          "name": "_r",
          "type": "string"
        },
        {
          "internalType": "string",
          "name": "_g",
          "type": "string"
        },
        {
          "internalType": "string",
          "name": "_b",
          "type": "string"
        },
        {
          "internalType": "string",
          "name": "_a",
          "type": "string"
        }
      ],
      "name": "ldnaExists",
      "outputs": [
        {
          "internalType": "bool",
          "name": "",
          "type": "bool"
        }
      ],
      "stateMutability": "view",
      "type": "function",
      "constant": true
    },
    {
      "inputs": [
        {
          "internalType": "address",
          "name": "_owner",
          "type": "address"
        }
      ],
      "name": "playerLDNA",
      "outputs": [
        {
          "internalType": "uint256[]",
          "name": "",
          "type": "uint256[]"
        }
      ],
      "stateMutability": "view",
      "type": "function",
      "constant": true
    }
  ],
  "bytecode": "0x6080604052600060015534801561001557600080fd5b5061003261002761003760201b60201c565b61003f60201b60201c565b610103565b600033905090565b60008060009054906101000a900473ffffffffffffffffffffffffffffffffffffffff169050816000806101000a81548173ffffffffffffffffffffffffffffffffffffffff021916908373ffffffffffffffffffffffffffffffffffffffff1602179055508173ffffffffffffffffffffffffffffffffffffffff168173ffffffffffffffffffffffffffffffffffffffff167f8be0079c531659141344cd1fd0a4f28419497f9722a3daafe3b4186f6b6457e060405160405180910390a35050565b611a2e806101126000396000f3fe608060405234801561001057600080fd5b506004361061009e5760003560e01c8063aae027e211610066578063aae027e21461015b578063ae2585ea1461018e578063ceb95d7a146101be578063ecfec7d8146101da578063f2fde38b1461020a5761009e565b80633653d186146100a35780634061b398146100d3578063715018a6146101035780638da5cb5b1461010d5780639e1e15961461012b575b600080fd5b6100bd60048036038101906100b89190611026565b610226565b6040516100ca9190611062565b60405180910390f35b6100ed60048036038101906100e89190611026565b610235565b6040516100fa91906110be565b60405180910390f35b61010b610268565b005b6101156102f0565b60405161012291906110be565b60405180910390f35b6101456004803603810190610140919061121f565b610319565b6040516101529190611311565b60405180910390f35b61017560048036038101906101709190611026565b610383565b60405161018594939291906113b4565b60405180910390f35b6101a860048036038101906101a39190611441565b6105e3565b6040516101b5919061146e565b60405180910390f35b6101d860048036038101906101d39190611490565b610683565b005b6101f460048036038101906101ef9190611441565b610744565b6040516102019190611597565b60405180910390f35b610224600480360381019061021f9190611441565b610896565b005b60008082905080915050919050565b60046020528060005260406000206000915054906101000a900473ffffffffffffffffffffffffffffffffffffffff1681565b61027061098d565b73ffffffffffffffffffffffffffffffffffffffff1661028e6102f0565b73ffffffffffffffffffffffffffffffffffffffff16146102e4576040517f08c379a00000000000000000000000000000000000000000000000000000000081526004016102db90611605565b60405180910390fd5b6102ee6000610995565b565b60008060009054906101000a900473ffffffffffffffffffffffffffffffffffffffff16905090565b600060066000868686866040516020016103369493929190611661565b60405160208183030381529060405280519060200120815260200190815260200160002060009054906101000a900460ff1615610376576001905061037b565b600090505b949350505050565b6002818154811061039357600080fd5b90600052602060002090600402016000915090508060000180546103b6906116ce565b80601f01602080910402602001604051908101604052809291908181526020018280546103e2906116ce565b801561042f5780601f106104045761010080835404028352916020019161042f565b820191906000526020600020905b81548152906001019060200180831161041257829003601f168201915b505050505090806001018054610444906116ce565b80601f0160208091040260200160405190810160405280929190818152602001828054610470906116ce565b80156104bd5780601f10610492576101008083540402835291602001916104bd565b820191906000526020600020905b8154815290600101906020018083116104a057829003601f168201915b5050505050908060020180546104d2906116ce565b80601f01602080910402602001604051908101604052809291908181526020018280546104fe906116ce565b801561054b5780601f106105205761010080835404028352916020019161054b565b820191906000526020600020905b81548152906001019060200180831161052e57829003601f168201915b505050505090806003018054610560906116ce565b80601f016020809104026020016040519081016040528092919081815260200182805461058c906116ce565b80156105d95780601f106105ae576101008083540402835291602001916105d9565b820191906000526020600020905b8154815290600101906020018083116105bc57829003601f168201915b5050505050905084565b60036020528060005260406000206000915090508054610602906116ce565b80601f016020809104026020016040519081016040528092919081815260200182805461062e906116ce565b801561067b5780601f106106505761010080835404028352916020019161067b565b820191906000526020600020905b81548152906001019060200180831161065e57829003601f168201915b505050505081565b6000600360003373ffffffffffffffffffffffffffffffffffffffff1673ffffffffffffffffffffffffffffffffffffffff16815260200190815260200160002080546106cf906116ce565b9050146106db57600080fd5b80600360003373ffffffffffffffffffffffffffffffffffffffff1673ffffffffffffffffffffffffffffffffffffffff168152602001908152602001600020908051906020019061072e929190610f11565b5061073833610a59565b61074130610a59565b50565b60606000600560008473ffffffffffffffffffffffffffffffffffffffff1673ffffffffffffffffffffffffffffffffffffffff1681526020019081526020016000205467ffffffffffffffff8111156107a1576107a06110f4565b5b6040519080825280602002602001820160405280156107cf5781602001602082028036833780820191505090505b5090506000805b60028054905081101561088b578473ffffffffffffffffffffffffffffffffffffffff166004600083815260200190815260200160002060009054906101000a900473ffffffffffffffffffffffffffffffffffffffff1673ffffffffffffffffffffffffffffffffffffffff1603610878578083838151811061085d5761085c6116ff565b5b60200260200101818152505081806108749061175d565b9250505b80806108839061175d565b9150506107d6565b508192505050919050565b61089e61098d565b73ffffffffffffffffffffffffffffffffffffffff166108bc6102f0565b73ffffffffffffffffffffffffffffffffffffffff1614610912576040517f08c379a000000000000000000000000000000000000000000000000000000000815260040161090990611605565b60405180910390fd5b600073ffffffffffffffffffffffffffffffffffffffff168173ffffffffffffffffffffffffffffffffffffffff1603610981576040517f08c379a000000000000000000000000000000000000000000000000000000000815260040161097890611817565b60405180910390fd5b61098a81610995565b50565b600033905090565b60008060009054906101000a900473ffffffffffffffffffffffffffffffffffffffff169050816000806101000a81548173ffffffffffffffffffffffffffffffffffffffff021916908373ffffffffffffffffffffffffffffffffffffffff1602179055508173ffffffffffffffffffffffffffffffffffffffff168173ffffffffffffffffffffffffffffffffffffffff167f8be0079c531659141344cd1fd0a4f28419497f9722a3daafe3b4186f6b6457e060405160405180910390a35050565b6000610a6482610c79565b905060028190806001815401808255809150506001900390600052602060002090600402016000909190919091506000820151816000019080519060200190610aae929190610f11565b506020820151816001019080519060200190610acb929190610f11565b506040820151816002019080519060200190610ae8929190610f11565b506060820151816003019080519060200190610b05929190610f11565b50505060006001600280549050610b1c9190611837565b9050826004600083815260200190815260200160002060006101000a81548173ffffffffffffffffffffffffffffffffffffffff021916908373ffffffffffffffffffffffffffffffffffffffff160217905550610bc36001600560008673ffffffffffffffffffffffffffffffffffffffff1673ffffffffffffffffffffffffffffffffffffffff16815260200190815260200160002054610d2b90919063ffffffff16565b600560008573ffffffffffffffffffffffffffffffffffffffff1673ffffffffffffffffffffffffffffffffffffffff1681526020019081526020016000208190555060008260000151836020015184604001518560600151604051602001610c2f9493929190611661565b60405160208183030381529060405280519060200120905060016006600083815260200190815260200160002060006101000a81548160ff02191690831515021790555050505050565b610c81610f97565b6000610c96610c91610100610d41565b610db1565b90506000610cad610ca8610100610d41565b610db1565b90506000610cc4610cbf610100610d41565b610db1565b90506000610cda610cd56065610d41565b610db1565b9050610ce884848484610319565b610d1857604051806080016040528085815260200184815260200183815260200182815250945050505050610d26565b610d2186610a59565b505050505b919050565b60008183610d39919061186b565b905092915050565b600080824233600154604051602001610d5c9392919061192a565b6040516020818303038152906040528051906020012060001c610d7f9190611996565b9050600181610d8e9190611837565b905060016000815480929190610da39061175d565b919050555080915050919050565b606060008203610df8576040518060400160405280600181526020017f30000000000000000000000000000000000000000000000000000000000000008152509050610f0c565b600082905060005b60008214610e2a578080610e139061175d565b915050600a82610e2391906119c7565b9150610e00565b60008167ffffffffffffffff811115610e4657610e456110f4565b5b6040519080825280601f01601f191660200182016040528015610e785781602001600182028036833780820191505090505b5090505b60008514610f0557600182610e919190611837565b9150600a85610ea09190611996565b6030610eac919061186b565b60f81b818381518110610ec257610ec16116ff565b5b60200101907effffffffffffffffffffffffffffffffffffffffffffffffffffffffffffff1916908160001a905350600a85610efe91906119c7565b9450610e7c565b8093505050505b919050565b828054610f1d906116ce565b90600052602060002090601f016020900481019282610f3f5760008555610f86565b82601f10610f5857805160ff1916838001178555610f86565b82800160010185558215610f86579182015b82811115610f85578251825591602001919060010190610f6a565b5b509050610f939190610fbf565b5090565b6040518060800160405280606081526020016060815260200160608152602001606081525090565b5b80821115610fd8576000816000905550600101610fc0565b5090565b6000604051905090565b600080fd5b600080fd5b6000819050919050565b61100381610ff0565b811461100e57600080fd5b50565b60008135905061102081610ffa565b92915050565b60006020828403121561103c5761103b610fe6565b5b600061104a84828501611011565b91505092915050565b61105c81610ff0565b82525050565b60006020820190506110776000830184611053565b92915050565b600073ffffffffffffffffffffffffffffffffffffffff82169050919050565b60006110a88261107d565b9050919050565b6110b88161109d565b82525050565b60006020820190506110d360008301846110af565b92915050565b600080fd5b600080fd5b6000601f19601f8301169050919050565b7f4e487b7100000000000000000000000000000000000000000000000000000000600052604160045260246000fd5b61112c826110e3565b810181811067ffffffffffffffff8211171561114b5761114a6110f4565b5b80604052505050565b600061115e610fdc565b905061116a8282611123565b919050565b600067ffffffffffffffff82111561118a576111896110f4565b5b611193826110e3565b9050602081019050919050565b82818337600083830152505050565b60006111c26111bd8461116f565b611154565b9050828152602081018484840111156111de576111dd6110de565b5b6111e98482856111a0565b509392505050565b600082601f830112611206576112056110d9565b5b81356112168482602086016111af565b91505092915050565b6000806000806080858703121561123957611238610fe6565b5b600085013567ffffffffffffffff81111561125757611256610feb565b5b611263878288016111f1565b945050602085013567ffffffffffffffff81111561128457611283610feb565b5b611290878288016111f1565b935050604085013567ffffffffffffffff8111156112b1576112b0610feb565b5b6112bd878288016111f1565b925050606085013567ffffffffffffffff8111156112de576112dd610feb565b5b6112ea878288016111f1565b91505092959194509250565b60008115159050919050565b61130b816112f6565b82525050565b60006020820190506113266000830184611302565b92915050565b600081519050919050565b600082825260208201905092915050565b60005b8381101561136657808201518184015260208101905061134b565b83811115611375576000848401525b50505050565b60006113868261132c565b6113908185611337565b93506113a0818560208601611348565b6113a9816110e3565b840191505092915050565b600060808201905081810360008301526113ce818761137b565b905081810360208301526113e2818661137b565b905081810360408301526113f6818561137b565b9050818103606083015261140a818461137b565b905095945050505050565b61141e8161109d565b811461142957600080fd5b50565b60008135905061143b81611415565b92915050565b60006020828403121561145757611456610fe6565b5b60006114658482850161142c565b91505092915050565b60006020820190508181036000830152611488818461137b565b905092915050565b6000602082840312156114a6576114a5610fe6565b5b600082013567ffffffffffffffff8111156114c4576114c3610feb565b5b6114d0848285016111f1565b91505092915050565b600081519050919050565b600082825260208201905092915050565b6000819050602082019050919050565b61150e81610ff0565b82525050565b60006115208383611505565b60208301905092915050565b6000602082019050919050565b6000611544826114d9565b61154e81856114e4565b9350611559836114f5565b8060005b8381101561158a5781516115718882611514565b975061157c8361152c565b92505060018101905061155d565b5085935050505092915050565b600060208201905081810360008301526115b18184611539565b905092915050565b7f4f776e61626c653a2063616c6c6572206973206e6f7420746865206f776e6572600082015250565b60006115ef602083611337565b91506115fa826115b9565b602082019050919050565b6000602082019050818103600083015261161e816115e2565b9050919050565b600081905092915050565b600061163b8261132c565b6116458185611625565b9350611655818560208601611348565b80840191505092915050565b600061166d8287611630565b91506116798286611630565b91506116858285611630565b91506116918284611630565b915081905095945050505050565b7f4e487b7100000000000000000000000000000000000000000000000000000000600052602260045260246000fd5b600060028204905060018216806116e657607f821691505b6020821081036116f9576116f861169f565b5b50919050565b7f4e487b7100000000000000000000000000000000000000000000000000000000600052603260045260246000fd5b7f4e487b7100000000000000000000000000000000000000000000000000000000600052601160045260246000fd5b600061176882610ff0565b91507fffffffffffffffffffffffffffffffffffffffffffffffffffffffffffffffff820361179a5761179961172e565b5b600182019050919050565b7f4f776e61626c653a206e6577206f776e657220697320746865207a65726f206160008201527f6464726573730000000000000000000000000000000000000000000000000000602082015250565b6000611801602683611337565b915061180c826117a5565b604082019050919050565b60006020820190508181036000830152611830816117f4565b9050919050565b600061184282610ff0565b915061184d83610ff0565b9250828210156118605761185f61172e565b5b828203905092915050565b600061187682610ff0565b915061188183610ff0565b9250827fffffffffffffffffffffffffffffffffffffffffffffffffffffffffffffffff038211156118b6576118b561172e565b5b828201905092915050565b6000819050919050565b6118dc6118d782610ff0565b6118c1565b82525050565b60008160601b9050919050565b60006118fa826118e2565b9050919050565b600061190c826118ef565b9050919050565b61192461191f8261109d565b611901565b82525050565b600061193682866118cb565b6020820191506119468285611913565b60148201915061195682846118cb565b602082019150819050949350505050565b7f4e487b7100000000000000000000000000000000000000000000000000000000600052601260045260246000fd5b60006119a182610ff0565b91506119ac83610ff0565b9250826119bc576119bb611967565b5b828206905092915050565b60006119d282610ff0565b91506119dd83610ff0565b9250826119ed576119ec611967565b5b82820490509291505056fea26469706673582212209c85acea103b154ac228829733eaee5af65c8100505a7892c2abde38ad16091d64736f6c634300080d0033",
  "immutableReferences": {},
  "source": "// SPDX-License-Identifier: MIT\npragma solidity ^0.8.0;\n\nimport \"@openzeppelin/contracts/access/Ownable.sol\";\nimport \"@openzeppelin/contracts/utils/Strings.sol\";\nimport \"@openzeppelin/contracts/utils/math/SafeMath.sol\";\n\ncontract LuckDApp is Ownable {\n  using SafeMath for uint256;\n\n  uint nonce = 0;\n\n  struct LDNA {\n    string r;\n    string g;\n    string b;\n    string a;\n  }\n\n  LDNA[] public luckDNA;\n\n  mapping (address => string) public playerToName;\n  mapping (uint => address) public ldnaToOwner;\n  mapping (address => uint) ldnaCount;\n  mapping (bytes32 => bool) hashToLDNA;\n\n  function _createLdna(address _owner) internal {\n    LDNA memory ldna = _generateRandomLdna(_owner);\n    luckDNA.push(ldna);\n    uint id = luckDNA.length - 1;\n    ldnaToOwner[id] = _owner;\n    ldnaCount[_owner] = ldnaCount[_owner].add(1);\n    bytes32 hash = keccak256(abi.encodePacked(ldna.r, ldna.g, ldna.b, ldna.a));\n    hashToLDNA[hash] = true;\n  }\n\n  function _generateRandomLdna(address _owner) internal returns (LDNA memory _ldna) {\n    string memory r = Strings.toString(_random(256));\n    string memory g = Strings.toString(_random(256));\n    string memory b = Strings.toString(_random(256));\n    string memory a = Strings.toString(_random(101));\n    if (!ldnaExists(r, g, b, a)) {\n      return LDNA(r, g, b, a);\n    } else {\n      _createLdna(_owner);\n    }\n  }\n\n  function _random(uint _num) internal returns (uint) {\n    uint random = uint(keccak256(abi.encodePacked(block.timestamp, msg.sender, nonce))) % _num;\n    random = random - 1;\n    nonce++;\n    return random;\n  }\n\n  function newPlayer(string memory _name) public {\n    require(bytes(playerToName[msg.sender]).length == 0);\n    playerToName[msg.sender] = _name;\n    _createLdna(msg.sender);\n    _createLdna(address(this));\n  }\n\n  function luckChallenge(uint _ldna) public pure returns (uint) {\n    uint ldna = _ldna;\n    return ldna;\n  }\n\n  function ldnaExists(string memory _r, string memory _g, string memory _b, string memory _a) public view returns (bool) {\n    if (hashToLDNA[keccak256(abi.encodePacked(_r, _g, _b, _a))]) {\n      return true;\n    } else {\n      return false;\n    }\n  }\n\n  function playerLDNA(address _owner) external view returns(uint[] memory) {\n    uint[] memory ldna = new uint[](ldnaCount[_owner]);\n    uint counter = 0;\n    for (uint i = 0; i < luckDNA.length; i++) {\n      if (ldnaToOwner[i] == _owner) {\n        ldna[counter] = i;\n        counter++;\n      }\n    }\n    return ldna;\n  }\n}\n",
  "sourcePath": "/Users/laetadevelopment/Documents/LuckDApp/contracts/LuckDApp.sol",
  "compiler": {
    "name": "solc",
    "version": "0.8.13+commit.abaa5c0e.Emscripten.clang"
  },
  "schemaVersion": "3.4.6",
  "updatedAt": "2022-05-23T02:51:22.195Z",
  "networkType": "ethereum",
  "devdoc": {
    "kind": "dev",
    "methods": {
      "owner()": {
        "details": "Returns the address of the current owner."
      },
      "renounceOwnership()": {
        "details": "Leaves the contract without owner. It will not be possible to call `onlyOwner` functions anymore. Can only be called by the current owner. NOTE: Renouncing ownership will leave the contract without an owner, thereby removing any functionality that is only available to the owner."
      },
      "transferOwnership(address)": {
        "details": "Transfers ownership of the contract to a new account (`newOwner`). Can only be called by the current owner."
      }
    },
    "version": 1
  },
  "userdoc": {
    "kind": "user",
    "methods": {},
    "version": 1
  }
}