{
  "contractName": "LuckDApp",
  "abi": [
    {
      "anonymous": false,
      "inputs": [
        {
          "indexed": true,
          "internalType": "address",
          "name": "previousOwner",
          "type": "address"
        },
        {
          "indexed": true,
          "internalType": "address",
          "name": "newOwner",
          "type": "address"
        }
      ],
      "name": "OwnershipTransferred",
      "type": "event"
    },
    {
      "inputs": [
        {
          "internalType": "uint256",
          "name": "",
          "type": "uint256"
        }
      ],
      "name": "ldnaToOwner",
      "outputs": [
        {
          "internalType": "address",
          "name": "",
          "type": "address"
        }
      ],
      "stateMutability": "view",
      "type": "function",
      "constant": true
    },
    {
      "inputs": [
        {
          "internalType": "uint256",
          "name": "",
          "type": "uint256"
        }
      ],
      "name": "luckDNA",
      "outputs": [
        {
          "internalType": "string",
          "name": "r",
          "type": "string"
        },
        {
          "internalType": "string",
          "name": "g",
          "type": "string"
        },
        {
          "internalType": "string",
          "name": "b",
          "type": "string"
        },
        {
          "internalType": "string",
          "name": "a",
          "type": "string"
        }
      ],
      "stateMutability": "view",
      "type": "function",
      "constant": true
    },
    {
      "inputs": [],
      "name": "owner",
      "outputs": [
        {
          "internalType": "address",
          "name": "",
          "type": "address"
        }
      ],
      "stateMutability": "view",
      "type": "function",
      "constant": true
    },
    {
      "inputs": [
        {
          "internalType": "address",
          "name": "",
          "type": "address"
        }
      ],
      "name": "playerToName",
      "outputs": [
        {
          "internalType": "string",
          "name": "",
          "type": "string"
        }
      ],
      "stateMutability": "view",
      "type": "function",
      "constant": true
    },
    {
      "inputs": [],
      "name": "renounceOwnership",
      "outputs": [],
      "stateMutability": "nonpayable",
      "type": "function"
    },
    {
      "inputs": [
        {
          "internalType": "address",
          "name": "newOwner",
          "type": "address"
        }
      ],
      "name": "transferOwnership",
      "outputs": [],
      "stateMutability": "nonpayable",
      "type": "function"
    },
    {
      "inputs": [
        {
          "internalType": "string",
          "name": "r",
          "type": "string"
        },
        {
          "internalType": "string",
          "name": "g",
          "type": "string"
        },
        {
          "internalType": "string",
          "name": "b",
          "type": "string"
        },
        {
          "internalType": "string",
          "name": "a",
          "type": "string"
        }
      ],
      "name": "ldnaExists",
      "outputs": [
        {
          "internalType": "bool",
          "name": "",
          "type": "bool"
        }
      ],
      "stateMutability": "view",
      "type": "function",
      "constant": true
    },
    {
      "inputs": [
        {
          "internalType": "string",
          "name": "name",
          "type": "string"
        }
      ],
      "name": "newPlayer",
      "outputs": [],
      "stateMutability": "nonpayable",
      "type": "function"
    }
  ],
  "bytecode": "0x6080604052600060015534801561001557600080fd5b5061003261002761003760201b60201c565b61003f60201b60201c565b610103565b600033905090565b60008060009054906101000a900473ffffffffffffffffffffffffffffffffffffffff169050816000806101000a81548173ffffffffffffffffffffffffffffffffffffffff021916908373ffffffffffffffffffffffffffffffffffffffff1602179055508173ffffffffffffffffffffffffffffffffffffffff168173ffffffffffffffffffffffffffffffffffffffff167f8be0079c531659141344cd1fd0a4f28419497f9722a3daafe3b4186f6b6457e060405160405180910390a35050565b6116a1806101126000396000f3fe608060405234801561001057600080fd5b50600436106100885760003560e01c8063aae027e21161005b578063aae027e214610115578063ae2585ea14610148578063ceb95d7a14610178578063f2fde38b1461019457610088565b80634061b3981461008d578063715018a6146100bd5780638da5cb5b146100c75780639e1e1596146100e5575b600080fd5b6100a760048036038101906100a29190610da3565b6101b0565b6040516100b49190610e11565b60405180910390f35b6100c56101e3565b005b6100cf61026b565b6040516100dc9190610e11565b60405180910390f35b6100ff60048036038101906100fa9190610f72565b610294565b60405161010c9190611064565b60405180910390f35b61012f600480360381019061012a9190610da3565b6102fe565b60405161013f9493929190611107565b60405180910390f35b610162600480360381019061015d9190611194565b61055e565b60405161016f91906111c1565b60405180910390f35b610192600480360381019061018d91906111e3565b6105fe565b005b6101ae60048036038101906101a99190611194565b6106bf565b005b60046020528060005260406000206000915054906101000a900473ffffffffffffffffffffffffffffffffffffffff1681565b6101eb6107b6565b73ffffffffffffffffffffffffffffffffffffffff1661020961026b565b73ffffffffffffffffffffffffffffffffffffffff161461025f576040517f08c379a000000000000000000000000000000000000000000000000000000000815260040161025690611278565b60405180910390fd5b61026960006107be565b565b60008060009054906101000a900473ffffffffffffffffffffffffffffffffffffffff16905090565b600060056000868686866040516020016102b194939291906112d4565b60405160208183030381529060405280519060200120815260200190815260200160002060009054906101000a900460ff16156102f157600190506102f6565b600090505b949350505050565b6002818154811061030e57600080fd5b906000526020600020906004020160009150905080600001805461033190611341565b80601f016020809104026020016040519081016040528092919081815260200182805461035d90611341565b80156103aa5780601f1061037f576101008083540402835291602001916103aa565b820191906000526020600020905b81548152906001019060200180831161038d57829003601f168201915b5050505050908060010180546103bf90611341565b80601f01602080910402602001604051908101604052809291908181526020018280546103eb90611341565b80156104385780601f1061040d57610100808354040283529160200191610438565b820191906000526020600020905b81548152906001019060200180831161041b57829003601f168201915b50505050509080600201805461044d90611341565b80601f016020809104026020016040519081016040528092919081815260200182805461047990611341565b80156104c65780601f1061049b576101008083540402835291602001916104c6565b820191906000526020600020905b8154815290600101906020018083116104a957829003601f168201915b5050505050908060030180546104db90611341565b80601f016020809104026020016040519081016040528092919081815260200182805461050790611341565b80156105545780601f1061052957610100808354040283529160200191610554565b820191906000526020600020905b81548152906001019060200180831161053757829003601f168201915b5050505050905084565b6003602052806000526040600020600091509050805461057d90611341565b80601f01602080910402602001604051908101604052809291908181526020018280546105a990611341565b80156105f65780601f106105cb576101008083540402835291602001916105f6565b820191906000526020600020905b8154815290600101906020018083116105d957829003601f168201915b505050505081565b6000600360003373ffffffffffffffffffffffffffffffffffffffff1673ffffffffffffffffffffffffffffffffffffffff168152602001908152602001600020805461064a90611341565b90501461065657600080fd5b80600360003373ffffffffffffffffffffffffffffffffffffffff1673ffffffffffffffffffffffffffffffffffffffff16815260200190815260200160002090805190602001906106a9929190610c8e565b506106b333610882565b6106bc30610882565b50565b6106c76107b6565b73ffffffffffffffffffffffffffffffffffffffff166106e561026b565b73ffffffffffffffffffffffffffffffffffffffff161461073b576040517f08c379a000000000000000000000000000000000000000000000000000000000815260040161073290611278565b60405180910390fd5b600073ffffffffffffffffffffffffffffffffffffffff168173ffffffffffffffffffffffffffffffffffffffff16036107aa576040517f08c379a00000000000000000000000000000000000000000000000000000000081526004016107a1906113e4565b60405180910390fd5b6107b3816107be565b50565b600033905090565b60008060009054906101000a900473ffffffffffffffffffffffffffffffffffffffff169050816000806101000a81548173ffffffffffffffffffffffffffffffffffffffff021916908373ffffffffffffffffffffffffffffffffffffffff1602179055508173ffffffffffffffffffffffffffffffffffffffff168173ffffffffffffffffffffffffffffffffffffffff167f8be0079c531659141344cd1fd0a4f28419497f9722a3daafe3b4186f6b6457e060405160405180910390a35050565b600061088d82610a0c565b9050600281908060018154018082558091505060019003906000526020600020906004020160009091909190915060008201518160000190805190602001906108d7929190610c8e565b5060208201518160010190805190602001906108f4929190610c8e565b506040820151816002019080519060200190610911929190610c8e565b50606082015181600301908051906020019061092e929190610c8e565b505050600060016002805490506109459190611433565b9050826004600083815260200190815260200160002060006101000a81548173ffffffffffffffffffffffffffffffffffffffff021916908373ffffffffffffffffffffffffffffffffffffffff160217905550600082600001518360200151846040015185606001516040516020016109c294939291906112d4565b60405160208183030381529060405280519060200120905060016005600083815260200190815260200160002060006101000a81548160ff02191690831515021790555050505050565b610a14610d14565b6000610a29610a24610100610abe565b610b2e565b90506000610a40610a3b610100610abe565b610b2e565b90506000610a57610a52610100610abe565b610b2e565b90506000610a6d610a686065610abe565b610b2e565b9050610a7b84848484610294565b610aab57604051806080016040528085815260200184815260200183815260200182815250945050505050610ab9565b610ab486610882565b505050505b919050565b600080824233600154604051602001610ad9939291906114d0565b6040516020818303038152906040528051906020012060001c610afc919061153c565b9050600181610b0b9190611433565b905060016000815480929190610b209061156d565b919050555080915050919050565b606060008203610b75576040518060400160405280600181526020017f30000000000000000000000000000000000000000000000000000000000000008152509050610c89565b600082905060005b60008214610ba7578080610b909061156d565b915050600a82610ba091906115b5565b9150610b7d565b60008167ffffffffffffffff811115610bc357610bc2610e47565b5b6040519080825280601f01601f191660200182016040528015610bf55781602001600182028036833780820191505090505b5090505b60008514610c8257600182610c0e9190611433565b9150600a85610c1d919061153c565b6030610c2991906115e6565b60f81b818381518110610c3f57610c3e61163c565b5b60200101907effffffffffffffffffffffffffffffffffffffffffffffffffffffffffffff1916908160001a905350600a85610c7b91906115b5565b9450610bf9565b8093505050505b919050565b828054610c9a90611341565b90600052602060002090601f016020900481019282610cbc5760008555610d03565b82601f10610cd557805160ff1916838001178555610d03565b82800160010185558215610d03579182015b82811115610d02578251825591602001919060010190610ce7565b5b509050610d109190610d3c565b5090565b6040518060800160405280606081526020016060815260200160608152602001606081525090565b5b80821115610d55576000816000905550600101610d3d565b5090565b6000604051905090565b600080fd5b600080fd5b6000819050919050565b610d8081610d6d565b8114610d8b57600080fd5b50565b600081359050610d9d81610d77565b92915050565b600060208284031215610db957610db8610d63565b5b6000610dc784828501610d8e565b91505092915050565b600073ffffffffffffffffffffffffffffffffffffffff82169050919050565b6000610dfb82610dd0565b9050919050565b610e0b81610df0565b82525050565b6000602082019050610e266000830184610e02565b92915050565b600080fd5b600080fd5b6000601f19601f8301169050919050565b7f4e487b7100000000000000000000000000000000000000000000000000000000600052604160045260246000fd5b610e7f82610e36565b810181811067ffffffffffffffff82111715610e9e57610e9d610e47565b5b80604052505050565b6000610eb1610d59565b9050610ebd8282610e76565b919050565b600067ffffffffffffffff821115610edd57610edc610e47565b5b610ee682610e36565b9050602081019050919050565b82818337600083830152505050565b6000610f15610f1084610ec2565b610ea7565b905082815260208101848484011115610f3157610f30610e31565b5b610f3c848285610ef3565b509392505050565b600082601f830112610f5957610f58610e2c565b5b8135610f69848260208601610f02565b91505092915050565b60008060008060808587031215610f8c57610f8b610d63565b5b600085013567ffffffffffffffff811115610faa57610fa9610d68565b5b610fb687828801610f44565b945050602085013567ffffffffffffffff811115610fd757610fd6610d68565b5b610fe387828801610f44565b935050604085013567ffffffffffffffff81111561100457611003610d68565b5b61101087828801610f44565b925050606085013567ffffffffffffffff81111561103157611030610d68565b5b61103d87828801610f44565b91505092959194509250565b60008115159050919050565b61105e81611049565b82525050565b60006020820190506110796000830184611055565b92915050565b600081519050919050565b600082825260208201905092915050565b60005b838110156110b957808201518184015260208101905061109e565b838111156110c8576000848401525b50505050565b60006110d98261107f565b6110e3818561108a565b93506110f381856020860161109b565b6110fc81610e36565b840191505092915050565b6000608082019050818103600083015261112181876110ce565b9050818103602083015261113581866110ce565b9050818103604083015261114981856110ce565b9050818103606083015261115d81846110ce565b905095945050505050565b61117181610df0565b811461117c57600080fd5b50565b60008135905061118e81611168565b92915050565b6000602082840312156111aa576111a9610d63565b5b60006111b88482850161117f565b91505092915050565b600060208201905081810360008301526111db81846110ce565b905092915050565b6000602082840312156111f9576111f8610d63565b5b600082013567ffffffffffffffff81111561121757611216610d68565b5b61122384828501610f44565b91505092915050565b7f4f776e61626c653a2063616c6c6572206973206e6f7420746865206f776e6572600082015250565b600061126260208361108a565b915061126d8261122c565b602082019050919050565b6000602082019050818103600083015261129181611255565b9050919050565b600081905092915050565b60006112ae8261107f565b6112b88185611298565b93506112c881856020860161109b565b80840191505092915050565b60006112e082876112a3565b91506112ec82866112a3565b91506112f882856112a3565b915061130482846112a3565b915081905095945050505050565b7f4e487b7100000000000000000000000000000000000000000000000000000000600052602260045260246000fd5b6000600282049050600182168061135957607f821691505b60208210810361136c5761136b611312565b5b50919050565b7f4f776e61626c653a206e6577206f776e657220697320746865207a65726f206160008201527f6464726573730000000000000000000000000000000000000000000000000000602082015250565b60006113ce60268361108a565b91506113d982611372565b604082019050919050565b600060208201905081810360008301526113fd816113c1565b9050919050565b7f4e487b7100000000000000000000000000000000000000000000000000000000600052601160045260246000fd5b600061143e82610d6d565b915061144983610d6d565b92508282101561145c5761145b611404565b5b828203905092915050565b6000819050919050565b61148261147d82610d6d565b611467565b82525050565b60008160601b9050919050565b60006114a082611488565b9050919050565b60006114b282611495565b9050919050565b6114ca6114c582610df0565b6114a7565b82525050565b60006114dc8286611471565b6020820191506114ec82856114b9565b6014820191506114fc8284611471565b602082019150819050949350505050565b7f4e487b7100000000000000000000000000000000000000000000000000000000600052601260045260246000fd5b600061154782610d6d565b915061155283610d6d565b9250826115625761156161150d565b5b828206905092915050565b600061157882610d6d565b91507fffffffffffffffffffffffffffffffffffffffffffffffffffffffffffffffff82036115aa576115a9611404565b5b600182019050919050565b60006115c082610d6d565b91506115cb83610d6d565b9250826115db576115da61150d565b5b828204905092915050565b60006115f182610d6d565b91506115fc83610d6d565b9250827fffffffffffffffffffffffffffffffffffffffffffffffffffffffffffffffff0382111561163157611630611404565b5b828201905092915050565b7f4e487b7100000000000000000000000000000000000000000000000000000000600052603260045260246000fdfea2646970667358221220930cf2c0711b7e0d9b75adce90d0bc8c06e3f05022d7f81151092d6a76bdaaa064736f6c634300080d0033",
  "immutableReferences": {},
  "source": "// SPDX-License-Identifier: MIT\npragma solidity ^0.8.0;\n\nimport \"@openzeppelin/contracts/access/Ownable.sol\";\nimport \"@openzeppelin/contracts/utils/Strings.sol\";\n\ncontract LuckDApp is Ownable {\n  uint nonce = 0;\n\n  struct LDNA {\n    string r;\n    string g;\n    string b;\n    string a;\n  }\n\n  LDNA[] public luckDNA;\n\n  mapping (address => string) public playerToName;\n  mapping (uint => address) public ldnaToOwner;\n  mapping (bytes32 => bool) hashToLDNA;\n\n  function _createLdna(address owner) internal {\n    LDNA memory ldna = _generateRandomLdna(owner);\n    luckDNA.push(ldna);\n    uint id = luckDNA.length - 1;\n    ldnaToOwner[id] = owner;\n    bytes32 hash = keccak256(abi.encodePacked(ldna.r, ldna.g, ldna.b, ldna.a));\n    hashToLDNA[hash] = true;\n  }\n\n  function _generateRandomLdna(address owner) internal returns (LDNA memory l) {\n    string memory r = Strings.toString(_random(256));\n    string memory g = Strings.toString(_random(256));\n    string memory b = Strings.toString(_random(256));\n    string memory a = Strings.toString(_random(101));\n    if (!ldnaExists(r, g, b, a)) {\n      return LDNA(r, g, b, a);\n    } else {\n      _createLdna(owner);\n    }\n  }\n\n  function _random(uint num) internal returns (uint) {\n    uint random = uint(keccak256(abi.encodePacked(block.timestamp, msg.sender, nonce))) % num;\n    random = random - 1;\n    nonce++;\n    return random;\n  }\n\n  function ldnaExists(string memory r, string memory g, string memory b, string memory a) public view returns (bool) {\n    if (hashToLDNA[keccak256(abi.encodePacked(r, g, b, a))]) {\n      return true;\n    } else {\n      return false;\n    }\n  }\n\n  function newPlayer(string memory name) public {\n    require(bytes(playerToName[msg.sender]).length == 0);\n    playerToName[msg.sender] = name;\n    _createLdna(msg.sender);\n    _createLdna(address(this));\n  }\n}\n",
  "sourcePath": "/Users/laetadevelopment/Documents/LuckDApp/contracts/LuckDApp.sol",
  "compiler": {
    "name": "solc",
    "version": "0.8.13+commit.abaa5c0e.Emscripten.clang"
  },
  "schemaVersion": "3.4.6",
  "updatedAt": "2022-05-18T18:34:13.743Z",
  "networkType": "ethereum",
  "devdoc": {
    "kind": "dev",
    "methods": {
      "owner()": {
        "details": "Returns the address of the current owner."
      },
      "renounceOwnership()": {
        "details": "Leaves the contract without owner. It will not be possible to call `onlyOwner` functions anymore. Can only be called by the current owner. NOTE: Renouncing ownership will leave the contract without an owner, thereby removing any functionality that is only available to the owner."
      },
      "transferOwnership(address)": {
        "details": "Transfers ownership of the contract to a new account (`newOwner`). Can only be called by the current owner."
      }
    },
    "version": 1
  },
  "userdoc": {
    "kind": "user",
    "methods": {},
    "version": 1
  }
}