{
  "contractName": "LuckDApp",
  "abi": [
    {
      "inputs": [],
      "stateMutability": "nonpayable",
      "type": "constructor"
    },
    {
      "anonymous": false,
      "inputs": [
        {
          "indexed": true,
          "internalType": "address",
          "name": "owner",
          "type": "address"
        },
        {
          "indexed": true,
          "internalType": "address",
          "name": "approved",
          "type": "address"
        },
        {
          "indexed": true,
          "internalType": "uint256",
          "name": "tokenId",
          "type": "uint256"
        }
      ],
      "name": "Approval",
      "type": "event"
    },
    {
      "anonymous": false,
      "inputs": [
        {
          "indexed": true,
          "internalType": "address",
          "name": "owner",
          "type": "address"
        },
        {
          "indexed": true,
          "internalType": "address",
          "name": "operator",
          "type": "address"
        },
        {
          "indexed": false,
          "internalType": "bool",
          "name": "approved",
          "type": "bool"
        }
      ],
      "name": "ApprovalForAll",
      "type": "event"
    },
    {
      "anonymous": false,
      "inputs": [
        {
          "indexed": false,
          "internalType": "bool",
          "name": "results",
          "type": "bool"
        },
        {
          "indexed": false,
          "internalType": "uint256",
          "name": "random",
          "type": "uint256"
        },
        {
          "indexed": false,
          "internalType": "uint256[]",
          "name": "ldna",
          "type": "uint256[]"
        }
      ],
      "name": "LuckChallengeResults",
      "type": "event"
    },
    {
      "anonymous": false,
      "inputs": [
        {
          "indexed": true,
          "internalType": "address",
          "name": "previousOwner",
          "type": "address"
        },
        {
          "indexed": true,
          "internalType": "address",
          "name": "newOwner",
          "type": "address"
        }
      ],
      "name": "OwnershipTransferred",
      "type": "event"
    },
    {
      "anonymous": false,
      "inputs": [
        {
          "indexed": true,
          "internalType": "address",
          "name": "from",
          "type": "address"
        },
        {
          "indexed": true,
          "internalType": "address",
          "name": "to",
          "type": "address"
        },
        {
          "indexed": true,
          "internalType": "uint256",
          "name": "tokenId",
          "type": "uint256"
        }
      ],
      "name": "Transfer",
      "type": "event"
    },
    {
      "inputs": [
        {
          "internalType": "uint256",
          "name": "tokenId",
          "type": "uint256"
        }
      ],
      "name": "getApproved",
      "outputs": [
        {
          "internalType": "address",
          "name": "",
          "type": "address"
        }
      ],
      "stateMutability": "view",
      "type": "function",
      "constant": true
    },
    {
      "inputs": [
        {
          "internalType": "address",
          "name": "owner",
          "type": "address"
        },
        {
          "internalType": "address",
          "name": "operator",
          "type": "address"
        }
      ],
      "name": "isApprovedForAll",
      "outputs": [
        {
          "internalType": "bool",
          "name": "",
          "type": "bool"
        }
      ],
      "stateMutability": "view",
      "type": "function",
      "constant": true
    },
    {
      "inputs": [
        {
          "internalType": "uint256",
          "name": "",
          "type": "uint256"
        }
      ],
      "name": "ldnaToOwner",
      "outputs": [
        {
          "internalType": "address",
          "name": "",
          "type": "address"
        }
      ],
      "stateMutability": "view",
      "type": "function",
      "constant": true
    },
    {
      "inputs": [
        {
          "internalType": "uint256",
          "name": "",
          "type": "uint256"
        }
      ],
      "name": "luckDNA",
      "outputs": [
        {
          "internalType": "string",
          "name": "r",
          "type": "string"
        },
        {
          "internalType": "string",
          "name": "g",
          "type": "string"
        },
        {
          "internalType": "string",
          "name": "b",
          "type": "string"
        },
        {
          "internalType": "string",
          "name": "a",
          "type": "string"
        }
      ],
      "stateMutability": "view",
      "type": "function",
      "constant": true
    },
    {
      "inputs": [],
      "name": "name",
      "outputs": [
        {
          "internalType": "string",
          "name": "",
          "type": "string"
        }
      ],
      "stateMutability": "view",
      "type": "function",
      "constant": true
    },
    {
      "inputs": [],
      "name": "owner",
      "outputs": [
        {
          "internalType": "address",
          "name": "",
          "type": "address"
        }
      ],
      "stateMutability": "view",
      "type": "function",
      "constant": true
    },
    {
      "inputs": [
        {
          "internalType": "address",
          "name": "",
          "type": "address"
        }
      ],
      "name": "playerToName",
      "outputs": [
        {
          "internalType": "string",
          "name": "",
          "type": "string"
        }
      ],
      "stateMutability": "view",
      "type": "function",
      "constant": true
    },
    {
      "inputs": [],
      "name": "renounceOwnership",
      "outputs": [],
      "stateMutability": "nonpayable",
      "type": "function"
    },
    {
      "inputs": [
        {
          "internalType": "address",
          "name": "from",
          "type": "address"
        },
        {
          "internalType": "address",
          "name": "to",
          "type": "address"
        },
        {
          "internalType": "uint256",
          "name": "tokenId",
          "type": "uint256"
        }
      ],
      "name": "safeTransferFrom",
      "outputs": [],
      "stateMutability": "nonpayable",
      "type": "function"
    },
    {
      "inputs": [
        {
          "internalType": "address",
          "name": "from",
          "type": "address"
        },
        {
          "internalType": "address",
          "name": "to",
          "type": "address"
        },
        {
          "internalType": "uint256",
          "name": "tokenId",
          "type": "uint256"
        },
        {
          "internalType": "bytes",
          "name": "_data",
          "type": "bytes"
        }
      ],
      "name": "safeTransferFrom",
      "outputs": [],
      "stateMutability": "nonpayable",
      "type": "function"
    },
    {
      "inputs": [
        {
          "internalType": "address",
          "name": "operator",
          "type": "address"
        },
        {
          "internalType": "bool",
          "name": "approved",
          "type": "bool"
        }
      ],
      "name": "setApprovalForAll",
      "outputs": [],
      "stateMutability": "nonpayable",
      "type": "function"
    },
    {
      "inputs": [
        {
          "internalType": "bytes4",
          "name": "interfaceId",
          "type": "bytes4"
        }
      ],
      "name": "supportsInterface",
      "outputs": [
        {
          "internalType": "bool",
          "name": "",
          "type": "bool"
        }
      ],
      "stateMutability": "view",
      "type": "function",
      "constant": true
    },
    {
      "inputs": [],
      "name": "symbol",
      "outputs": [
        {
          "internalType": "string",
          "name": "",
          "type": "string"
        }
      ],
      "stateMutability": "view",
      "type": "function",
      "constant": true
    },
    {
      "inputs": [
        {
          "internalType": "uint256",
          "name": "tokenId",
          "type": "uint256"
        }
      ],
      "name": "tokenURI",
      "outputs": [
        {
          "internalType": "string",
          "name": "",
          "type": "string"
        }
      ],
      "stateMutability": "view",
      "type": "function",
      "constant": true
    },
    {
      "inputs": [
        {
          "internalType": "address",
          "name": "newOwner",
          "type": "address"
        }
      ],
      "name": "transferOwnership",
      "outputs": [],
      "stateMutability": "nonpayable",
      "type": "function"
    },
    {
      "inputs": [
        {
          "internalType": "string",
          "name": "_name",
          "type": "string"
        }
      ],
      "name": "newPlayer",
      "outputs": [],
      "stateMutability": "nonpayable",
      "type": "function"
    },
    {
      "inputs": [
        {
          "internalType": "uint256",
          "name": "_ldna",
          "type": "uint256"
        }
      ],
      "name": "luckChallenge",
      "outputs": [],
      "stateMutability": "nonpayable",
      "type": "function"
    },
    {
      "inputs": [
        {
          "internalType": "string",
          "name": "_r",
          "type": "string"
        },
        {
          "internalType": "string",
          "name": "_g",
          "type": "string"
        },
        {
          "internalType": "string",
          "name": "_b",
          "type": "string"
        },
        {
          "internalType": "string",
          "name": "_a",
          "type": "string"
        }
      ],
      "name": "ldnaExists",
      "outputs": [
        {
          "internalType": "bool",
          "name": "",
          "type": "bool"
        }
      ],
      "stateMutability": "view",
      "type": "function",
      "constant": true
    },
    {
      "inputs": [
        {
          "internalType": "address",
          "name": "_owner",
          "type": "address"
        }
      ],
      "name": "playerLDNA",
      "outputs": [
        {
          "internalType": "uint256[]",
          "name": "",
          "type": "uint256[]"
        }
      ],
      "stateMutability": "view",
      "type": "function",
      "constant": true
    },
    {
      "inputs": [],
      "name": "withdraw",
      "outputs": [],
      "stateMutability": "nonpayable",
      "type": "function"
    },
    {
      "inputs": [
        {
          "internalType": "uint256",
          "name": "_cost",
          "type": "uint256"
        }
      ],
      "name": "setCost",
      "outputs": [],
      "stateMutability": "nonpayable",
      "type": "function"
    },
    {
      "inputs": [],
      "name": "getLDNA",
      "outputs": [],
      "stateMutability": "payable",
      "type": "function",
      "payable": true
    },
    {
      "inputs": [
        {
          "internalType": "address",
          "name": "_owner",
          "type": "address"
        }
      ],
      "name": "balanceOf",
      "outputs": [
        {
          "internalType": "uint256",
          "name": "",
          "type": "uint256"
        }
      ],
      "stateMutability": "view",
      "type": "function",
      "constant": true
    },
    {
      "inputs": [
        {
          "internalType": "uint256",
          "name": "_tokenId",
          "type": "uint256"
        }
      ],
      "name": "ownerOf",
      "outputs": [
        {
          "internalType": "address",
          "name": "",
          "type": "address"
        }
      ],
      "stateMutability": "view",
      "type": "function",
      "constant": true
    },
    {
      "inputs": [
        {
          "internalType": "address",
          "name": "_from",
          "type": "address"
        },
        {
          "internalType": "address",
          "name": "_to",
          "type": "address"
        },
        {
          "internalType": "uint256",
          "name": "_tokenId",
          "type": "uint256"
        }
      ],
      "name": "transferFrom",
      "outputs": [],
      "stateMutability": "nonpayable",
      "type": "function"
    },
    {
      "inputs": [
        {
          "internalType": "address",
          "name": "_approved",
          "type": "address"
        },
        {
          "internalType": "uint256",
          "name": "_tokenId",
          "type": "uint256"
        }
      ],
      "name": "approve",
      "outputs": [],
      "stateMutability": "nonpayable",
      "type": "function"
    }
  ],
  "bytecode": "0x608060405260006007556611c37937e080006008553480156200002157600080fd5b506040518060400160405280600781526020017f4c75636b444e41000000000000000000000000000000000000000000000000008152506040518060400160405280600481526020017f4c444e4100000000000000000000000000000000000000000000000000000000815250620000ae620000a2620000e860201b60201c565b620000f060201b60201c565b8160019080519060200190620000c6929190620001b4565b508060029080519060200190620000df929190620001b4565b505050620002c8565b600033905090565b60008060009054906101000a900473ffffffffffffffffffffffffffffffffffffffff169050816000806101000a81548173ffffffffffffffffffffffffffffffffffffffff021916908373ffffffffffffffffffffffffffffffffffffffff1602179055508173ffffffffffffffffffffffffffffffffffffffff168173ffffffffffffffffffffffffffffffffffffffff167f8be0079c531659141344cd1fd0a4f28419497f9722a3daafe3b4186f6b6457e060405160405180910390a35050565b828054620001c29062000293565b90600052602060002090601f016020900481019282620001e6576000855562000232565b82601f106200020157805160ff191683800117855562000232565b8280016001018555821562000232579182015b828111156200023157825182559160200191906001019062000214565b5b50905062000241919062000245565b5090565b5b808211156200026057600081600090555060010162000246565b5090565b7f4e487b7100000000000000000000000000000000000000000000000000000000600052602260045260246000fd5b60006002820490506001821680620002ac57607f821691505b602082108103620002c257620002c162000264565b5b50919050565b613c5c80620002d86000396000f3fe6080604052600436106101815760003560e01c80638da5cb5b116100d1578063ae2585ea1161008a578063ceb95d7a11610064578063ceb95d7a14610586578063e985e9c5146105af578063ecfec7d8146105ec578063f2fde38b1461062957610181565b8063ae2585ea146104e3578063b88d4fde14610520578063c87b56dd1461054957610181565b80638da5cb5b146103dd57806395d89b41146104085780639e1e159614610433578063a22cb46514610470578063aa1d448514610499578063aae027e2146104a357610181565b80633ccfd60b1161013e57806344a0d68a1161011857806344a0d68a146103235780636352211e1461034c57806370a0823114610389578063715018a6146103c657610181565b80633ccfd60b146102a65780634061b398146102bd57806342842e0e146102fa57610181565b806301ffc9a71461018657806306fdde03146101c3578063081812fc146101ee578063095ea7b31461022b57806323b872dd146102545780633653d1861461027d575b600080fd5b34801561019257600080fd5b506101ad60048036038101906101a89190612a71565b610652565b6040516101ba9190612ab9565b60405180910390f35b3480156101cf57600080fd5b506101d8610734565b6040516101e59190612b6d565b60405180910390f35b3480156101fa57600080fd5b5061021560048036038101906102109190612bc5565b6107c6565b6040516102229190612c33565b60405180910390f35b34801561023757600080fd5b50610252600480360381019061024d9190612c7a565b61084b565b005b34801561026057600080fd5b5061027b60048036038101906102769190612cba565b610969565b005b34801561028957600080fd5b506102a4600480360381019061029f9190612bc5565b610a4d565b005b3480156102b257600080fd5b506102bb610ac6565b005b3480156102c957600080fd5b506102e460048036038101906102df9190612bc5565b610b98565b6040516102f19190612c33565b60405180910390f35b34801561030657600080fd5b50610321600480360381019061031c9190612cba565b610bcb565b005b34801561032f57600080fd5b5061034a60048036038101906103459190612bc5565b610beb565b005b34801561035857600080fd5b50610373600480360381019061036e9190612bc5565b610c71565b6040516103809190612c33565b60405180910390f35b34801561039557600080fd5b506103b060048036038101906103ab9190612d0d565b610cae565b6040516103bd9190612d49565b60405180910390f35b3480156103d257600080fd5b506103db610cf7565b005b3480156103e957600080fd5b506103f2610d7f565b6040516103ff9190612c33565b60405180910390f35b34801561041457600080fd5b5061041d610da8565b60405161042a9190612b6d565b60405180910390f35b34801561043f57600080fd5b5061045a60048036038101906104559190612e99565b610e3a565b6040516104679190612ab9565b60405180910390f35b34801561047c57600080fd5b5061049760048036038101906104929190612f9c565b610ea4565b005b6104a1610eba565b005b3480156104af57600080fd5b506104ca60048036038101906104c59190612bc5565b610f27565b6040516104da9493929190612fdc565b60405180910390f35b3480156104ef57600080fd5b5061050a60048036038101906105059190612d0d565b611187565b6040516105179190612b6d565b60405180910390f35b34801561052c57600080fd5b50610547600480360381019061054291906130de565b611227565b005b34801561055557600080fd5b50610570600480360381019061056b9190612bc5565b611289565b60405161057d9190612b6d565b60405180910390f35b34801561059257600080fd5b506105ad60048036038101906105a89190613161565b611330565b005b3480156105bb57600080fd5b506105d660048036038101906105d191906131aa565b6113f1565b6040516105e39190612ab9565b60405180910390f35b3480156105f857600080fd5b50610613600480360381019061060e9190612d0d565b611485565b60405161062091906132a8565b60405180910390f35b34801561063557600080fd5b50610650600480360381019061064b9190612d0d565b6115e7565b005b60007f80ac58cd000000000000000000000000000000000000000000000000000000007bffffffffffffffffffffffffffffffffffffffffffffffffffffffff1916827bffffffffffffffffffffffffffffffffffffffffffffffffffffffff1916148061071d57507f5b5e139f000000000000000000000000000000000000000000000000000000007bffffffffffffffffffffffffffffffffffffffffffffffffffffffff1916827bffffffffffffffffffffffffffffffffffffffffffffffffffffffff1916145b8061072d575061072c826116de565b5b9050919050565b606060018054610743906132f9565b80601f016020809104026020016040519081016040528092919081815260200182805461076f906132f9565b80156107bc5780601f10610791576101008083540402835291602001916107bc565b820191906000526020600020905b81548152906001019060200180831161079f57829003601f168201915b5050505050905090565b60006107d182611748565b610810576040517f08c379a00000000000000000000000000000000000000000000000000000000081526004016108079061339c565b60405180910390fd5b6005600083815260200190815260200160002060009054906101000a900473ffffffffffffffffffffffffffffffffffffffff169050919050565b80600b600082815260200190815260200160002060009054906101000a900473ffffffffffffffffffffffffffffffffffffffff1673ffffffffffffffffffffffffffffffffffffffff163373ffffffffffffffffffffffffffffffffffffffff16146108b757600080fd5b82600e600084815260200190815260200160002060006101000a81548173ffffffffffffffffffffffffffffffffffffffff021916908373ffffffffffffffffffffffffffffffffffffffff160217905550818373ffffffffffffffffffffffffffffffffffffffff163373ffffffffffffffffffffffffffffffffffffffff167f8c5be1e5ebec7d5bd14f71427d1e84f3dd0314c0f7b2291e5b200ac8c7c3b92560405160405180910390a4505050565b3373ffffffffffffffffffffffffffffffffffffffff16600b600083815260200190815260200160002060009054906101000a900473ffffffffffffffffffffffffffffffffffffffff1673ffffffffffffffffffffffffffffffffffffffff161480610a3457503373ffffffffffffffffffffffffffffffffffffffff16600e600083815260200190815260200160002060009054906101000a900473ffffffffffffffffffffffffffffffffffffffff1673ffffffffffffffffffffffffffffffffffffffff16145b610a3d57600080fd5b610a488383836117b4565b505050565b80600b600082815260200190815260200160002060009054906101000a900473ffffffffffffffffffffffffffffffffffffffff1673ffffffffffffffffffffffffffffffffffffffff163373ffffffffffffffffffffffffffffffffffffffff1614610ab957600080fd5b610ac282611992565b5050565b610ace611a19565b73ffffffffffffffffffffffffffffffffffffffff16610aec610d7f565b73ffffffffffffffffffffffffffffffffffffffff1614610b42576040517f08c379a0000000000000000000000000000000000000000000000000000000008152600401610b3990613408565b60405180910390fd5b6000610b4c610d7f565b90508073ffffffffffffffffffffffffffffffffffffffff166108fc479081150290604051600060405180830381858888f19350505050158015610b94573d6000803e3d6000fd5b5050565b600b6020528060005260406000206000915054906101000a900473ffffffffffffffffffffffffffffffffffffffff1681565b610be683838360405180602001604052806000815250611227565b505050565b610bf3611a19565b73ffffffffffffffffffffffffffffffffffffffff16610c11610d7f565b73ffffffffffffffffffffffffffffffffffffffff1614610c67576040517f08c379a0000000000000000000000000000000000000000000000000000000008152600401610c5e90613408565b60405180910390fd5b8060088190555050565b6000600b600083815260200190815260200160002060009054906101000a900473ffffffffffffffffffffffffffffffffffffffff169050919050565b6000600c60008373ffffffffffffffffffffffffffffffffffffffff1673ffffffffffffffffffffffffffffffffffffffff168152602001908152602001600020549050919050565b610cff611a19565b73ffffffffffffffffffffffffffffffffffffffff16610d1d610d7f565b73ffffffffffffffffffffffffffffffffffffffff1614610d73576040517f08c379a0000000000000000000000000000000000000000000000000000000008152600401610d6a90613408565b60405180910390fd5b610d7d6000611a21565b565b60008060009054906101000a900473ffffffffffffffffffffffffffffffffffffffff16905090565b606060028054610db7906132f9565b80601f0160208091040260200160405190810160405280929190818152602001828054610de3906132f9565b8015610e305780601f10610e0557610100808354040283529160200191610e30565b820191906000526020600020905b815481529060010190602001808311610e1357829003601f168201915b5050505050905090565b6000600d600086868686604051602001610e579493929190613464565b60405160208183030381529060405280519060200120815260200190815260200160002060009054906101000a900460ff1615610e975760019050610e9c565b600090505b949350505050565b610eb6610eaf611a19565b8383611ae5565b5050565b60085434148015610f0a57506000600c60003373ffffffffffffffffffffffffffffffffffffffff1673ffffffffffffffffffffffffffffffffffffffff16815260200190815260200160002054145b610f1357600080fd5b610f1c33611c51565b610f2530611c51565b565b60098181548110610f3757600080fd5b9060005260206000209060040201600091509050806000018054610f5a906132f9565b80601f0160208091040260200160405190810160405280929190818152602001828054610f86906132f9565b8015610fd35780601f10610fa857610100808354040283529160200191610fd3565b820191906000526020600020905b815481529060010190602001808311610fb657829003601f168201915b505050505090806001018054610fe8906132f9565b80601f0160208091040260200160405190810160405280929190818152602001828054611014906132f9565b80156110615780601f1061103657610100808354040283529160200191611061565b820191906000526020600020905b81548152906001019060200180831161104457829003601f168201915b505050505090806002018054611076906132f9565b80601f01602080910402602001604051908101604052809291908181526020018280546110a2906132f9565b80156110ef5780601f106110c4576101008083540402835291602001916110ef565b820191906000526020600020905b8154815290600101906020018083116110d257829003601f168201915b505050505090806003018054611104906132f9565b80601f0160208091040260200160405190810160405280929190818152602001828054611130906132f9565b801561117d5780601f106111525761010080835404028352916020019161117d565b820191906000526020600020905b81548152906001019060200180831161116057829003601f168201915b5050505050905084565b600a60205280600052604060002060009150905080546111a6906132f9565b80601f01602080910402602001604051908101604052809291908181526020018280546111d2906132f9565b801561121f5780601f106111f45761010080835404028352916020019161121f565b820191906000526020600020905b81548152906001019060200180831161120257829003601f168201915b505050505081565b611238611232611a19565b83611e78565b611277576040517f08c379a000000000000000000000000000000000000000000000000000000000815260040161126e90613514565b60405180910390fd5b61128384848484611f56565b50505050565b606061129482611748565b6112d3576040517f08c379a00000000000000000000000000000000000000000000000000000000081526004016112ca906135a6565b60405180910390fd5b60006112dd611fb2565b905060008151116112fd5760405180602001604052806000815250611328565b8061130784611fc9565b6040516020016113189291906135c6565b6040516020818303038152906040525b915050919050565b6000600a60003373ffffffffffffffffffffffffffffffffffffffff1673ffffffffffffffffffffffffffffffffffffffff168152602001908152602001600020805461137c906132f9565b90501461138857600080fd5b80600a60003373ffffffffffffffffffffffffffffffffffffffff1673ffffffffffffffffffffffffffffffffffffffff16815260200190815260200160002090805190602001906113db9291906128fa565b506113e533611c51565b6113ee30611c51565b50565b6000600660008473ffffffffffffffffffffffffffffffffffffffff1673ffffffffffffffffffffffffffffffffffffffff16815260200190815260200160002060008373ffffffffffffffffffffffffffffffffffffffff1673ffffffffffffffffffffffffffffffffffffffff16815260200190815260200160002060009054906101000a900460ff16905092915050565b60606000600c60008473ffffffffffffffffffffffffffffffffffffffff1673ffffffffffffffffffffffffffffffffffffffff1681526020019081526020016000205467ffffffffffffffff8111156114e2576114e1612d6e565b5b6040519080825280602002602001820160405280156115105781602001602082028036833780820191505090505b5090506000805b6009805490508110156115dc578473ffffffffffffffffffffffffffffffffffffffff16600b600083815260200190815260200160002060009054906101000a900473ffffffffffffffffffffffffffffffffffffffff1673ffffffffffffffffffffffffffffffffffffffff16036115c1578083838151811061159e5761159d6135ea565b5b6020026020010181815250506115be60018361212990919063ffffffff16565b91505b6115d560018261212990919063ffffffff16565b9050611517565b508192505050919050565b6115ef611a19565b73ffffffffffffffffffffffffffffffffffffffff1661160d610d7f565b73ffffffffffffffffffffffffffffffffffffffff1614611663576040517f08c379a000000000000000000000000000000000000000000000000000000000815260040161165a90613408565b60405180910390fd5b600073ffffffffffffffffffffffffffffffffffffffff168173ffffffffffffffffffffffffffffffffffffffff16036116d2576040517f08c379a00000000000000000000000000000000000000000000000000000000081526004016116c99061368b565b60405180910390fd5b6116db81611a21565b50565b60007f01ffc9a7000000000000000000000000000000000000000000000000000000007bffffffffffffffffffffffffffffffffffffffffffffffffffffffff1916827bffffffffffffffffffffffffffffffffffffffffffffffffffffffff1916149050919050565b60008073ffffffffffffffffffffffffffffffffffffffff166003600084815260200190815260200160002060009054906101000a900473ffffffffffffffffffffffffffffffffffffffff1673ffffffffffffffffffffffffffffffffffffffff1614159050919050565b6118076001600c60008573ffffffffffffffffffffffffffffffffffffffff1673ffffffffffffffffffffffffffffffffffffffff1681526020019081526020016000205461212990919063ffffffff16565b600c60008473ffffffffffffffffffffffffffffffffffffffff1673ffffffffffffffffffffffffffffffffffffffff1681526020019081526020016000208190555061189d6001600c60003373ffffffffffffffffffffffffffffffffffffffff1673ffffffffffffffffffffffffffffffffffffffff1681526020019081526020016000205461213f90919063ffffffff16565b600c60003373ffffffffffffffffffffffffffffffffffffffff1673ffffffffffffffffffffffffffffffffffffffff1681526020019081526020016000208190555081600b600083815260200190815260200160002060006101000a81548173ffffffffffffffffffffffffffffffffffffffff021916908373ffffffffffffffffffffffffffffffffffffffff160217905550808273ffffffffffffffffffffffffffffffffffffffff168473ffffffffffffffffffffffffffffffffffffffff167fddf252ad1be2c89b69c2b068fc378daa952ba7f163c4a11628f55a4df523b3ef60405160405180910390a4505050565b60008061199f6064612155565b905060318111156119bc576119b333611c51565b600191506119cb565b6119c683336121d0565b600091505b60006119d633611485565b90507fe047b5f9c3d6c924130d889acbcaec39a0052c0583e765e32643809bc7c4c3a3838383604051611a0b939291906136ab565b60405180910390a150505050565b600033905090565b60008060009054906101000a900473ffffffffffffffffffffffffffffffffffffffff169050816000806101000a81548173ffffffffffffffffffffffffffffffffffffffff021916908373ffffffffffffffffffffffffffffffffffffffff1602179055508173ffffffffffffffffffffffffffffffffffffffff168173ffffffffffffffffffffffffffffffffffffffff167f8be0079c531659141344cd1fd0a4f28419497f9722a3daafe3b4186f6b6457e060405160405180910390a35050565b8173ffffffffffffffffffffffffffffffffffffffff168373ffffffffffffffffffffffffffffffffffffffff1603611b53576040517f08c379a0000000000000000000000000000000000000000000000000000000008152600401611b4a90613735565b60405180910390fd5b80600660008573ffffffffffffffffffffffffffffffffffffffff1673ffffffffffffffffffffffffffffffffffffffff16815260200190815260200160002060008473ffffffffffffffffffffffffffffffffffffffff1673ffffffffffffffffffffffffffffffffffffffff16815260200190815260200160002060006101000a81548160ff0219169083151502179055508173ffffffffffffffffffffffffffffffffffffffff168373ffffffffffffffffffffffffffffffffffffffff167f17307eab39ab6107e8899845ad3d59bd9653f200f220920489ca2b5937696c3183604051611c449190612ab9565b60405180910390a3505050565b6000611c5c826125ed565b905060098190806001815401808255809150506001900390600052602060002090600402016000909190919091506000820151816000019080519060200190611ca69291906128fa565b506020820151816001019080519060200190611cc39291906128fa565b506040820151816002019080519060200190611ce09291906128fa565b506060820151816003019080519060200190611cfd9291906128fa565b5050506000611d1b600160098054905061213f90919063ffffffff16565b905082600b600083815260200190815260200160002060006101000a81548173ffffffffffffffffffffffffffffffffffffffff021916908373ffffffffffffffffffffffffffffffffffffffff160217905550611dc26001600c60008673ffffffffffffffffffffffffffffffffffffffff1673ffffffffffffffffffffffffffffffffffffffff1681526020019081526020016000205461212990919063ffffffff16565b600c60008573ffffffffffffffffffffffffffffffffffffffff1673ffffffffffffffffffffffffffffffffffffffff1681526020019081526020016000208190555060008260000151836020015184604001518560600151604051602001611e2e9493929190613464565b6040516020818303038152906040528051906020012090506001600d600083815260200190815260200160002060006101000a81548160ff02191690831515021790555050505050565b6000611e8382611748565b611ec2576040517f08c379a0000000000000000000000000000000000000000000000000000000008152600401611eb9906137c7565b60405180910390fd5b6000611ecd8361269f565b90508073ffffffffffffffffffffffffffffffffffffffff168473ffffffffffffffffffffffffffffffffffffffff161480611f0f5750611f0e81856113f1565b5b80611f4d57508373ffffffffffffffffffffffffffffffffffffffff16611f35846107c6565b73ffffffffffffffffffffffffffffffffffffffff16145b91505092915050565b611f618484846117b4565b611f6d84848484612750565b611fac576040517f08c379a0000000000000000000000000000000000000000000000000000000008152600401611fa390613859565b60405180910390fd5b50505050565b606060405180602001604052806000815250905090565b606060008203612010576040518060400160405280600181526020017f30000000000000000000000000000000000000000000000000000000000000008152509050612124565b600082905060005b6000821461204257808061202b906138a8565b915050600a8261203b919061391f565b9150612018565b60008167ffffffffffffffff81111561205e5761205d612d6e565b5b6040519080825280601f01601f1916602001820160405280156120905781602001600182028036833780820191505090505b5090505b6000851461211d576001826120a99190613950565b9150600a856120b89190613984565b60306120c491906139b5565b60f81b8183815181106120da576120d96135ea565b5b60200101907effffffffffffffffffffffffffffffffffffffffffffffffffffffffffffff1916908160001a905350600a85612116919061391f565b9450612094565b8093505050505b919050565b6000818361213791906139b5565b905092915050565b6000818361214d9190613950565b905092915050565b60008082423360075460405160200161217093929190613a74565b6040516020818303038152906040528051906020012060001c6121939190613984565b90506121a960018261213f90919063ffffffff16565b90506121c1600160075461212990919063ffffffff16565b60078190555080915050919050565b6000600983815481106121e6576121e56135ea565b5b906000526020600020906004020160405180608001604052908160008201805461220f906132f9565b80601f016020809104026020016040519081016040528092919081815260200182805461223b906132f9565b80156122885780601f1061225d57610100808354040283529160200191612288565b820191906000526020600020905b81548152906001019060200180831161226b57829003601f168201915b505050505081526020016001820180546122a1906132f9565b80601f01602080910402602001604051908101604052809291908181526020018280546122cd906132f9565b801561231a5780601f106122ef5761010080835404028352916020019161231a565b820191906000526020600020905b8154815290600101906020018083116122fd57829003601f168201915b50505050508152602001600282018054612333906132f9565b80601f016020809104026020016040519081016040528092919081815260200182805461235f906132f9565b80156123ac5780601f10612381576101008083540402835291602001916123ac565b820191906000526020600020905b81548152906001019060200180831161238f57829003601f168201915b505050505081526020016003820180546123c5906132f9565b80601f01602080910402602001604051908101604052809291908181526020018280546123f1906132f9565b801561243e5780601f106124135761010080835404028352916020019161243e565b820191906000526020600020905b81548152906001019060200180831161242157829003601f168201915b5050505050815250509050600081600001518260200151836040015184606001516040516020016124729493929190613464565b6040516020818303038152906040528051906020012090506000600d600083815260200190815260200160002060006101000a81548160ff0219169083151502179055506125096001600c60008673ffffffffffffffffffffffffffffffffffffffff1673ffffffffffffffffffffffffffffffffffffffff1681526020019081526020016000205461213f90919063ffffffff16565b600c60008573ffffffffffffffffffffffffffffffffffffffff1673ffffffffffffffffffffffffffffffffffffffff16815260200190815260200160002081905550600b600085815260200190815260200160002060006101000a81549073ffffffffffffffffffffffffffffffffffffffff021916905560098481548110612596576125956135ea565b5b9060005260206000209060040201600080820160006125b59190612980565b6001820160006125c59190612980565b6002820160006125d59190612980565b6003820160006125e59190612980565b505050505050565b6125f56129c0565b600061260a612605610100612155565b611fc9565b9050600061262161261c610100612155565b611fc9565b90506000612638612633610100612155565b611fc9565b9050600061264e6126496065612155565b611fc9565b905061265c84848484610e3a565b61268c5760405180608001604052808581526020018481526020018381526020018281525094505050505061269a565b61269586611c51565b505050505b919050565b6000806003600084815260200190815260200160002060009054906101000a900473ffffffffffffffffffffffffffffffffffffffff169050600073ffffffffffffffffffffffffffffffffffffffff168173ffffffffffffffffffffffffffffffffffffffff1603612747576040517f08c379a000000000000000000000000000000000000000000000000000000000815260040161273e90613b23565b60405180910390fd5b80915050919050565b60006127718473ffffffffffffffffffffffffffffffffffffffff166128d7565b156128ca578373ffffffffffffffffffffffffffffffffffffffff1663150b7a0261279a611a19565b8786866040518563ffffffff1660e01b81526004016127bc9493929190613b98565b6020604051808303816000875af19250505080156127f857506040513d601f19601f820116820180604052508101906127f59190613bf9565b60015b61287a573d8060008114612828576040519150601f19603f3d011682016040523d82523d6000602084013e61282d565b606091505b506000815103612872576040517f08c379a000000000000000000000000000000000000000000000000000000000815260040161286990613859565b60405180910390fd5b805181602001fd5b63150b7a0260e01b7bffffffffffffffffffffffffffffffffffffffffffffffffffffffff1916817bffffffffffffffffffffffffffffffffffffffffffffffffffffffff1916149150506128cf565b600190505b949350505050565b6000808273ffffffffffffffffffffffffffffffffffffffff163b119050919050565b828054612906906132f9565b90600052602060002090601f016020900481019282612928576000855561296f565b82601f1061294157805160ff191683800117855561296f565b8280016001018555821561296f579182015b8281111561296e578251825591602001919060010190612953565b5b50905061297c91906129e8565b5090565b50805461298c906132f9565b6000825580601f1061299e57506129bd565b601f0160209004906000526020600020908101906129bc91906129e8565b5b50565b6040518060800160405280606081526020016060815260200160608152602001606081525090565b5b80821115612a015760008160009055506001016129e9565b5090565b6000604051905090565b600080fd5b600080fd5b60007fffffffff0000000000000000000000000000000000000000000000000000000082169050919050565b612a4e81612a19565b8114612a5957600080fd5b50565b600081359050612a6b81612a45565b92915050565b600060208284031215612a8757612a86612a0f565b5b6000612a9584828501612a5c565b91505092915050565b60008115159050919050565b612ab381612a9e565b82525050565b6000602082019050612ace6000830184612aaa565b92915050565b600081519050919050565b600082825260208201905092915050565b60005b83811015612b0e578082015181840152602081019050612af3565b83811115612b1d576000848401525b50505050565b6000601f19601f8301169050919050565b6000612b3f82612ad4565b612b498185612adf565b9350612b59818560208601612af0565b612b6281612b23565b840191505092915050565b60006020820190508181036000830152612b878184612b34565b905092915050565b6000819050919050565b612ba281612b8f565b8114612bad57600080fd5b50565b600081359050612bbf81612b99565b92915050565b600060208284031215612bdb57612bda612a0f565b5b6000612be984828501612bb0565b91505092915050565b600073ffffffffffffffffffffffffffffffffffffffff82169050919050565b6000612c1d82612bf2565b9050919050565b612c2d81612c12565b82525050565b6000602082019050612c486000830184612c24565b92915050565b612c5781612c12565b8114612c6257600080fd5b50565b600081359050612c7481612c4e565b92915050565b60008060408385031215612c9157612c90612a0f565b5b6000612c9f85828601612c65565b9250506020612cb085828601612bb0565b9150509250929050565b600080600060608486031215612cd357612cd2612a0f565b5b6000612ce186828701612c65565b9350506020612cf286828701612c65565b9250506040612d0386828701612bb0565b9150509250925092565b600060208284031215612d2357612d22612a0f565b5b6000612d3184828501612c65565b91505092915050565b612d4381612b8f565b82525050565b6000602082019050612d5e6000830184612d3a565b92915050565b600080fd5b600080fd5b7f4e487b7100000000000000000000000000000000000000000000000000000000600052604160045260246000fd5b612da682612b23565b810181811067ffffffffffffffff82111715612dc557612dc4612d6e565b5b80604052505050565b6000612dd8612a05565b9050612de48282612d9d565b919050565b600067ffffffffffffffff821115612e0457612e03612d6e565b5b612e0d82612b23565b9050602081019050919050565b82818337600083830152505050565b6000612e3c612e3784612de9565b612dce565b905082815260208101848484011115612e5857612e57612d69565b5b612e63848285612e1a565b509392505050565b600082601f830112612e8057612e7f612d64565b5b8135612e90848260208601612e29565b91505092915050565b60008060008060808587031215612eb357612eb2612a0f565b5b600085013567ffffffffffffffff811115612ed157612ed0612a14565b5b612edd87828801612e6b565b945050602085013567ffffffffffffffff811115612efe57612efd612a14565b5b612f0a87828801612e6b565b935050604085013567ffffffffffffffff811115612f2b57612f2a612a14565b5b612f3787828801612e6b565b925050606085013567ffffffffffffffff811115612f5857612f57612a14565b5b612f6487828801612e6b565b91505092959194509250565b612f7981612a9e565b8114612f8457600080fd5b50565b600081359050612f9681612f70565b92915050565b60008060408385031215612fb357612fb2612a0f565b5b6000612fc185828601612c65565b9250506020612fd285828601612f87565b9150509250929050565b60006080820190508181036000830152612ff68187612b34565b9050818103602083015261300a8186612b34565b9050818103604083015261301e8185612b34565b905081810360608301526130328184612b34565b905095945050505050565b600067ffffffffffffffff82111561305857613057612d6e565b5b61306182612b23565b9050602081019050919050565b600061308161307c8461303d565b612dce565b90508281526020810184848401111561309d5761309c612d69565b5b6130a8848285612e1a565b509392505050565b600082601f8301126130c5576130c4612d64565b5b81356130d584826020860161306e565b91505092915050565b600080600080608085870312156130f8576130f7612a0f565b5b600061310687828801612c65565b945050602061311787828801612c65565b935050604061312887828801612bb0565b925050606085013567ffffffffffffffff81111561314957613148612a14565b5b613155878288016130b0565b91505092959194509250565b60006020828403121561317757613176612a0f565b5b600082013567ffffffffffffffff81111561319557613194612a14565b5b6131a184828501612e6b565b91505092915050565b600080604083850312156131c1576131c0612a0f565b5b60006131cf85828601612c65565b92505060206131e085828601612c65565b9150509250929050565b600081519050919050565b600082825260208201905092915050565b6000819050602082019050919050565b61321f81612b8f565b82525050565b60006132318383613216565b60208301905092915050565b6000602082019050919050565b6000613255826131ea565b61325f81856131f5565b935061326a83613206565b8060005b8381101561329b5781516132828882613225565b975061328d8361323d565b92505060018101905061326e565b5085935050505092915050565b600060208201905081810360008301526132c2818461324a565b905092915050565b7f4e487b7100000000000000000000000000000000000000000000000000000000600052602260045260246000fd5b6000600282049050600182168061331157607f821691505b602082108103613324576133236132ca565b5b50919050565b7f4552433732313a20617070726f76656420717565727920666f72206e6f6e657860008201527f697374656e7420746f6b656e0000000000000000000000000000000000000000602082015250565b6000613386602c83612adf565b91506133918261332a565b604082019050919050565b600060208201905081810360008301526133b581613379565b9050919050565b7f4f776e61626c653a2063616c6c6572206973206e6f7420746865206f776e6572600082015250565b60006133f2602083612adf565b91506133fd826133bc565b602082019050919050565b60006020820190508181036000830152613421816133e5565b9050919050565b600081905092915050565b600061343e82612ad4565b6134488185613428565b9350613458818560208601612af0565b80840191505092915050565b60006134708287613433565b915061347c8286613433565b91506134888285613433565b91506134948284613433565b915081905095945050505050565b7f4552433732313a207472616e736665722063616c6c6572206973206e6f74206f60008201527f776e6572206e6f7220617070726f766564000000000000000000000000000000602082015250565b60006134fe603183612adf565b9150613509826134a2565b604082019050919050565b6000602082019050818103600083015261352d816134f1565b9050919050565b7f4552433732314d657461646174613a2055524920717565727920666f72206e6f60008201527f6e6578697374656e7420746f6b656e0000000000000000000000000000000000602082015250565b6000613590602f83612adf565b915061359b82613534565b604082019050919050565b600060208201905081810360008301526135bf81613583565b9050919050565b60006135d28285613433565b91506135de8284613433565b91508190509392505050565b7f4e487b7100000000000000000000000000000000000000000000000000000000600052603260045260246000fd5b7f4f776e61626c653a206e6577206f776e657220697320746865207a65726f206160008201527f6464726573730000000000000000000000000000000000000000000000000000602082015250565b6000613675602683612adf565b915061368082613619565b604082019050919050565b600060208201905081810360008301526136a481613668565b9050919050565b60006060820190506136c06000830186612aaa565b6136cd6020830185612d3a565b81810360408301526136df818461324a565b9050949350505050565b7f4552433732313a20617070726f766520746f2063616c6c657200000000000000600082015250565b600061371f601983612adf565b915061372a826136e9565b602082019050919050565b6000602082019050818103600083015261374e81613712565b9050919050565b7f4552433732313a206f70657261746f7220717565727920666f72206e6f6e657860008201527f697374656e7420746f6b656e0000000000000000000000000000000000000000602082015250565b60006137b1602c83612adf565b91506137bc82613755565b604082019050919050565b600060208201905081810360008301526137e0816137a4565b9050919050565b7f4552433732313a207472616e7366657220746f206e6f6e20455243373231526560008201527f63656976657220696d706c656d656e7465720000000000000000000000000000602082015250565b6000613843603283612adf565b915061384e826137e7565b604082019050919050565b6000602082019050818103600083015261387281613836565b9050919050565b7f4e487b7100000000000000000000000000000000000000000000000000000000600052601160045260246000fd5b60006138b382612b8f565b91507fffffffffffffffffffffffffffffffffffffffffffffffffffffffffffffffff82036138e5576138e4613879565b5b600182019050919050565b7f4e487b7100000000000000000000000000000000000000000000000000000000600052601260045260246000fd5b600061392a82612b8f565b915061393583612b8f565b925082613945576139446138f0565b5b828204905092915050565b600061395b82612b8f565b915061396683612b8f565b92508282101561397957613978613879565b5b828203905092915050565b600061398f82612b8f565b915061399a83612b8f565b9250826139aa576139a96138f0565b5b828206905092915050565b60006139c082612b8f565b91506139cb83612b8f565b9250827fffffffffffffffffffffffffffffffffffffffffffffffffffffffffffffffff03821115613a00576139ff613879565b5b828201905092915050565b6000819050919050565b613a26613a2182612b8f565b613a0b565b82525050565b60008160601b9050919050565b6000613a4482613a2c565b9050919050565b6000613a5682613a39565b9050919050565b613a6e613a6982612c12565b613a4b565b82525050565b6000613a808286613a15565b602082019150613a908285613a5d565b601482019150613aa08284613a15565b602082019150819050949350505050565b7f4552433732313a206f776e657220717565727920666f72206e6f6e657869737460008201527f656e7420746f6b656e0000000000000000000000000000000000000000000000602082015250565b6000613b0d602983612adf565b9150613b1882613ab1565b604082019050919050565b60006020820190508181036000830152613b3c81613b00565b9050919050565b600081519050919050565b600082825260208201905092915050565b6000613b6a82613b43565b613b748185613b4e565b9350613b84818560208601612af0565b613b8d81612b23565b840191505092915050565b6000608082019050613bad6000830187612c24565b613bba6020830186612c24565b613bc76040830185612d3a565b8181036060830152613bd98184613b5f565b905095945050505050565b600081519050613bf381612a45565b92915050565b600060208284031215613c0f57613c0e612a0f565b5b6000613c1d84828501613be4565b9150509291505056fea26469706673582212207415b5096e3b3abc36cdcc28ebc7b12dc7c73e6afa0ad93dc83eef1563f990c064736f6c634300080d0033",
  "immutableReferences": {},
  "source": "// SPDX-License-Identifier: MIT\npragma solidity ^0.8.0;\n\nimport \"@openzeppelin/contracts/access/Ownable.sol\";\nimport \"@openzeppelin/contracts/token/ERC721/ERC721.sol\";\nimport \"@openzeppelin/contracts/utils/Strings.sol\";\nimport \"@openzeppelin/contracts/utils/math/SafeMath.sol\";\n\ncontract LuckDApp is Ownable, ERC721 {\n  using SafeMath for uint256;\n\n  event LuckChallengeResults(bool results, uint random, uint[] ldna);\n\n  uint nonce = 0;\n  uint ldnaCost = 0.005 ether;\n\n  struct LDNA {\n    string r;\n    string g;\n    string b;\n    string a;\n  }\n\n  LDNA[] public luckDNA;\n\n  mapping (address => string) public playerToName;\n  mapping (uint => address) public ldnaToOwner;\n  mapping (address => uint) ldnaCount;\n  mapping (bytes32 => bool) hashToLDNA;\n  mapping (uint => address) ldnaApprovals;\n\n  modifier onlyOwnerOf(uint _ldna) {\n    require(msg.sender == ldnaToOwner[_ldna]);\n    _;\n  }\n\n  constructor() ERC721(\"LuckDNA\", \"LDNA\") {\n\n  }\n\n  function _createLDNA(address _owner) internal {\n    LDNA memory ldna = _generateRandomLDNA(_owner);\n    luckDNA.push(ldna);\n    uint id = luckDNA.length.sub(1);\n    ldnaToOwner[id] = _owner;\n    ldnaCount[_owner] = ldnaCount[_owner].add(1);\n    bytes32 hash = keccak256(abi.encodePacked(ldna.r, ldna.g, ldna.b, ldna.a));\n    hashToLDNA[hash] = true;\n  }\n\n  function _burnLDNA(uint _ldna, address _owner) internal {\n    LDNA memory ldna = luckDNA[_ldna];\n    bytes32 hash = keccak256(abi.encodePacked(ldna.r, ldna.g, ldna.b, ldna.a));\n    hashToLDNA[hash] = false;\n    ldnaCount[_owner] = ldnaCount[_owner].sub(1);\n    delete ldnaToOwner[_ldna];\n    delete luckDNA[_ldna];\n  }\n\n  function _generateRandomLDNA(address _owner) internal returns (LDNA memory _ldna) {\n    string memory r = Strings.toString(_random(256));\n    string memory g = Strings.toString(_random(256));\n    string memory b = Strings.toString(_random(256));\n    string memory a = Strings.toString(_random(101));\n    if (!ldnaExists(r, g, b, a)) {\n      return LDNA(r, g, b, a);\n    } else {\n      _createLDNA(_owner);\n    }\n  }\n\n  function _random(uint _num) internal returns (uint) {\n    uint random = uint(keccak256(abi.encodePacked(block.timestamp, msg.sender, nonce))) % _num;\n    random = random.sub(1);\n    nonce = nonce.add(1);\n    return random;\n  }\n\n  function _runLuckChallenge(uint _ldna) internal {\n    bool results;\n    uint random = _random(100);\n    if (random > 49) {\n      _createLDNA(msg.sender);\n      results = true;\n    } else {\n      _burnLDNA(_ldna, msg.sender);\n      results = false;\n    }\n    uint[] memory ldna = playerLDNA(msg.sender);\n    emit LuckChallengeResults(results, random, ldna);\n  }\n\n  function _transfer(address _from, address _to, uint256 _tokenId) internal override {\n    ldnaCount[_to] = ldnaCount[_to].add(1);\n    ldnaCount[msg.sender] = ldnaCount[msg.sender].sub(1);\n    ldnaToOwner[_tokenId] = _to;\n    emit Transfer(_from, _to, _tokenId);\n  }\n\n  function newPlayer(string memory _name) public {\n    require(bytes(playerToName[msg.sender]).length == 0);\n    playerToName[msg.sender] = _name;\n    _createLDNA(msg.sender);\n    _createLDNA(address(this));\n  }\n\n  function luckChallenge(uint _ldna) public onlyOwnerOf(_ldna) {\n    _runLuckChallenge(_ldna);\n  }\n\n  function ldnaExists(string memory _r, string memory _g, string memory _b, string memory _a) public view returns (bool) {\n    if (hashToLDNA[keccak256(abi.encodePacked(_r, _g, _b, _a))]) {\n      return true;\n    } else {\n      return false;\n    }\n  }\n\n  function playerLDNA(address _owner) public view returns(uint[] memory) {\n    uint[] memory ldna = new uint[](ldnaCount[_owner]);\n    uint counter = 0;\n    for (uint i = 0; i < luckDNA.length; i = i.add(1)) {\n      if (ldnaToOwner[i] == _owner) {\n        ldna[counter] = i;\n        counter = counter.add(1);\n      }\n    }\n    return ldna;\n  }\n\n  function withdraw() external onlyOwner {\n    address payable _owner = payable(owner());\n    _owner.transfer(address(this).balance);\n  }\n\n  function setCost(uint _cost) external onlyOwner {\n    ldnaCost = _cost;\n  }\n\n  function getLDNA() external payable {\n    require(msg.value == ldnaCost && ldnaCount[msg.sender] == 0);\n    _createLDNA(msg.sender);\n    _createLDNA(address(this));\n  }\n\n  function balanceOf(address _owner) public view override returns (uint256) {\n    return ldnaCount[_owner];\n  }\n\n  function ownerOf(uint256 _tokenId) public view override returns (address) {\n    return ldnaToOwner[_tokenId];\n  }\n\n  function transferFrom(address _from, address _to, uint256 _tokenId) public override {\n    require (ldnaToOwner[_tokenId] == msg.sender || ldnaApprovals[_tokenId] == msg.sender);\n    _transfer(_from, _to, _tokenId);\n  }\n\n  function approve(address _approved, uint256 _tokenId) public override onlyOwnerOf(_tokenId) {\n    ldnaApprovals[_tokenId] = _approved;\n    emit Approval(msg.sender, _approved, _tokenId);\n  }\n}\n",
  "sourcePath": "/Users/laetadevelopment/Documents/LuckDApp/contracts/LuckDApp.sol",
  "compiler": {
    "name": "solc",
    "version": "0.8.13+commit.abaa5c0e.Emscripten.clang"
  },
  "schemaVersion": "3.4.6",
  "updatedAt": "2022-05-26T18:07:02.066Z",
  "networkType": "ethereum",
  "devdoc": {
    "kind": "dev",
    "methods": {
      "getApproved(uint256)": {
        "details": "See {IERC721-getApproved}."
      },
      "isApprovedForAll(address,address)": {
        "details": "See {IERC721-isApprovedForAll}."
      },
      "name()": {
        "details": "See {IERC721Metadata-name}."
      },
      "owner()": {
        "details": "Returns the address of the current owner."
      },
      "renounceOwnership()": {
        "details": "Leaves the contract without owner. It will not be possible to call `onlyOwner` functions anymore. Can only be called by the current owner. NOTE: Renouncing ownership will leave the contract without an owner, thereby removing any functionality that is only available to the owner."
      },
      "safeTransferFrom(address,address,uint256)": {
        "details": "See {IERC721-safeTransferFrom}."
      },
      "safeTransferFrom(address,address,uint256,bytes)": {
        "details": "See {IERC721-safeTransferFrom}."
      },
      "setApprovalForAll(address,bool)": {
        "details": "See {IERC721-setApprovalForAll}."
      },
      "supportsInterface(bytes4)": {
        "details": "See {IERC165-supportsInterface}."
      },
      "symbol()": {
        "details": "See {IERC721Metadata-symbol}."
      },
      "tokenURI(uint256)": {
        "details": "See {IERC721Metadata-tokenURI}."
      },
      "transferOwnership(address)": {
        "details": "Transfers ownership of the contract to a new account (`newOwner`). Can only be called by the current owner."
      }
    },
    "version": 1
  },
  "userdoc": {
    "kind": "user",
    "methods": {},
    "version": 1
  }
}