{
  "contractName": "LuckDApp",
  "abi": [
    {
      "anonymous": false,
      "inputs": [
        {
          "indexed": true,
          "internalType": "address",
          "name": "previousOwner",
          "type": "address"
        },
        {
          "indexed": true,
          "internalType": "address",
          "name": "newOwner",
          "type": "address"
        }
      ],
      "name": "OwnershipTransferred",
      "type": "event"
    },
    {
      "inputs": [
        {
          "internalType": "uint256",
          "name": "",
          "type": "uint256"
        }
      ],
      "name": "ldnaToOwner",
      "outputs": [
        {
          "internalType": "address",
          "name": "",
          "type": "address"
        }
      ],
      "stateMutability": "view",
      "type": "function",
      "constant": true
    },
    {
      "inputs": [
        {
          "internalType": "uint256",
          "name": "",
          "type": "uint256"
        }
      ],
      "name": "luckDNA",
      "outputs": [
        {
          "internalType": "string",
          "name": "r",
          "type": "string"
        },
        {
          "internalType": "string",
          "name": "g",
          "type": "string"
        },
        {
          "internalType": "string",
          "name": "b",
          "type": "string"
        },
        {
          "internalType": "string",
          "name": "a",
          "type": "string"
        }
      ],
      "stateMutability": "view",
      "type": "function",
      "constant": true
    },
    {
      "inputs": [],
      "name": "owner",
      "outputs": [
        {
          "internalType": "address",
          "name": "",
          "type": "address"
        }
      ],
      "stateMutability": "view",
      "type": "function",
      "constant": true
    },
    {
      "inputs": [
        {
          "internalType": "address",
          "name": "",
          "type": "address"
        }
      ],
      "name": "playerToName",
      "outputs": [
        {
          "internalType": "string",
          "name": "",
          "type": "string"
        }
      ],
      "stateMutability": "view",
      "type": "function",
      "constant": true
    },
    {
      "inputs": [],
      "name": "renounceOwnership",
      "outputs": [],
      "stateMutability": "nonpayable",
      "type": "function"
    },
    {
      "inputs": [
        {
          "internalType": "address",
          "name": "newOwner",
          "type": "address"
        }
      ],
      "name": "transferOwnership",
      "outputs": [],
      "stateMutability": "nonpayable",
      "type": "function"
    },
    {
      "inputs": [
        {
          "internalType": "string",
          "name": "r",
          "type": "string"
        },
        {
          "internalType": "string",
          "name": "g",
          "type": "string"
        },
        {
          "internalType": "string",
          "name": "b",
          "type": "string"
        },
        {
          "internalType": "string",
          "name": "a",
          "type": "string"
        }
      ],
      "name": "ldnaExists",
      "outputs": [
        {
          "internalType": "bool",
          "name": "",
          "type": "bool"
        }
      ],
      "stateMutability": "view",
      "type": "function",
      "constant": true
    },
    {
      "inputs": [
        {
          "internalType": "string",
          "name": "name",
          "type": "string"
        }
      ],
      "name": "newPlayer",
      "outputs": [],
      "stateMutability": "nonpayable",
      "type": "function"
    }
  ],
  "bytecode": "0x6080604052600060015534801561001557600080fd5b5061003261002761003760201b60201c565b61003f60201b60201c565b610103565b600033905090565b60008060009054906101000a900473ffffffffffffffffffffffffffffffffffffffff169050816000806101000a81548173ffffffffffffffffffffffffffffffffffffffff021916908373ffffffffffffffffffffffffffffffffffffffff1602179055508173ffffffffffffffffffffffffffffffffffffffff168173ffffffffffffffffffffffffffffffffffffffff167f8be0079c531659141344cd1fd0a4f28419497f9722a3daafe3b4186f6b6457e060405160405180910390a35050565b611861806101126000396000f3fe608060405234801561001057600080fd5b50600436106100885760003560e01c8063aae027e21161005b578063aae027e214610115578063ae2585ea14610148578063ceb95d7a14610178578063f2fde38b1461019457610088565b80634061b3981461008d578063715018a6146100bd5780638da5cb5b146100c75780639e1e1596146100e5575b600080fd5b6100a760048036038101906100a29190610e91565b6101b0565b6040516100b49190610eff565b60405180910390f35b6100c56101e3565b005b6100cf61026b565b6040516100dc9190610eff565b60405180910390f35b6100ff60048036038101906100fa9190611060565b610294565b60405161010c9190611152565b60405180910390f35b61012f600480360381019061012a9190610e91565b6102f3565b60405161013f94939291906111f5565b60405180910390f35b610162600480360381019061015d9190611282565b610553565b60405161016f91906112af565b60405180910390f35b610192600480360381019061018d91906112d1565b6105f3565b005b6101ae60048036038101906101a99190611282565b6106b4565b005b60086020528060005260406000206000915054906101000a900473ffffffffffffffffffffffffffffffffffffffff1681565b6101eb6107ab565b73ffffffffffffffffffffffffffffffffffffffff1661020961026b565b73ffffffffffffffffffffffffffffffffffffffff161461025f576040517f08c379a000000000000000000000000000000000000000000000000000000000815260040161025690611366565b60405180910390fd5b61026960006107b3565b565b60008060009054906101000a900473ffffffffffffffffffffffffffffffffffffffff16905090565b60008060096000878787876040516020016102b294939291906113c2565b6040516020818303038152906040528051906020012081526020019081526020016000205411156102e657600190506102eb565b600090505b949350505050565b6006818154811061030357600080fd5b90600052602060002090600402016000915090508060000180546103269061142f565b80601f01602080910402602001604051908101604052809291908181526020018280546103529061142f565b801561039f5780601f106103745761010080835404028352916020019161039f565b820191906000526020600020905b81548152906001019060200180831161038257829003601f168201915b5050505050908060010180546103b49061142f565b80601f01602080910402602001604051908101604052809291908181526020018280546103e09061142f565b801561042d5780601f106104025761010080835404028352916020019161042d565b820191906000526020600020905b81548152906001019060200180831161041057829003601f168201915b5050505050908060020180546104429061142f565b80601f016020809104026020016040519081016040528092919081815260200182805461046e9061142f565b80156104bb5780601f10610490576101008083540402835291602001916104bb565b820191906000526020600020905b81548152906001019060200180831161049e57829003601f168201915b5050505050908060030180546104d09061142f565b80601f01602080910402602001604051908101604052809291908181526020018280546104fc9061142f565b80156105495780601f1061051e57610100808354040283529160200191610549565b820191906000526020600020905b81548152906001019060200180831161052c57829003601f168201915b5050505050905084565b600760205280600052604060002060009150905080546105729061142f565b80601f016020809104026020016040519081016040528092919081815260200182805461059e9061142f565b80156105eb5780601f106105c0576101008083540402835291602001916105eb565b820191906000526020600020905b8154815290600101906020018083116105ce57829003601f168201915b505050505081565b6000600760003373ffffffffffffffffffffffffffffffffffffffff1673ffffffffffffffffffffffffffffffffffffffff168152602001908152602001600020805461063f9061142f565b90501461064b57600080fd5b80600760003373ffffffffffffffffffffffffffffffffffffffff1673ffffffffffffffffffffffffffffffffffffffff168152602001908152602001600020908051906020019061069e929190610cef565b506106a833610877565b6106b130610877565b50565b6106bc6107ab565b73ffffffffffffffffffffffffffffffffffffffff166106da61026b565b73ffffffffffffffffffffffffffffffffffffffff1614610730576040517f08c379a000000000000000000000000000000000000000000000000000000000815260040161072790611366565b60405180910390fd5b600073ffffffffffffffffffffffffffffffffffffffff168173ffffffffffffffffffffffffffffffffffffffff160361079f576040517f08c379a0000000000000000000000000000000000000000000000000000000008152600401610796906114d2565b60405180910390fd5b6107a8816107b3565b50565b600033905090565b60008060009054906101000a900473ffffffffffffffffffffffffffffffffffffffff169050816000806101000a81548173ffffffffffffffffffffffffffffffffffffffff021916908373ffffffffffffffffffffffffffffffffffffffff1602179055508173ffffffffffffffffffffffffffffffffffffffff168173ffffffffffffffffffffffffffffffffffffffff167f8be0079c531659141344cd1fd0a4f28419497f9722a3daafe3b4186f6b6457e060405160405180910390a35050565b61088081610a6d565b6002600082015181600001908051906020019061089e929190610cef565b5060208201518160010190805190602001906108bb929190610cef565b5060408201518160020190805190602001906108d8929190610cef565b5060608201518160030190805190602001906108f5929190610cef565b50905050600660029080600181540180825580915050600190039060005260206000209060040201600090919091909150600082018160000190805461093a9061142f565b610945929190610d75565b50600182018160010190805461095a9061142f565b610965929190610d75565b50600282018160020190805461097a9061142f565b610985929190610d75565b50600382018160030190805461099a9061142f565b6109a5929190610d75565b505050600060016006805490506109bc9190611521565b9050816008600083815260200190815260200160002060006101000a81548173ffffffffffffffffffffffffffffffffffffffff021916908373ffffffffffffffffffffffffffffffffffffffff160217905550600060026000016002600101600280016002600301604051602001610a3894939291906115e9565b604051602081830303815290604052805190602001209050816009600083815260200190815260200160002081905550505050565b610a75610e02565b6000610a8a610a85610100610b1f565b610b8f565b90506000610aa1610a9c610100610b1f565b610b8f565b90506000610ab8610ab3610100610b1f565b610b8f565b90506000610ace610ac96065610b1f565b610b8f565b9050610adc84848484610294565b610b0c57604051806080016040528085815260200184815260200183815260200182815250945050505050610b1a565b610b1586610877565b505050505b919050565b600080824233600154604051602001610b3a93929190611690565b6040516020818303038152906040528051906020012060001c610b5d91906116fc565b9050600181610b6c9190611521565b905060016000815480929190610b819061172d565b919050555080915050919050565b606060008203610bd6576040518060400160405280600181526020017f30000000000000000000000000000000000000000000000000000000000000008152509050610cea565b600082905060005b60008214610c08578080610bf19061172d565b915050600a82610c019190611775565b9150610bde565b60008167ffffffffffffffff811115610c2457610c23610f35565b5b6040519080825280601f01601f191660200182016040528015610c565781602001600182028036833780820191505090505b5090505b60008514610ce357600182610c6f9190611521565b9150600a85610c7e91906116fc565b6030610c8a91906117a6565b60f81b818381518110610ca057610c9f6117fc565b5b60200101907effffffffffffffffffffffffffffffffffffffffffffffffffffffffffffff1916908160001a905350600a85610cdc9190611775565b9450610c5a565b8093505050505b919050565b828054610cfb9061142f565b90600052602060002090601f016020900481019282610d1d5760008555610d64565b82601f10610d3657805160ff1916838001178555610d64565b82800160010185558215610d64579182015b82811115610d63578251825591602001919060010190610d48565b5b509050610d719190610e2a565b5090565b828054610d819061142f565b90600052602060002090601f016020900481019282610da35760008555610df1565b82601f10610db45780548555610df1565b82800160010185558215610df157600052602060002091601f016020900482015b82811115610df0578254825591600101919060010190610dd5565b5b509050610dfe9190610e2a565b5090565b6040518060800160405280606081526020016060815260200160608152602001606081525090565b5b80821115610e43576000816000905550600101610e2b565b5090565b6000604051905090565b600080fd5b600080fd5b6000819050919050565b610e6e81610e5b565b8114610e7957600080fd5b50565b600081359050610e8b81610e65565b92915050565b600060208284031215610ea757610ea6610e51565b5b6000610eb584828501610e7c565b91505092915050565b600073ffffffffffffffffffffffffffffffffffffffff82169050919050565b6000610ee982610ebe565b9050919050565b610ef981610ede565b82525050565b6000602082019050610f146000830184610ef0565b92915050565b600080fd5b600080fd5b6000601f19601f8301169050919050565b7f4e487b7100000000000000000000000000000000000000000000000000000000600052604160045260246000fd5b610f6d82610f24565b810181811067ffffffffffffffff82111715610f8c57610f8b610f35565b5b80604052505050565b6000610f9f610e47565b9050610fab8282610f64565b919050565b600067ffffffffffffffff821115610fcb57610fca610f35565b5b610fd482610f24565b9050602081019050919050565b82818337600083830152505050565b6000611003610ffe84610fb0565b610f95565b90508281526020810184848401111561101f5761101e610f1f565b5b61102a848285610fe1565b509392505050565b600082601f83011261104757611046610f1a565b5b8135611057848260208601610ff0565b91505092915050565b6000806000806080858703121561107a57611079610e51565b5b600085013567ffffffffffffffff81111561109857611097610e56565b5b6110a487828801611032565b945050602085013567ffffffffffffffff8111156110c5576110c4610e56565b5b6110d187828801611032565b935050604085013567ffffffffffffffff8111156110f2576110f1610e56565b5b6110fe87828801611032565b925050606085013567ffffffffffffffff81111561111f5761111e610e56565b5b61112b87828801611032565b91505092959194509250565b60008115159050919050565b61114c81611137565b82525050565b60006020820190506111676000830184611143565b92915050565b600081519050919050565b600082825260208201905092915050565b60005b838110156111a757808201518184015260208101905061118c565b838111156111b6576000848401525b50505050565b60006111c78261116d565b6111d18185611178565b93506111e1818560208601611189565b6111ea81610f24565b840191505092915050565b6000608082019050818103600083015261120f81876111bc565b9050818103602083015261122381866111bc565b9050818103604083015261123781856111bc565b9050818103606083015261124b81846111bc565b905095945050505050565b61125f81610ede565b811461126a57600080fd5b50565b60008135905061127c81611256565b92915050565b60006020828403121561129857611297610e51565b5b60006112a68482850161126d565b91505092915050565b600060208201905081810360008301526112c981846111bc565b905092915050565b6000602082840312156112e7576112e6610e51565b5b600082013567ffffffffffffffff81111561130557611304610e56565b5b61131184828501611032565b91505092915050565b7f4f776e61626c653a2063616c6c6572206973206e6f7420746865206f776e6572600082015250565b6000611350602083611178565b915061135b8261131a565b602082019050919050565b6000602082019050818103600083015261137f81611343565b9050919050565b600081905092915050565b600061139c8261116d565b6113a68185611386565b93506113b6818560208601611189565b80840191505092915050565b60006113ce8287611391565b91506113da8286611391565b91506113e68285611391565b91506113f28284611391565b915081905095945050505050565b7f4e487b7100000000000000000000000000000000000000000000000000000000600052602260045260246000fd5b6000600282049050600182168061144757607f821691505b60208210810361145a57611459611400565b5b50919050565b7f4f776e61626c653a206e6577206f776e657220697320746865207a65726f206160008201527f6464726573730000000000000000000000000000000000000000000000000000602082015250565b60006114bc602683611178565b91506114c782611460565b604082019050919050565b600060208201905081810360008301526114eb816114af565b9050919050565b7f4e487b7100000000000000000000000000000000000000000000000000000000600052601160045260246000fd5b600061152c82610e5b565b915061153783610e5b565b92508282101561154a576115496114f2565b5b828203905092915050565b60008190508160005260206000209050919050565b600081546115778161142f565b6115818186611386565b9450600182166000811461159c57600181146115ad576115e0565b60ff198316865281860193506115e0565b6115b685611555565b60005b838110156115d8578154818901526001820191506020810190506115b9565b838801955050505b50505092915050565b60006115f5828761156a565b9150611601828661156a565b915061160d828561156a565b9150611619828461156a565b915081905095945050505050565b6000819050919050565b61164261163d82610e5b565b611627565b82525050565b60008160601b9050919050565b600061166082611648565b9050919050565b600061167282611655565b9050919050565b61168a61168582610ede565b611667565b82525050565b600061169c8286611631565b6020820191506116ac8285611679565b6014820191506116bc8284611631565b602082019150819050949350505050565b7f4e487b7100000000000000000000000000000000000000000000000000000000600052601260045260246000fd5b600061170782610e5b565b915061171283610e5b565b925082611722576117216116cd565b5b828206905092915050565b600061173882610e5b565b91507fffffffffffffffffffffffffffffffffffffffffffffffffffffffffffffffff820361176a576117696114f2565b5b600182019050919050565b600061178082610e5b565b915061178b83610e5b565b92508261179b5761179a6116cd565b5b828204905092915050565b60006117b182610e5b565b91506117bc83610e5b565b9250827fffffffffffffffffffffffffffffffffffffffffffffffffffffffffffffffff038211156117f1576117f06114f2565b5b828201905092915050565b7f4e487b7100000000000000000000000000000000000000000000000000000000600052603260045260246000fdfea26469706673582212207ec97af76efa18555121175f4b8d850f309fa8798fe21456bd502f89a748656e64736f6c634300080d0033",
  "immutableReferences": {},
  "source": "// SPDX-License-Identifier: MIT\npragma solidity ^0.8.0;\n\nimport \"@openzeppelin/contracts/access/Ownable.sol\";\nimport \"@openzeppelin/contracts/utils/Strings.sol\";\n\ncontract LuckDApp is Ownable {\n  uint nonce = 0;\n\n  struct LDNA {\n    string r;\n    string g;\n    string b;\n    string a;\n  }\n\n  LDNA ldna;\n  LDNA[] public luckDNA;\n\n  mapping (address => string) public playerToName;\n  mapping (uint => address) public ldnaToOwner;\n  mapping (bytes32 => uint) hashToLDNA;\n\n  function _createLdna(address owner) internal {\n    ldna = _generateRandomLdna(owner);\n    luckDNA.push(ldna);\n    uint id = luckDNA.length - 1;\n    ldnaToOwner[id] = owner;\n    bytes32 hash = keccak256(abi.encodePacked(ldna.r, ldna.g, ldna.b, ldna.a));\n    hashToLDNA[hash] = id;\n  }\n\n  function _generateRandomLdna(address owner) internal returns (LDNA memory l) {\n    string memory r = Strings.toString(_random(256));\n    string memory g = Strings.toString(_random(256));\n    string memory b = Strings.toString(_random(256));\n    string memory a = Strings.toString(_random(101));\n    if (!ldnaExists(r, g, b, a)) {\n      return LDNA(r, g, b, a);\n    } else {\n      _createLdna(owner);\n    }\n  }\n\n  function _random(uint num) internal returns (uint) {\n    uint random = uint(keccak256(abi.encodePacked(block.timestamp, msg.sender, nonce))) % num;\n    random = random - 1;\n    nonce++;\n    return random;\n  }\n\n  function ldnaExists(string memory r, string memory g, string memory b, string memory a) public view returns (bool) {\n    if (hashToLDNA[keccak256(abi.encodePacked(r, g, b, a))] > 0) {\n      return true;\n    } else {\n      return false;\n    }\n  }\n\n  function newPlayer(string memory name) public {\n    require(bytes(playerToName[msg.sender]).length == 0);\n    playerToName[msg.sender] = name;\n    _createLdna(msg.sender);\n    _createLdna(address(this));\n  }\n}\n",
  "sourcePath": "/Users/laetadevelopment/Documents/LuckDApp/contracts/LuckDApp.sol",
  "compiler": {
    "name": "solc",
    "version": "0.8.13+commit.abaa5c0e.Emscripten.clang"
  },
  "schemaVersion": "3.4.6",
  "updatedAt": "2022-05-18T01:28:52.198Z",
  "networkType": "ethereum",
  "devdoc": {
    "kind": "dev",
    "methods": {
      "owner()": {
        "details": "Returns the address of the current owner."
      },
      "renounceOwnership()": {
        "details": "Leaves the contract without owner. It will not be possible to call `onlyOwner` functions anymore. Can only be called by the current owner. NOTE: Renouncing ownership will leave the contract without an owner, thereby removing any functionality that is only available to the owner."
      },
      "transferOwnership(address)": {
        "details": "Transfers ownership of the contract to a new account (`newOwner`). Can only be called by the current owner."
      }
    },
    "version": 1
  },
  "userdoc": {
    "kind": "user",
    "methods": {},
    "version": 1
  }
}