{
  "contractName": "LuckDApp",
  "abi": [
    {
      "anonymous": false,
      "inputs": [
        {
          "indexed": true,
          "internalType": "address",
          "name": "previousOwner",
          "type": "address"
        },
        {
          "indexed": true,
          "internalType": "address",
          "name": "newOwner",
          "type": "address"
        }
      ],
      "name": "OwnershipTransferred",
      "type": "event"
    },
    {
      "inputs": [
        {
          "internalType": "uint256",
          "name": "",
          "type": "uint256"
        }
      ],
      "name": "ldnaToOwner",
      "outputs": [
        {
          "internalType": "address",
          "name": "",
          "type": "address"
        }
      ],
      "stateMutability": "view",
      "type": "function",
      "constant": true
    },
    {
      "inputs": [
        {
          "internalType": "uint256",
          "name": "",
          "type": "uint256"
        }
      ],
      "name": "luckDNA",
      "outputs": [
        {
          "internalType": "string",
          "name": "r",
          "type": "string"
        },
        {
          "internalType": "string",
          "name": "g",
          "type": "string"
        },
        {
          "internalType": "string",
          "name": "b",
          "type": "string"
        },
        {
          "internalType": "string",
          "name": "a",
          "type": "string"
        }
      ],
      "stateMutability": "view",
      "type": "function",
      "constant": true
    },
    {
      "inputs": [],
      "name": "owner",
      "outputs": [
        {
          "internalType": "address",
          "name": "",
          "type": "address"
        }
      ],
      "stateMutability": "view",
      "type": "function",
      "constant": true
    },
    {
      "inputs": [],
      "name": "renounceOwnership",
      "outputs": [],
      "stateMutability": "nonpayable",
      "type": "function"
    },
    {
      "inputs": [
        {
          "internalType": "address",
          "name": "newOwner",
          "type": "address"
        }
      ],
      "name": "transferOwnership",
      "outputs": [],
      "stateMutability": "nonpayable",
      "type": "function"
    },
    {
      "inputs": [
        {
          "internalType": "string",
          "name": "r",
          "type": "string"
        },
        {
          "internalType": "string",
          "name": "g",
          "type": "string"
        },
        {
          "internalType": "string",
          "name": "b",
          "type": "string"
        },
        {
          "internalType": "string",
          "name": "a",
          "type": "string"
        }
      ],
      "name": "checkLdna",
      "outputs": [
        {
          "internalType": "bool",
          "name": "",
          "type": "bool"
        }
      ],
      "stateMutability": "view",
      "type": "function",
      "constant": true
    },
    {
      "inputs": [],
      "name": "newPlayer",
      "outputs": [],
      "stateMutability": "nonpayable",
      "type": "function"
    }
  ],
  "bytecode": "0x6080604052600060015534801561001557600080fd5b5061003261002761003760201b60201c565b61003f60201b60201c565b610103565b600033905090565b60008060009054906101000a900473ffffffffffffffffffffffffffffffffffffffff169050816000806101000a81548173ffffffffffffffffffffffffffffffffffffffff021916908373ffffffffffffffffffffffffffffffffffffffff1602179055508173ffffffffffffffffffffffffffffffffffffffff168173ffffffffffffffffffffffffffffffffffffffff167f8be0079c531659141344cd1fd0a4f28419497f9722a3daafe3b4186f6b6457e060405160405180910390a35050565b61165c806101126000396000f3fe608060405234801561001057600080fd5b506004361061007d5760003560e01c80638da5cb5b1161005b5780638da5cb5b146100c65780639f5c2150146100e4578063aae027e214610114578063f2fde38b146101475761007d565b80634061b39814610082578063715018a6146100b257806375479c34146100bc575b600080fd5b61009c60048036038101906100979190610cf7565b610163565b6040516100a99190610d65565b60405180910390f35b6100ba610196565b005b6100c461021e565b005b6100ce610232565b6040516100db9190610d65565b60405180910390f35b6100fe60048036038101906100f99190610ec6565b61025b565b60405161010b9190610fb8565b60405180910390f35b61012e60048036038101906101299190610cf7565b6102ba565b60405161013e949392919061105b565b60405180910390f35b610161600480360381019061015c91906110e8565b61051a565b005b60076020528060005260406000206000915054906101000a900473ffffffffffffffffffffffffffffffffffffffff1681565b61019e610611565b73ffffffffffffffffffffffffffffffffffffffff166101bc610232565b73ffffffffffffffffffffffffffffffffffffffff1614610212576040517f08c379a000000000000000000000000000000000000000000000000000000000815260040161020990611161565b60405180910390fd5b61021c6000610619565b565b610227336106dd565b610230306106dd565b565b60008060009054906101000a900473ffffffffffffffffffffffffffffffffffffffff16905090565b600080600860008787878760405160200161027994939291906111bd565b6040516020818303038152906040528051906020012081526020019081526020016000205411156102ad57600190506102b2565b600090505b949350505050565b600681815481106102ca57600080fd5b90600052602060002090600402016000915090508060000180546102ed9061122a565b80601f01602080910402602001604051908101604052809291908181526020018280546103199061122a565b80156103665780601f1061033b57610100808354040283529160200191610366565b820191906000526020600020905b81548152906001019060200180831161034957829003601f168201915b50505050509080600101805461037b9061122a565b80601f01602080910402602001604051908101604052809291908181526020018280546103a79061122a565b80156103f45780601f106103c9576101008083540402835291602001916103f4565b820191906000526020600020905b8154815290600101906020018083116103d757829003601f168201915b5050505050908060020180546104099061122a565b80601f01602080910402602001604051908101604052809291908181526020018280546104359061122a565b80156104825780601f1061045757610100808354040283529160200191610482565b820191906000526020600020905b81548152906001019060200180831161046557829003601f168201915b5050505050908060030180546104979061122a565b80601f01602080910402602001604051908101604052809291908181526020018280546104c39061122a565b80156105105780601f106104e557610100808354040283529160200191610510565b820191906000526020600020905b8154815290600101906020018083116104f357829003601f168201915b5050505050905084565b610522610611565b73ffffffffffffffffffffffffffffffffffffffff16610540610232565b73ffffffffffffffffffffffffffffffffffffffff1614610596576040517f08c379a000000000000000000000000000000000000000000000000000000000815260040161058d90611161565b60405180910390fd5b600073ffffffffffffffffffffffffffffffffffffffff168173ffffffffffffffffffffffffffffffffffffffff1603610605576040517f08c379a00000000000000000000000000000000000000000000000000000000081526004016105fc906112cd565b60405180910390fd5b61060e81610619565b50565b600033905090565b60008060009054906101000a900473ffffffffffffffffffffffffffffffffffffffff169050816000806101000a81548173ffffffffffffffffffffffffffffffffffffffff021916908373ffffffffffffffffffffffffffffffffffffffff1602179055508173ffffffffffffffffffffffffffffffffffffffff168173ffffffffffffffffffffffffffffffffffffffff167f8be0079c531659141344cd1fd0a4f28419497f9722a3daafe3b4186f6b6457e060405160405180910390a35050565b6106e6816108d3565b60026000820151816000019080519060200190610704929190610b55565b506020820151816001019080519060200190610721929190610b55565b50604082015181600201908051906020019061073e929190610b55565b50606082015181600301908051906020019061075b929190610b55565b5090505060066002908060018154018082558091505060019003906000526020600020906004020160009091909190915060008201816000019080546107a09061122a565b6107ab929190610bdb565b5060018201816001019080546107c09061122a565b6107cb929190610bdb565b5060028201816002019080546107e09061122a565b6107eb929190610bdb565b5060038201816003019080546108009061122a565b61080b929190610bdb565b50505060006001600680549050610822919061131c565b9050816007600083815260200190815260200160002060006101000a81548173ffffffffffffffffffffffffffffffffffffffff021916908373ffffffffffffffffffffffffffffffffffffffff16021790555060006002600001600260010160028001600260030160405160200161089e94939291906113e4565b604051602081830303815290604052805190602001209050816008600083815260200190815260200160002081905550505050565b6108db610c68565b60006108f06108eb610100610985565b6109f5565b90506000610907610902610100610985565b6109f5565b9050600061091e610919610100610985565b6109f5565b9050600061093461092f6065610985565b6109f5565b90506109428484848461025b565b61097257604051806080016040528085815260200184815260200183815260200182815250945050505050610980565b61097b866106dd565b505050505b919050565b6000808242336001546040516020016109a09392919061148b565b6040516020818303038152906040528051906020012060001c6109c391906114f7565b90506001816109d2919061131c565b9050600160008154809291906109e790611528565b919050555080915050919050565b606060008203610a3c576040518060400160405280600181526020017f30000000000000000000000000000000000000000000000000000000000000008152509050610b50565b600082905060005b60008214610a6e578080610a5790611528565b915050600a82610a679190611570565b9150610a44565b60008167ffffffffffffffff811115610a8a57610a89610d9b565b5b6040519080825280601f01601f191660200182016040528015610abc5781602001600182028036833780820191505090505b5090505b60008514610b4957600182610ad5919061131c565b9150600a85610ae491906114f7565b6030610af091906115a1565b60f81b818381518110610b0657610b056115f7565b5b60200101907effffffffffffffffffffffffffffffffffffffffffffffffffffffffffffff1916908160001a905350600a85610b429190611570565b9450610ac0565b8093505050505b919050565b828054610b619061122a565b90600052602060002090601f016020900481019282610b835760008555610bca565b82601f10610b9c57805160ff1916838001178555610bca565b82800160010185558215610bca579182015b82811115610bc9578251825591602001919060010190610bae565b5b509050610bd79190610c90565b5090565b828054610be79061122a565b90600052602060002090601f016020900481019282610c095760008555610c57565b82601f10610c1a5780548555610c57565b82800160010185558215610c5757600052602060002091601f016020900482015b82811115610c56578254825591600101919060010190610c3b565b5b509050610c649190610c90565b5090565b6040518060800160405280606081526020016060815260200160608152602001606081525090565b5b80821115610ca9576000816000905550600101610c91565b5090565b6000604051905090565b600080fd5b600080fd5b6000819050919050565b610cd481610cc1565b8114610cdf57600080fd5b50565b600081359050610cf181610ccb565b92915050565b600060208284031215610d0d57610d0c610cb7565b5b6000610d1b84828501610ce2565b91505092915050565b600073ffffffffffffffffffffffffffffffffffffffff82169050919050565b6000610d4f82610d24565b9050919050565b610d5f81610d44565b82525050565b6000602082019050610d7a6000830184610d56565b92915050565b600080fd5b600080fd5b6000601f19601f8301169050919050565b7f4e487b7100000000000000000000000000000000000000000000000000000000600052604160045260246000fd5b610dd382610d8a565b810181811067ffffffffffffffff82111715610df257610df1610d9b565b5b80604052505050565b6000610e05610cad565b9050610e118282610dca565b919050565b600067ffffffffffffffff821115610e3157610e30610d9b565b5b610e3a82610d8a565b9050602081019050919050565b82818337600083830152505050565b6000610e69610e6484610e16565b610dfb565b905082815260208101848484011115610e8557610e84610d85565b5b610e90848285610e47565b509392505050565b600082601f830112610ead57610eac610d80565b5b8135610ebd848260208601610e56565b91505092915050565b60008060008060808587031215610ee057610edf610cb7565b5b600085013567ffffffffffffffff811115610efe57610efd610cbc565b5b610f0a87828801610e98565b945050602085013567ffffffffffffffff811115610f2b57610f2a610cbc565b5b610f3787828801610e98565b935050604085013567ffffffffffffffff811115610f5857610f57610cbc565b5b610f6487828801610e98565b925050606085013567ffffffffffffffff811115610f8557610f84610cbc565b5b610f9187828801610e98565b91505092959194509250565b60008115159050919050565b610fb281610f9d565b82525050565b6000602082019050610fcd6000830184610fa9565b92915050565b600081519050919050565b600082825260208201905092915050565b60005b8381101561100d578082015181840152602081019050610ff2565b8381111561101c576000848401525b50505050565b600061102d82610fd3565b6110378185610fde565b9350611047818560208601610fef565b61105081610d8a565b840191505092915050565b600060808201905081810360008301526110758187611022565b905081810360208301526110898186611022565b9050818103604083015261109d8185611022565b905081810360608301526110b18184611022565b905095945050505050565b6110c581610d44565b81146110d057600080fd5b50565b6000813590506110e2816110bc565b92915050565b6000602082840312156110fe576110fd610cb7565b5b600061110c848285016110d3565b91505092915050565b7f4f776e61626c653a2063616c6c6572206973206e6f7420746865206f776e6572600082015250565b600061114b602083610fde565b915061115682611115565b602082019050919050565b6000602082019050818103600083015261117a8161113e565b9050919050565b600081905092915050565b600061119782610fd3565b6111a18185611181565b93506111b1818560208601610fef565b80840191505092915050565b60006111c9828761118c565b91506111d5828661118c565b91506111e1828561118c565b91506111ed828461118c565b915081905095945050505050565b7f4e487b7100000000000000000000000000000000000000000000000000000000600052602260045260246000fd5b6000600282049050600182168061124257607f821691505b602082108103611255576112546111fb565b5b50919050565b7f4f776e61626c653a206e6577206f776e657220697320746865207a65726f206160008201527f6464726573730000000000000000000000000000000000000000000000000000602082015250565b60006112b7602683610fde565b91506112c28261125b565b604082019050919050565b600060208201905081810360008301526112e6816112aa565b9050919050565b7f4e487b7100000000000000000000000000000000000000000000000000000000600052601160045260246000fd5b600061132782610cc1565b915061133283610cc1565b925082821015611345576113446112ed565b5b828203905092915050565b60008190508160005260206000209050919050565b600081546113728161122a565b61137c8186611181565b9450600182166000811461139757600181146113a8576113db565b60ff198316865281860193506113db565b6113b185611350565b60005b838110156113d3578154818901526001820191506020810190506113b4565b838801955050505b50505092915050565b60006113f08287611365565b91506113fc8286611365565b91506114088285611365565b91506114148284611365565b915081905095945050505050565b6000819050919050565b61143d61143882610cc1565b611422565b82525050565b60008160601b9050919050565b600061145b82611443565b9050919050565b600061146d82611450565b9050919050565b61148561148082610d44565b611462565b82525050565b6000611497828661142c565b6020820191506114a78285611474565b6014820191506114b7828461142c565b602082019150819050949350505050565b7f4e487b7100000000000000000000000000000000000000000000000000000000600052601260045260246000fd5b600061150282610cc1565b915061150d83610cc1565b92508261151d5761151c6114c8565b5b828206905092915050565b600061153382610cc1565b91507fffffffffffffffffffffffffffffffffffffffffffffffffffffffffffffffff8203611565576115646112ed565b5b600182019050919050565b600061157b82610cc1565b915061158683610cc1565b925082611596576115956114c8565b5b828204905092915050565b60006115ac82610cc1565b91506115b783610cc1565b9250827fffffffffffffffffffffffffffffffffffffffffffffffffffffffffffffffff038211156115ec576115eb6112ed565b5b828201905092915050565b7f4e487b7100000000000000000000000000000000000000000000000000000000600052603260045260246000fdfea264697066735822122090e989af0ca7b74a4f4d26d7fce1235f3ea41ae59455fda0663c064217c7e1da64736f6c634300080d0033",
  "immutableReferences": {},
  "source": "// SPDX-License-Identifier: MIT\npragma solidity ^0.8.0;\n\nimport \"@openzeppelin/contracts/access/Ownable.sol\";\nimport \"@openzeppelin/contracts/utils/Strings.sol\";\n\ncontract LuckDApp is Ownable {\n  uint nonce = 0;\n\n  struct LDNA {\n    string r;\n    string g;\n    string b;\n    string a;\n  }\n\n  LDNA ldna;\n  LDNA[] public luckDNA;\n\n  mapping (uint => address) public ldnaToOwner;\n  mapping (bytes32 => uint) hashToLDNA;\n\n  function _createLdna(address owner) internal {\n    ldna = _generateRandomLdna(owner);\n    luckDNA.push(ldna);\n    uint id = luckDNA.length - 1;\n    ldnaToOwner[id] = owner;\n    bytes32 hash = keccak256(abi.encodePacked(ldna.r, ldna.g, ldna.b, ldna.a));\n    hashToLDNA[hash] = id;\n  }\n\n  function _generateRandomLdna(address owner) internal returns (LDNA memory l) {\n    string memory r = Strings.toString(_random(256));\n    string memory g = Strings.toString(_random(256));\n    string memory b = Strings.toString(_random(256));\n    string memory a = Strings.toString(_random(101));\n    if (!checkLdna(r, g, b, a)) {\n      return LDNA(r, g, b, a);\n    } else {\n      _createLdna(owner);\n    }\n  }\n\n  function _random(uint num) internal returns (uint) {\n    uint random = uint(keccak256(abi.encodePacked(block.timestamp, msg.sender, nonce))) % num;\n    random = random - 1;\n    nonce++;\n    return random;\n  }\n\n  function checkLdna(string memory r, string memory g, string memory b, string memory a) public view returns (bool) {\n    if (hashToLDNA[keccak256(abi.encodePacked(r, g, b, a))] > 0) {\n      return true;\n    } else {\n      return false;\n    }\n  }\n\n  function newPlayer() public {\n    _createLdna(msg.sender);\n    _createLdna(address(this));\n  }\n}\n",
  "sourcePath": "/Users/laetadevelopment/Documents/LuckDApp/contracts/LuckDApp.sol",
  "compiler": {
    "name": "solc",
    "version": "0.8.13+commit.abaa5c0e.Emscripten.clang"
  },
  "schemaVersion": "3.4.6",
  "updatedAt": "2022-05-16T22:42:13.810Z",
  "networkType": "ethereum",
  "devdoc": {
    "kind": "dev",
    "methods": {
      "owner()": {
        "details": "Returns the address of the current owner."
      },
      "renounceOwnership()": {
        "details": "Leaves the contract without owner. It will not be possible to call `onlyOwner` functions anymore. Can only be called by the current owner. NOTE: Renouncing ownership will leave the contract without an owner, thereby removing any functionality that is only available to the owner."
      },
      "transferOwnership(address)": {
        "details": "Transfers ownership of the contract to a new account (`newOwner`). Can only be called by the current owner."
      }
    },
    "version": 1
  },
  "userdoc": {
    "kind": "user",
    "methods": {},
    "version": 1
  }
}