{
  "contractName": "LuckDApp",
  "abi": [
    {
      "anonymous": false,
      "inputs": [
        {
          "indexed": true,
          "internalType": "address",
          "name": "previousOwner",
          "type": "address"
        },
        {
          "indexed": true,
          "internalType": "address",
          "name": "newOwner",
          "type": "address"
        }
      ],
      "name": "OwnershipTransferred",
      "type": "event"
    },
    {
      "inputs": [
        {
          "internalType": "uint256",
          "name": "",
          "type": "uint256"
        }
      ],
      "name": "ldnaToOwner",
      "outputs": [
        {
          "internalType": "address",
          "name": "",
          "type": "address"
        }
      ],
      "stateMutability": "view",
      "type": "function",
      "constant": true
    },
    {
      "inputs": [
        {
          "internalType": "uint256",
          "name": "",
          "type": "uint256"
        }
      ],
      "name": "luckDNA",
      "outputs": [
        {
          "internalType": "string",
          "name": "r",
          "type": "string"
        },
        {
          "internalType": "string",
          "name": "g",
          "type": "string"
        },
        {
          "internalType": "string",
          "name": "b",
          "type": "string"
        },
        {
          "internalType": "string",
          "name": "a",
          "type": "string"
        }
      ],
      "stateMutability": "view",
      "type": "function",
      "constant": true
    },
    {
      "inputs": [],
      "name": "owner",
      "outputs": [
        {
          "internalType": "address",
          "name": "",
          "type": "address"
        }
      ],
      "stateMutability": "view",
      "type": "function",
      "constant": true
    },
    {
      "inputs": [
        {
          "internalType": "address",
          "name": "",
          "type": "address"
        }
      ],
      "name": "playerToName",
      "outputs": [
        {
          "internalType": "string",
          "name": "",
          "type": "string"
        }
      ],
      "stateMutability": "view",
      "type": "function",
      "constant": true
    },
    {
      "inputs": [],
      "name": "renounceOwnership",
      "outputs": [],
      "stateMutability": "nonpayable",
      "type": "function"
    },
    {
      "inputs": [
        {
          "internalType": "address",
          "name": "newOwner",
          "type": "address"
        }
      ],
      "name": "transferOwnership",
      "outputs": [],
      "stateMutability": "nonpayable",
      "type": "function"
    },
    {
      "inputs": [
        {
          "internalType": "string",
          "name": "_r",
          "type": "string"
        },
        {
          "internalType": "string",
          "name": "_g",
          "type": "string"
        },
        {
          "internalType": "string",
          "name": "_b",
          "type": "string"
        },
        {
          "internalType": "string",
          "name": "_a",
          "type": "string"
        }
      ],
      "name": "ldnaExists",
      "outputs": [
        {
          "internalType": "bool",
          "name": "",
          "type": "bool"
        }
      ],
      "stateMutability": "view",
      "type": "function",
      "constant": true
    },
    {
      "inputs": [
        {
          "internalType": "string",
          "name": "_name",
          "type": "string"
        }
      ],
      "name": "newPlayer",
      "outputs": [],
      "stateMutability": "nonpayable",
      "type": "function"
    },
    {
      "inputs": [
        {
          "internalType": "address",
          "name": "_owner",
          "type": "address"
        }
      ],
      "name": "playerLDNA",
      "outputs": [
        {
          "internalType": "uint256[]",
          "name": "",
          "type": "uint256[]"
        }
      ],
      "stateMutability": "view",
      "type": "function",
      "constant": true
    }
  ],
  "bytecode": "0x6080604052600060015534801561001557600080fd5b5061003261002761003760201b60201c565b61003f60201b60201c565b610103565b600033905090565b60008060009054906101000a900473ffffffffffffffffffffffffffffffffffffffff169050816000806101000a81548173ffffffffffffffffffffffffffffffffffffffff021916908373ffffffffffffffffffffffffffffffffffffffff1602179055508173ffffffffffffffffffffffffffffffffffffffff168173ffffffffffffffffffffffffffffffffffffffff167f8be0079c531659141344cd1fd0a4f28419497f9722a3daafe3b4186f6b6457e060405160405180910390a35050565b6119ba806101126000396000f3fe608060405234801561001057600080fd5b50600436106100935760003560e01c8063aae027e211610066578063aae027e214610120578063ae2585ea14610153578063ceb95d7a14610183578063ecfec7d81461019f578063f2fde38b146101cf57610093565b80634061b39814610098578063715018a6146100c85780638da5cb5b146100d25780639e1e1596146100f0575b600080fd5b6100b260048036038101906100ad9190610fdc565b6101eb565b6040516100bf919061104a565b60405180910390f35b6100d061021e565b005b6100da6102a6565b6040516100e7919061104a565b60405180910390f35b61010a600480360381019061010591906111ab565b6102cf565b604051610117919061129d565b60405180910390f35b61013a60048036038101906101359190610fdc565b610339565b60405161014a9493929190611340565b60405180910390f35b61016d600480360381019061016891906113cd565b610599565b60405161017a91906113fa565b60405180910390f35b61019d6004803603810190610198919061141c565b610639565b005b6101b960048036038101906101b491906113cd565b6106fa565b6040516101c69190611523565b60405180910390f35b6101e960048036038101906101e491906113cd565b61084c565b005b60046020528060005260406000206000915054906101000a900473ffffffffffffffffffffffffffffffffffffffff1681565b610226610943565b73ffffffffffffffffffffffffffffffffffffffff166102446102a6565b73ffffffffffffffffffffffffffffffffffffffff161461029a576040517f08c379a000000000000000000000000000000000000000000000000000000000815260040161029190611591565b60405180910390fd5b6102a4600061094b565b565b60008060009054906101000a900473ffffffffffffffffffffffffffffffffffffffff16905090565b600060066000868686866040516020016102ec94939291906115ed565b60405160208183030381529060405280519060200120815260200190815260200160002060009054906101000a900460ff161561032c5760019050610331565b600090505b949350505050565b6002818154811061034957600080fd5b906000526020600020906004020160009150905080600001805461036c9061165a565b80601f01602080910402602001604051908101604052809291908181526020018280546103989061165a565b80156103e55780601f106103ba576101008083540402835291602001916103e5565b820191906000526020600020905b8154815290600101906020018083116103c857829003601f168201915b5050505050908060010180546103fa9061165a565b80601f01602080910402602001604051908101604052809291908181526020018280546104269061165a565b80156104735780601f1061044857610100808354040283529160200191610473565b820191906000526020600020905b81548152906001019060200180831161045657829003601f168201915b5050505050908060020180546104889061165a565b80601f01602080910402602001604051908101604052809291908181526020018280546104b49061165a565b80156105015780601f106104d657610100808354040283529160200191610501565b820191906000526020600020905b8154815290600101906020018083116104e457829003601f168201915b5050505050908060030180546105169061165a565b80601f01602080910402602001604051908101604052809291908181526020018280546105429061165a565b801561058f5780601f106105645761010080835404028352916020019161058f565b820191906000526020600020905b81548152906001019060200180831161057257829003601f168201915b5050505050905084565b600360205280600052604060002060009150905080546105b89061165a565b80601f01602080910402602001604051908101604052809291908181526020018280546105e49061165a565b80156106315780601f1061060657610100808354040283529160200191610631565b820191906000526020600020905b81548152906001019060200180831161061457829003601f168201915b505050505081565b6000600360003373ffffffffffffffffffffffffffffffffffffffff1673ffffffffffffffffffffffffffffffffffffffff16815260200190815260200160002080546106859061165a565b90501461069157600080fd5b80600360003373ffffffffffffffffffffffffffffffffffffffff1673ffffffffffffffffffffffffffffffffffffffff16815260200190815260200160002090805190602001906106e4929190610ec7565b506106ee33610a0f565b6106f730610a0f565b50565b60606000600560008473ffffffffffffffffffffffffffffffffffffffff1673ffffffffffffffffffffffffffffffffffffffff1681526020019081526020016000205467ffffffffffffffff81111561075757610756611080565b5b6040519080825280602002602001820160405280156107855781602001602082028036833780820191505090505b5090506000805b600280549050811015610841578473ffffffffffffffffffffffffffffffffffffffff166004600083815260200190815260200160002060009054906101000a900473ffffffffffffffffffffffffffffffffffffffff1673ffffffffffffffffffffffffffffffffffffffff160361082e57808383815181106108135761081261168b565b5b602002602001018181525050818061082a906116e9565b9250505b8080610839906116e9565b91505061078c565b508192505050919050565b610854610943565b73ffffffffffffffffffffffffffffffffffffffff166108726102a6565b73ffffffffffffffffffffffffffffffffffffffff16146108c8576040517f08c379a00000000000000000000000000000000000000000000000000000000081526004016108bf90611591565b60405180910390fd5b600073ffffffffffffffffffffffffffffffffffffffff168173ffffffffffffffffffffffffffffffffffffffff1603610937576040517f08c379a000000000000000000000000000000000000000000000000000000000815260040161092e906117a3565b60405180910390fd5b6109408161094b565b50565b600033905090565b60008060009054906101000a900473ffffffffffffffffffffffffffffffffffffffff169050816000806101000a81548173ffffffffffffffffffffffffffffffffffffffff021916908373ffffffffffffffffffffffffffffffffffffffff1602179055508173ffffffffffffffffffffffffffffffffffffffff168173ffffffffffffffffffffffffffffffffffffffff167f8be0079c531659141344cd1fd0a4f28419497f9722a3daafe3b4186f6b6457e060405160405180910390a35050565b6000610a1a82610c2f565b905060028190806001815401808255809150506001900390600052602060002090600402016000909190919091506000820151816000019080519060200190610a64929190610ec7565b506020820151816001019080519060200190610a81929190610ec7565b506040820151816002019080519060200190610a9e929190610ec7565b506060820151816003019080519060200190610abb929190610ec7565b50505060006001600280549050610ad291906117c3565b9050826004600083815260200190815260200160002060006101000a81548173ffffffffffffffffffffffffffffffffffffffff021916908373ffffffffffffffffffffffffffffffffffffffff160217905550610b796001600560008673ffffffffffffffffffffffffffffffffffffffff1673ffffffffffffffffffffffffffffffffffffffff16815260200190815260200160002054610ce190919063ffffffff16565b600560008573ffffffffffffffffffffffffffffffffffffffff1673ffffffffffffffffffffffffffffffffffffffff1681526020019081526020016000208190555060008260000151836020015184604001518560600151604051602001610be594939291906115ed565b60405160208183030381529060405280519060200120905060016006600083815260200190815260200160002060006101000a81548160ff02191690831515021790555050505050565b610c37610f4d565b6000610c4c610c47610100610cf7565b610d67565b90506000610c63610c5e610100610cf7565b610d67565b90506000610c7a610c75610100610cf7565b610d67565b90506000610c90610c8b6065610cf7565b610d67565b9050610c9e848484846102cf565b610cce57604051806080016040528085815260200184815260200183815260200182815250945050505050610cdc565b610cd786610a0f565b505050505b919050565b60008183610cef91906117f7565b905092915050565b600080824233600154604051602001610d12939291906118b6565b6040516020818303038152906040528051906020012060001c610d359190611922565b9050600181610d4491906117c3565b905060016000815480929190610d59906116e9565b919050555080915050919050565b606060008203610dae576040518060400160405280600181526020017f30000000000000000000000000000000000000000000000000000000000000008152509050610ec2565b600082905060005b60008214610de0578080610dc9906116e9565b915050600a82610dd99190611953565b9150610db6565b60008167ffffffffffffffff811115610dfc57610dfb611080565b5b6040519080825280601f01601f191660200182016040528015610e2e5781602001600182028036833780820191505090505b5090505b60008514610ebb57600182610e4791906117c3565b9150600a85610e569190611922565b6030610e6291906117f7565b60f81b818381518110610e7857610e7761168b565b5b60200101907effffffffffffffffffffffffffffffffffffffffffffffffffffffffffffff1916908160001a905350600a85610eb49190611953565b9450610e32565b8093505050505b919050565b828054610ed39061165a565b90600052602060002090601f016020900481019282610ef55760008555610f3c565b82601f10610f0e57805160ff1916838001178555610f3c565b82800160010185558215610f3c579182015b82811115610f3b578251825591602001919060010190610f20565b5b509050610f499190610f75565b5090565b6040518060800160405280606081526020016060815260200160608152602001606081525090565b5b80821115610f8e576000816000905550600101610f76565b5090565b6000604051905090565b600080fd5b600080fd5b6000819050919050565b610fb981610fa6565b8114610fc457600080fd5b50565b600081359050610fd681610fb0565b92915050565b600060208284031215610ff257610ff1610f9c565b5b600061100084828501610fc7565b91505092915050565b600073ffffffffffffffffffffffffffffffffffffffff82169050919050565b600061103482611009565b9050919050565b61104481611029565b82525050565b600060208201905061105f600083018461103b565b92915050565b600080fd5b600080fd5b6000601f19601f8301169050919050565b7f4e487b7100000000000000000000000000000000000000000000000000000000600052604160045260246000fd5b6110b88261106f565b810181811067ffffffffffffffff821117156110d7576110d6611080565b5b80604052505050565b60006110ea610f92565b90506110f682826110af565b919050565b600067ffffffffffffffff82111561111657611115611080565b5b61111f8261106f565b9050602081019050919050565b82818337600083830152505050565b600061114e611149846110fb565b6110e0565b90508281526020810184848401111561116a5761116961106a565b5b61117584828561112c565b509392505050565b600082601f83011261119257611191611065565b5b81356111a284826020860161113b565b91505092915050565b600080600080608085870312156111c5576111c4610f9c565b5b600085013567ffffffffffffffff8111156111e3576111e2610fa1565b5b6111ef8782880161117d565b945050602085013567ffffffffffffffff8111156112105761120f610fa1565b5b61121c8782880161117d565b935050604085013567ffffffffffffffff81111561123d5761123c610fa1565b5b6112498782880161117d565b925050606085013567ffffffffffffffff81111561126a57611269610fa1565b5b6112768782880161117d565b91505092959194509250565b60008115159050919050565b61129781611282565b82525050565b60006020820190506112b2600083018461128e565b92915050565b600081519050919050565b600082825260208201905092915050565b60005b838110156112f25780820151818401526020810190506112d7565b83811115611301576000848401525b50505050565b6000611312826112b8565b61131c81856112c3565b935061132c8185602086016112d4565b6113358161106f565b840191505092915050565b6000608082019050818103600083015261135a8187611307565b9050818103602083015261136e8186611307565b905081810360408301526113828185611307565b905081810360608301526113968184611307565b905095945050505050565b6113aa81611029565b81146113b557600080fd5b50565b6000813590506113c7816113a1565b92915050565b6000602082840312156113e3576113e2610f9c565b5b60006113f1848285016113b8565b91505092915050565b600060208201905081810360008301526114148184611307565b905092915050565b60006020828403121561143257611431610f9c565b5b600082013567ffffffffffffffff8111156114505761144f610fa1565b5b61145c8482850161117d565b91505092915050565b600081519050919050565b600082825260208201905092915050565b6000819050602082019050919050565b61149a81610fa6565b82525050565b60006114ac8383611491565b60208301905092915050565b6000602082019050919050565b60006114d082611465565b6114da8185611470565b93506114e583611481565b8060005b838110156115165781516114fd88826114a0565b9750611508836114b8565b9250506001810190506114e9565b5085935050505092915050565b6000602082019050818103600083015261153d81846114c5565b905092915050565b7f4f776e61626c653a2063616c6c6572206973206e6f7420746865206f776e6572600082015250565b600061157b6020836112c3565b915061158682611545565b602082019050919050565b600060208201905081810360008301526115aa8161156e565b9050919050565b600081905092915050565b60006115c7826112b8565b6115d181856115b1565b93506115e18185602086016112d4565b80840191505092915050565b60006115f982876115bc565b915061160582866115bc565b915061161182856115bc565b915061161d82846115bc565b915081905095945050505050565b7f4e487b7100000000000000000000000000000000000000000000000000000000600052602260045260246000fd5b6000600282049050600182168061167257607f821691505b6020821081036116855761168461162b565b5b50919050565b7f4e487b7100000000000000000000000000000000000000000000000000000000600052603260045260246000fd5b7f4e487b7100000000000000000000000000000000000000000000000000000000600052601160045260246000fd5b60006116f482610fa6565b91507fffffffffffffffffffffffffffffffffffffffffffffffffffffffffffffffff8203611726576117256116ba565b5b600182019050919050565b7f4f776e61626c653a206e6577206f776e657220697320746865207a65726f206160008201527f6464726573730000000000000000000000000000000000000000000000000000602082015250565b600061178d6026836112c3565b915061179882611731565b604082019050919050565b600060208201905081810360008301526117bc81611780565b9050919050565b60006117ce82610fa6565b91506117d983610fa6565b9250828210156117ec576117eb6116ba565b5b828203905092915050565b600061180282610fa6565b915061180d83610fa6565b9250827fffffffffffffffffffffffffffffffffffffffffffffffffffffffffffffffff03821115611842576118416116ba565b5b828201905092915050565b6000819050919050565b61186861186382610fa6565b61184d565b82525050565b60008160601b9050919050565b60006118868261186e565b9050919050565b60006118988261187b565b9050919050565b6118b06118ab82611029565b61188d565b82525050565b60006118c28286611857565b6020820191506118d2828561189f565b6014820191506118e28284611857565b602082019150819050949350505050565b7f4e487b7100000000000000000000000000000000000000000000000000000000600052601260045260246000fd5b600061192d82610fa6565b915061193883610fa6565b925082611948576119476118f3565b5b828206905092915050565b600061195e82610fa6565b915061196983610fa6565b925082611979576119786118f3565b5b82820490509291505056fea2646970667358221220523e19f4629678d0a898c3d63faacaac38245468ecad546c0f707112daec514964736f6c634300080d0033",
  "immutableReferences": {},
  "source": "// SPDX-License-Identifier: MIT\npragma solidity ^0.8.0;\n\nimport \"@openzeppelin/contracts/access/Ownable.sol\";\nimport \"@openzeppelin/contracts/utils/Strings.sol\";\nimport \"@openzeppelin/contracts/utils/math/SafeMath.sol\";\n\ncontract LuckDApp is Ownable {\n  using SafeMath for uint256;\n\n  uint nonce = 0;\n\n  struct LDNA {\n    string r;\n    string g;\n    string b;\n    string a;\n  }\n\n  LDNA[] public luckDNA;\n\n  mapping (address => string) public playerToName;\n  mapping (uint => address) public ldnaToOwner;\n  mapping (address => uint) ldnaCount;\n  mapping (bytes32 => bool) hashToLDNA;\n\n  function _createLdna(address _owner) internal {\n    LDNA memory ldna = _generateRandomLdna(_owner);\n    luckDNA.push(ldna);\n    uint id = luckDNA.length - 1;\n    ldnaToOwner[id] = _owner;\n    ldnaCount[_owner] = ldnaCount[_owner].add(1);\n    bytes32 hash = keccak256(abi.encodePacked(ldna.r, ldna.g, ldna.b, ldna.a));\n    hashToLDNA[hash] = true;\n  }\n\n  function _generateRandomLdna(address _owner) internal returns (LDNA memory _ldna) {\n    string memory r = Strings.toString(_random(256));\n    string memory g = Strings.toString(_random(256));\n    string memory b = Strings.toString(_random(256));\n    string memory a = Strings.toString(_random(101));\n    if (!ldnaExists(r, g, b, a)) {\n      return LDNA(r, g, b, a);\n    } else {\n      _createLdna(_owner);\n    }\n  }\n\n  function _random(uint _num) internal returns (uint) {\n    uint random = uint(keccak256(abi.encodePacked(block.timestamp, msg.sender, nonce))) % _num;\n    random = random - 1;\n    nonce++;\n    return random;\n  }\n\n  function ldnaExists(string memory _r, string memory _g, string memory _b, string memory _a) public view returns (bool) {\n    if (hashToLDNA[keccak256(abi.encodePacked(_r, _g, _b, _a))]) {\n      return true;\n    } else {\n      return false;\n    }\n  }\n\n  function newPlayer(string memory _name) public {\n    require(bytes(playerToName[msg.sender]).length == 0);\n    playerToName[msg.sender] = _name;\n    _createLdna(msg.sender);\n    _createLdna(address(this));\n  }\n\n  function playerLDNA(address _owner) external view returns(uint[] memory) {\n    uint[] memory ldna = new uint[](ldnaCount[_owner]);\n    uint counter = 0;\n    for (uint i = 0; i < luckDNA.length; i++) {\n      if (ldnaToOwner[i] == _owner) {\n        ldna[counter] = i;\n        counter++;\n      }\n    }\n    return ldna;\n  }\n}\n",
  "sourcePath": "/Users/laetadevelopment/Documents/LuckDApp/contracts/LuckDApp.sol",
  "compiler": {
    "name": "solc",
    "version": "0.8.13+commit.abaa5c0e.Emscripten.clang"
  },
  "schemaVersion": "3.4.6",
  "updatedAt": "2022-05-19T23:08:12.434Z",
  "networkType": "ethereum",
  "devdoc": {
    "kind": "dev",
    "methods": {
      "owner()": {
        "details": "Returns the address of the current owner."
      },
      "renounceOwnership()": {
        "details": "Leaves the contract without owner. It will not be possible to call `onlyOwner` functions anymore. Can only be called by the current owner. NOTE: Renouncing ownership will leave the contract without an owner, thereby removing any functionality that is only available to the owner."
      },
      "transferOwnership(address)": {
        "details": "Transfers ownership of the contract to a new account (`newOwner`). Can only be called by the current owner."
      }
    },
    "version": 1
  },
  "userdoc": {
    "kind": "user",
    "methods": {},
    "version": 1
  }
}