{
  "contractName": "LuckDApp",
  "abi": [
    {
      "anonymous": false,
      "inputs": [
        {
          "indexed": false,
          "internalType": "bool",
          "name": "results",
          "type": "bool"
        },
        {
          "indexed": false,
          "internalType": "uint256",
          "name": "random",
          "type": "uint256"
        },
        {
          "indexed": false,
          "internalType": "uint256[]",
          "name": "ldna",
          "type": "uint256[]"
        }
      ],
      "name": "LuckChallengeResults",
      "type": "event"
    },
    {
      "anonymous": false,
      "inputs": [
        {
          "indexed": true,
          "internalType": "address",
          "name": "previousOwner",
          "type": "address"
        },
        {
          "indexed": true,
          "internalType": "address",
          "name": "newOwner",
          "type": "address"
        }
      ],
      "name": "OwnershipTransferred",
      "type": "event"
    },
    {
      "inputs": [
        {
          "internalType": "uint256",
          "name": "",
          "type": "uint256"
        }
      ],
      "name": "ldnaToOwner",
      "outputs": [
        {
          "internalType": "address",
          "name": "",
          "type": "address"
        }
      ],
      "stateMutability": "view",
      "type": "function",
      "constant": true
    },
    {
      "inputs": [
        {
          "internalType": "uint256",
          "name": "",
          "type": "uint256"
        }
      ],
      "name": "luckDNA",
      "outputs": [
        {
          "internalType": "string",
          "name": "r",
          "type": "string"
        },
        {
          "internalType": "string",
          "name": "g",
          "type": "string"
        },
        {
          "internalType": "string",
          "name": "b",
          "type": "string"
        },
        {
          "internalType": "string",
          "name": "a",
          "type": "string"
        }
      ],
      "stateMutability": "view",
      "type": "function",
      "constant": true
    },
    {
      "inputs": [],
      "name": "owner",
      "outputs": [
        {
          "internalType": "address",
          "name": "",
          "type": "address"
        }
      ],
      "stateMutability": "view",
      "type": "function",
      "constant": true
    },
    {
      "inputs": [
        {
          "internalType": "address",
          "name": "",
          "type": "address"
        }
      ],
      "name": "playerToName",
      "outputs": [
        {
          "internalType": "string",
          "name": "",
          "type": "string"
        }
      ],
      "stateMutability": "view",
      "type": "function",
      "constant": true
    },
    {
      "inputs": [],
      "name": "renounceOwnership",
      "outputs": [],
      "stateMutability": "nonpayable",
      "type": "function"
    },
    {
      "inputs": [
        {
          "internalType": "address",
          "name": "newOwner",
          "type": "address"
        }
      ],
      "name": "transferOwnership",
      "outputs": [],
      "stateMutability": "nonpayable",
      "type": "function"
    },
    {
      "inputs": [
        {
          "internalType": "string",
          "name": "_name",
          "type": "string"
        }
      ],
      "name": "newPlayer",
      "outputs": [],
      "stateMutability": "nonpayable",
      "type": "function"
    },
    {
      "inputs": [
        {
          "internalType": "uint256",
          "name": "_ldna",
          "type": "uint256"
        }
      ],
      "name": "luckChallenge",
      "outputs": [],
      "stateMutability": "nonpayable",
      "type": "function"
    },
    {
      "inputs": [
        {
          "internalType": "string",
          "name": "_r",
          "type": "string"
        },
        {
          "internalType": "string",
          "name": "_g",
          "type": "string"
        },
        {
          "internalType": "string",
          "name": "_b",
          "type": "string"
        },
        {
          "internalType": "string",
          "name": "_a",
          "type": "string"
        }
      ],
      "name": "ldnaExists",
      "outputs": [
        {
          "internalType": "bool",
          "name": "",
          "type": "bool"
        }
      ],
      "stateMutability": "view",
      "type": "function",
      "constant": true
    },
    {
      "inputs": [
        {
          "internalType": "address",
          "name": "_owner",
          "type": "address"
        }
      ],
      "name": "playerLDNA",
      "outputs": [
        {
          "internalType": "uint256[]",
          "name": "",
          "type": "uint256[]"
        }
      ],
      "stateMutability": "view",
      "type": "function",
      "constant": true
    },
    {
      "inputs": [],
      "name": "withdraw",
      "outputs": [],
      "stateMutability": "nonpayable",
      "type": "function"
    },
    {
      "inputs": [
        {
          "internalType": "uint256",
          "name": "_cost",
          "type": "uint256"
        }
      ],
      "name": "setCost",
      "outputs": [],
      "stateMutability": "nonpayable",
      "type": "function"
    },
    {
      "inputs": [],
      "name": "getLDNA",
      "outputs": [],
      "stateMutability": "payable",
      "type": "function",
      "payable": true
    }
  ],
  "bytecode": "0x608060405260006001556611c37937e0800060025534801561002057600080fd5b5061003d61003261004260201b60201c565b61004a60201b60201c565b61010e565b600033905090565b60008060009054906101000a900473ffffffffffffffffffffffffffffffffffffffff169050816000806101000a81548173ffffffffffffffffffffffffffffffffffffffff021916908373ffffffffffffffffffffffffffffffffffffffff1602179055508173ffffffffffffffffffffffffffffffffffffffff168173ffffffffffffffffffffffffffffffffffffffff167f8be0079c531659141344cd1fd0a4f28419497f9722a3daafe3b4186f6b6457e060405160405180910390a35050565b612254806200011e6000396000f3fe6080604052600436106100c25760003560e01c80639e1e15961161007f578063ae2585ea11610059578063ae2585ea14610236578063ceb95d7a14610273578063ecfec7d81461029c578063f2fde38b146102d9576100c2565b80639e1e1596146101af578063aa1d4485146101ec578063aae027e2146101f6576100c2565b80633653d186146100c75780633ccfd60b146100f05780634061b3981461010757806344a0d68a14610144578063715018a61461016d5780638da5cb5b14610184575b600080fd5b3480156100d357600080fd5b506100ee60048036038101906100e99190611829565b610302565b005b3480156100fc57600080fd5b5061010561037b565b005b34801561011357600080fd5b5061012e60048036038101906101299190611829565b61044d565b60405161013b9190611897565b60405180910390f35b34801561015057600080fd5b5061016b60048036038101906101669190611829565b610480565b005b34801561017957600080fd5b50610182610506565b005b34801561019057600080fd5b5061019961058e565b6040516101a69190611897565b60405180910390f35b3480156101bb57600080fd5b506101d660048036038101906101d191906119f8565b6105b7565b6040516101e39190611aea565b60405180910390f35b6101f4610621565b005b34801561020257600080fd5b5061021d60048036038101906102189190611829565b610685565b60405161022d9493929190611b8d565b60405180910390f35b34801561024257600080fd5b5061025d60048036038101906102589190611c1a565b6108e5565b60405161026a9190611c47565b60405180910390f35b34801561027f57600080fd5b5061029a60048036038101906102959190611c69565b610985565b005b3480156102a857600080fd5b506102c360048036038101906102be9190611c1a565b610a46565b6040516102d09190611d70565b60405180910390f35b3480156102e557600080fd5b5061030060048036038101906102fb9190611c1a565b610b98565b005b806005600082815260200190815260200160002060009054906101000a900473ffffffffffffffffffffffffffffffffffffffff1673ffffffffffffffffffffffffffffffffffffffff163373ffffffffffffffffffffffffffffffffffffffff161461036e57600080fd5b61037782610c8f565b5050565b610383610d16565b73ffffffffffffffffffffffffffffffffffffffff166103a161058e565b73ffffffffffffffffffffffffffffffffffffffff16146103f7576040517f08c379a00000000000000000000000000000000000000000000000000000000081526004016103ee90611dde565b60405180910390fd5b600061040161058e565b90508073ffffffffffffffffffffffffffffffffffffffff166108fc479081150290604051600060405180830381858888f19350505050158015610449573d6000803e3d6000fd5b5050565b60056020528060005260406000206000915054906101000a900473ffffffffffffffffffffffffffffffffffffffff1681565b610488610d16565b73ffffffffffffffffffffffffffffffffffffffff166104a661058e565b73ffffffffffffffffffffffffffffffffffffffff16146104fc576040517f08c379a00000000000000000000000000000000000000000000000000000000081526004016104f390611dde565b60405180910390fd5b8060028190555050565b61050e610d16565b73ffffffffffffffffffffffffffffffffffffffff1661052c61058e565b73ffffffffffffffffffffffffffffffffffffffff1614610582576040517f08c379a000000000000000000000000000000000000000000000000000000000815260040161057990611dde565b60405180910390fd5b61058c6000610d1e565b565b60008060009054906101000a900473ffffffffffffffffffffffffffffffffffffffff16905090565b600060076000868686866040516020016105d49493929190611e3a565b60405160208183030381529060405280519060200120815260200190815260200160002060009054906101000a900460ff16156106145760019050610619565b600090505b949350505050565b6002543414801561067157506000600660003373ffffffffffffffffffffffffffffffffffffffff1673ffffffffffffffffffffffffffffffffffffffff16815260200190815260200160002054145b61067a57600080fd5b61068333610de2565b565b6003818154811061069557600080fd5b90600052602060002090600402016000915090508060000180546106b890611ea7565b80601f01602080910402602001604051908101604052809291908181526020018280546106e490611ea7565b80156107315780601f1061070657610100808354040283529160200191610731565b820191906000526020600020905b81548152906001019060200180831161071457829003601f168201915b50505050509080600101805461074690611ea7565b80601f016020809104026020016040519081016040528092919081815260200182805461077290611ea7565b80156107bf5780601f10610794576101008083540402835291602001916107bf565b820191906000526020600020905b8154815290600101906020018083116107a257829003601f168201915b5050505050908060020180546107d490611ea7565b80601f016020809104026020016040519081016040528092919081815260200182805461080090611ea7565b801561084d5780601f106108225761010080835404028352916020019161084d565b820191906000526020600020905b81548152906001019060200180831161083057829003601f168201915b50505050509080600301805461086290611ea7565b80601f016020809104026020016040519081016040528092919081815260200182805461088e90611ea7565b80156108db5780601f106108b0576101008083540402835291602001916108db565b820191906000526020600020905b8154815290600101906020018083116108be57829003601f168201915b5050505050905084565b6004602052806000526040600020600091509050805461090490611ea7565b80601f016020809104026020016040519081016040528092919081815260200182805461093090611ea7565b801561097d5780601f106109525761010080835404028352916020019161097d565b820191906000526020600020905b81548152906001019060200180831161096057829003601f168201915b505050505081565b6000600460003373ffffffffffffffffffffffffffffffffffffffff1673ffffffffffffffffffffffffffffffffffffffff16815260200190815260200160002080546109d190611ea7565b9050146109dd57600080fd5b80600460003373ffffffffffffffffffffffffffffffffffffffff1673ffffffffffffffffffffffffffffffffffffffff1681526020019081526020016000209080519060200190610a309291906116d4565b50610a3a33610de2565b610a4330610de2565b50565b60606000600660008473ffffffffffffffffffffffffffffffffffffffff1673ffffffffffffffffffffffffffffffffffffffff1681526020019081526020016000205467ffffffffffffffff811115610aa357610aa26118cd565b5b604051908082528060200260200182016040528015610ad15781602001602082028036833780820191505090505b5090506000805b600380549050811015610b8d578473ffffffffffffffffffffffffffffffffffffffff166005600083815260200190815260200160002060009054906101000a900473ffffffffffffffffffffffffffffffffffffffff1673ffffffffffffffffffffffffffffffffffffffff1603610b7a5780838381518110610b5f57610b5e611ed8565b5b6020026020010181815250508180610b7690611f36565b9250505b8080610b8590611f36565b915050610ad8565b508192505050919050565b610ba0610d16565b73ffffffffffffffffffffffffffffffffffffffff16610bbe61058e565b73ffffffffffffffffffffffffffffffffffffffff1614610c14576040517f08c379a0000000000000000000000000000000000000000000000000000000008152600401610c0b90611dde565b60405180910390fd5b600073ffffffffffffffffffffffffffffffffffffffff168173ffffffffffffffffffffffffffffffffffffffff1603610c83576040517f08c379a0000000000000000000000000000000000000000000000000000000008152600401610c7a90611ff0565b60405180910390fd5b610c8c81610d1e565b50565b600080610c9c6064611009565b90506031811115610cb957610cb033610de2565b60019150610cc8565b610cc38333611079565b600091505b6000610cd333610a46565b90507fe047b5f9c3d6c924130d889acbcaec39a0052c0583e765e32643809bc7c4c3a3838383604051610d089392919061201f565b60405180910390a150505050565b600033905090565b60008060009054906101000a900473ffffffffffffffffffffffffffffffffffffffff169050816000806101000a81548173ffffffffffffffffffffffffffffffffffffffff021916908373ffffffffffffffffffffffffffffffffffffffff1602179055508173ffffffffffffffffffffffffffffffffffffffff168173ffffffffffffffffffffffffffffffffffffffff167f8be0079c531659141344cd1fd0a4f28419497f9722a3daafe3b4186f6b6457e060405160405180910390a35050565b6000610ded82611496565b905060038190806001815401808255809150506001900390600052602060002090600402016000909190919091506000820151816000019080519060200190610e379291906116d4565b506020820151816001019080519060200190610e549291906116d4565b506040820151816002019080519060200190610e719291906116d4565b506060820151816003019080519060200190610e8e9291906116d4565b5050506000610eac600160038054905061154890919063ffffffff16565b9050826005600083815260200190815260200160002060006101000a81548173ffffffffffffffffffffffffffffffffffffffff021916908373ffffffffffffffffffffffffffffffffffffffff160217905550610f536001600660008673ffffffffffffffffffffffffffffffffffffffff1673ffffffffffffffffffffffffffffffffffffffff1681526020019081526020016000205461155e90919063ffffffff16565b600660008573ffffffffffffffffffffffffffffffffffffffff1673ffffffffffffffffffffffffffffffffffffffff1681526020019081526020016000208190555060008260000151836020015184604001518560600151604051602001610fbf9493929190611e3a565b60405160208183030381529060405280519060200120905060016007600083815260200190815260200160002060006101000a81548160ff02191690831515021790555050505050565b600080824233600154604051602001611024939291906120c6565b6040516020818303038152906040528051906020012060001c6110479190612132565b90506001816110569190612163565b90506001600081548092919061106b90611f36565b919050555080915050919050565b60006003838154811061108f5761108e611ed8565b5b90600052602060002090600402016040518060800160405290816000820180546110b890611ea7565b80601f01602080910402602001604051908101604052809291908181526020018280546110e490611ea7565b80156111315780601f1061110657610100808354040283529160200191611131565b820191906000526020600020905b81548152906001019060200180831161111457829003601f168201915b5050505050815260200160018201805461114a90611ea7565b80601f016020809104026020016040519081016040528092919081815260200182805461117690611ea7565b80156111c35780601f10611198576101008083540402835291602001916111c3565b820191906000526020600020905b8154815290600101906020018083116111a657829003601f168201915b505050505081526020016002820180546111dc90611ea7565b80601f016020809104026020016040519081016040528092919081815260200182805461120890611ea7565b80156112555780601f1061122a57610100808354040283529160200191611255565b820191906000526020600020905b81548152906001019060200180831161123857829003601f168201915b5050505050815260200160038201805461126e90611ea7565b80601f016020809104026020016040519081016040528092919081815260200182805461129a90611ea7565b80156112e75780601f106112bc576101008083540402835291602001916112e7565b820191906000526020600020905b8154815290600101906020018083116112ca57829003601f168201915b50505050508152505090506000816000015182602001518360400151846060015160405160200161131b9493929190611e3a565b60405160208183030381529060405280519060200120905060006007600083815260200190815260200160002060006101000a81548160ff0219169083151502179055506113b26001600660008673ffffffffffffffffffffffffffffffffffffffff1673ffffffffffffffffffffffffffffffffffffffff1681526020019081526020016000205461154890919063ffffffff16565b600660008573ffffffffffffffffffffffffffffffffffffffff1673ffffffffffffffffffffffffffffffffffffffff168152602001908152602001600020819055506005600085815260200190815260200160002060006101000a81549073ffffffffffffffffffffffffffffffffffffffff02191690556003848154811061143f5761143e611ed8565b5b90600052602060002090600402016000808201600061145e919061175a565b60018201600061146e919061175a565b60028201600061147e919061175a565b60038201600061148e919061175a565b505050505050565b61149e61179a565b60006114b36114ae610100611009565b611574565b905060006114ca6114c5610100611009565b611574565b905060006114e16114dc610100611009565b611574565b905060006114f76114f26065611009565b611574565b9050611505848484846105b7565b61153557604051806080016040528085815260200184815260200183815260200182815250945050505050611543565b61153e86610de2565b505050505b919050565b600081836115569190612163565b905092915050565b6000818361156c9190612197565b905092915050565b6060600082036115bb576040518060400160405280600181526020017f300000000000000000000000000000000000000000000000000000000000000081525090506116cf565b600082905060005b600082146115ed5780806115d690611f36565b915050600a826115e691906121ed565b91506115c3565b60008167ffffffffffffffff811115611609576116086118cd565b5b6040519080825280601f01601f19166020018201604052801561163b5781602001600182028036833780820191505090505b5090505b600085146116c8576001826116549190612163565b9150600a856116639190612132565b603061166f9190612197565b60f81b81838151811061168557611684611ed8565b5b60200101907effffffffffffffffffffffffffffffffffffffffffffffffffffffffffffff1916908160001a905350600a856116c191906121ed565b945061163f565b8093505050505b919050565b8280546116e090611ea7565b90600052602060002090601f0160209004810192826117025760008555611749565b82601f1061171b57805160ff1916838001178555611749565b82800160010185558215611749579182015b8281111561174857825182559160200191906001019061172d565b5b50905061175691906117c2565b5090565b50805461176690611ea7565b6000825580601f106117785750611797565b601f01602090049060005260206000209081019061179691906117c2565b5b50565b6040518060800160405280606081526020016060815260200160608152602001606081525090565b5b808211156117db5760008160009055506001016117c3565b5090565b6000604051905090565b600080fd5b600080fd5b6000819050919050565b611806816117f3565b811461181157600080fd5b50565b600081359050611823816117fd565b92915050565b60006020828403121561183f5761183e6117e9565b5b600061184d84828501611814565b91505092915050565b600073ffffffffffffffffffffffffffffffffffffffff82169050919050565b600061188182611856565b9050919050565b61189181611876565b82525050565b60006020820190506118ac6000830184611888565b92915050565b600080fd5b600080fd5b6000601f19601f8301169050919050565b7f4e487b7100000000000000000000000000000000000000000000000000000000600052604160045260246000fd5b611905826118bc565b810181811067ffffffffffffffff82111715611924576119236118cd565b5b80604052505050565b60006119376117df565b905061194382826118fc565b919050565b600067ffffffffffffffff821115611963576119626118cd565b5b61196c826118bc565b9050602081019050919050565b82818337600083830152505050565b600061199b61199684611948565b61192d565b9050828152602081018484840111156119b7576119b66118b7565b5b6119c2848285611979565b509392505050565b600082601f8301126119df576119de6118b2565b5b81356119ef848260208601611988565b91505092915050565b60008060008060808587031215611a1257611a116117e9565b5b600085013567ffffffffffffffff811115611a3057611a2f6117ee565b5b611a3c878288016119ca565b945050602085013567ffffffffffffffff811115611a5d57611a5c6117ee565b5b611a69878288016119ca565b935050604085013567ffffffffffffffff811115611a8a57611a896117ee565b5b611a96878288016119ca565b925050606085013567ffffffffffffffff811115611ab757611ab66117ee565b5b611ac3878288016119ca565b91505092959194509250565b60008115159050919050565b611ae481611acf565b82525050565b6000602082019050611aff6000830184611adb565b92915050565b600081519050919050565b600082825260208201905092915050565b60005b83811015611b3f578082015181840152602081019050611b24565b83811115611b4e576000848401525b50505050565b6000611b5f82611b05565b611b698185611b10565b9350611b79818560208601611b21565b611b82816118bc565b840191505092915050565b60006080820190508181036000830152611ba78187611b54565b90508181036020830152611bbb8186611b54565b90508181036040830152611bcf8185611b54565b90508181036060830152611be38184611b54565b905095945050505050565b611bf781611876565b8114611c0257600080fd5b50565b600081359050611c1481611bee565b92915050565b600060208284031215611c3057611c2f6117e9565b5b6000611c3e84828501611c05565b91505092915050565b60006020820190508181036000830152611c618184611b54565b905092915050565b600060208284031215611c7f57611c7e6117e9565b5b600082013567ffffffffffffffff811115611c9d57611c9c6117ee565b5b611ca9848285016119ca565b91505092915050565b600081519050919050565b600082825260208201905092915050565b6000819050602082019050919050565b611ce7816117f3565b82525050565b6000611cf98383611cde565b60208301905092915050565b6000602082019050919050565b6000611d1d82611cb2565b611d278185611cbd565b9350611d3283611cce565b8060005b83811015611d63578151611d4a8882611ced565b9750611d5583611d05565b925050600181019050611d36565b5085935050505092915050565b60006020820190508181036000830152611d8a8184611d12565b905092915050565b7f4f776e61626c653a2063616c6c6572206973206e6f7420746865206f776e6572600082015250565b6000611dc8602083611b10565b9150611dd382611d92565b602082019050919050565b60006020820190508181036000830152611df781611dbb565b9050919050565b600081905092915050565b6000611e1482611b05565b611e1e8185611dfe565b9350611e2e818560208601611b21565b80840191505092915050565b6000611e468287611e09565b9150611e528286611e09565b9150611e5e8285611e09565b9150611e6a8284611e09565b915081905095945050505050565b7f4e487b7100000000000000000000000000000000000000000000000000000000600052602260045260246000fd5b60006002820490506001821680611ebf57607f821691505b602082108103611ed257611ed1611e78565b5b50919050565b7f4e487b7100000000000000000000000000000000000000000000000000000000600052603260045260246000fd5b7f4e487b7100000000000000000000000000000000000000000000000000000000600052601160045260246000fd5b6000611f41826117f3565b91507fffffffffffffffffffffffffffffffffffffffffffffffffffffffffffffffff8203611f7357611f72611f07565b5b600182019050919050565b7f4f776e61626c653a206e6577206f776e657220697320746865207a65726f206160008201527f6464726573730000000000000000000000000000000000000000000000000000602082015250565b6000611fda602683611b10565b9150611fe582611f7e565b604082019050919050565b6000602082019050818103600083015261200981611fcd565b9050919050565b612019816117f3565b82525050565b60006060820190506120346000830186611adb565b6120416020830185612010565b81810360408301526120538184611d12565b9050949350505050565b6000819050919050565b612078612073826117f3565b61205d565b82525050565b60008160601b9050919050565b60006120968261207e565b9050919050565b60006120a88261208b565b9050919050565b6120c06120bb82611876565b61209d565b82525050565b60006120d28286612067565b6020820191506120e282856120af565b6014820191506120f28284612067565b602082019150819050949350505050565b7f4e487b7100000000000000000000000000000000000000000000000000000000600052601260045260246000fd5b600061213d826117f3565b9150612148836117f3565b92508261215857612157612103565b5b828206905092915050565b600061216e826117f3565b9150612179836117f3565b92508282101561218c5761218b611f07565b5b828203905092915050565b60006121a2826117f3565b91506121ad836117f3565b9250827fffffffffffffffffffffffffffffffffffffffffffffffffffffffffffffffff038211156121e2576121e1611f07565b5b828201905092915050565b60006121f8826117f3565b9150612203836117f3565b92508261221357612212612103565b5b82820490509291505056fea264697066735822122089f0d4c6f70c1d9592ea30741a05f5f9f1a8309becfc2daf391d167872e6100b64736f6c634300080d0033",
  "immutableReferences": {},
  "source": "// SPDX-License-Identifier: MIT\npragma solidity ^0.8.0;\n\nimport \"@openzeppelin/contracts/access/Ownable.sol\";\nimport \"@openzeppelin/contracts/utils/Strings.sol\";\nimport \"@openzeppelin/contracts/utils/math/SafeMath.sol\";\n\ncontract LuckDApp is Ownable {\n  using SafeMath for uint256;\n\n  event LuckChallengeResults(bool results, uint random, uint[] ldna);\n\n  uint nonce = 0;\n  uint ldnaCost = 0.005 ether;\n\n  struct LDNA {\n    string r;\n    string g;\n    string b;\n    string a;\n  }\n\n  LDNA[] public luckDNA;\n\n  mapping (address => string) public playerToName;\n  mapping (uint => address) public ldnaToOwner;\n  mapping (address => uint) ldnaCount;\n  mapping (bytes32 => bool) hashToLDNA;\n\n  modifier onlyOwnerOf(uint _ldna) {\n    require(msg.sender == ldnaToOwner[_ldna]);\n    _;\n  }\n\n  function _createLDNA(address _owner) internal {\n    LDNA memory ldna = _generateRandomLDNA(_owner);\n    luckDNA.push(ldna);\n    uint id = luckDNA.length.sub(1);\n    ldnaToOwner[id] = _owner;\n    ldnaCount[_owner] = ldnaCount[_owner].add(1);\n    bytes32 hash = keccak256(abi.encodePacked(ldna.r, ldna.g, ldna.b, ldna.a));\n    hashToLDNA[hash] = true;\n  }\n\n  function _burnLDNA(uint _ldna, address _owner) internal {\n    LDNA memory ldna = luckDNA[_ldna];\n    bytes32 hash = keccak256(abi.encodePacked(ldna.r, ldna.g, ldna.b, ldna.a));\n    hashToLDNA[hash] = false;\n    ldnaCount[_owner] = ldnaCount[_owner].sub(1);\n    delete ldnaToOwner[_ldna];\n    delete luckDNA[_ldna];\n  }\n\n  function _generateRandomLDNA(address _owner) internal returns (LDNA memory _ldna) {\n    string memory r = Strings.toString(_random(256));\n    string memory g = Strings.toString(_random(256));\n    string memory b = Strings.toString(_random(256));\n    string memory a = Strings.toString(_random(101));\n    if (!ldnaExists(r, g, b, a)) {\n      return LDNA(r, g, b, a);\n    } else {\n      _createLDNA(_owner);\n    }\n  }\n\n  function _random(uint _num) internal returns (uint) {\n    uint random = uint(keccak256(abi.encodePacked(block.timestamp, msg.sender, nonce))) % _num;\n    random = random - 1;\n    nonce++;\n    return random;\n  }\n\n  function _runLuckChallenge(uint _ldna) internal {\n    bool results;\n    uint random = _random(100);\n    if (random > 49) {\n      _createLDNA(msg.sender);\n      results = true;\n    } else {\n      _burnLDNA(_ldna, msg.sender);\n      results = false;\n    }\n    uint[] memory ldna = playerLDNA(msg.sender);\n    emit LuckChallengeResults(results, random, ldna);\n  }\n\n  function newPlayer(string memory _name) public {\n    require(bytes(playerToName[msg.sender]).length == 0);\n    playerToName[msg.sender] = _name;\n    _createLDNA(msg.sender);\n    _createLDNA(address(this));\n  }\n\n  function luckChallenge(uint _ldna) public onlyOwnerOf(_ldna) {\n    _runLuckChallenge(_ldna);\n  }\n\n  function ldnaExists(string memory _r, string memory _g, string memory _b, string memory _a) public view returns (bool) {\n    if (hashToLDNA[keccak256(abi.encodePacked(_r, _g, _b, _a))]) {\n      return true;\n    } else {\n      return false;\n    }\n  }\n\n  function playerLDNA(address _owner) public view returns(uint[] memory) {\n    uint[] memory ldna = new uint[](ldnaCount[_owner]);\n    uint counter = 0;\n    for (uint i = 0; i < luckDNA.length; i++) {\n      if (ldnaToOwner[i] == _owner) {\n        ldna[counter] = i;\n        counter++;\n      }\n    }\n    return ldna;\n  }\n\n  function withdraw() external onlyOwner {\n    address payable _owner = payable(owner());\n    _owner.transfer(address(this).balance);\n  }\n\n  function setCost(uint _cost) external onlyOwner {\n    ldnaCost = _cost;\n  }\n\n  function getLDNA() external payable {\n    require(msg.value == ldnaCost && ldnaCount[msg.sender] == 0);\n    _createLDNA(msg.sender);\n  }\n}\n",
  "sourcePath": "/Users/laetadevelopment/Documents/LuckDApp/contracts/LuckDApp.sol",
  "compiler": {
    "name": "solc",
    "version": "0.8.13+commit.abaa5c0e.Emscripten.clang"
  },
  "schemaVersion": "3.4.6",
  "updatedAt": "2022-05-23T22:47:03.507Z",
  "networkType": "ethereum",
  "devdoc": {
    "kind": "dev",
    "methods": {
      "owner()": {
        "details": "Returns the address of the current owner."
      },
      "renounceOwnership()": {
        "details": "Leaves the contract without owner. It will not be possible to call `onlyOwner` functions anymore. Can only be called by the current owner. NOTE: Renouncing ownership will leave the contract without an owner, thereby removing any functionality that is only available to the owner."
      },
      "transferOwnership(address)": {
        "details": "Transfers ownership of the contract to a new account (`newOwner`). Can only be called by the current owner."
      }
    },
    "version": 1
  },
  "userdoc": {
    "kind": "user",
    "methods": {},
    "version": 1
  }
}