{
  "contractName": "LuckDApp",
  "abi": [
    {
      "anonymous": false,
      "inputs": [
        {
          "indexed": false,
          "internalType": "bool",
          "name": "results",
          "type": "bool"
        },
        {
          "indexed": false,
          "internalType": "uint256",
          "name": "random",
          "type": "uint256"
        },
        {
          "indexed": false,
          "internalType": "uint256[]",
          "name": "ldna",
          "type": "uint256[]"
        }
      ],
      "name": "LuckChallengeResults",
      "type": "event"
    },
    {
      "anonymous": false,
      "inputs": [
        {
          "indexed": true,
          "internalType": "address",
          "name": "previousOwner",
          "type": "address"
        },
        {
          "indexed": true,
          "internalType": "address",
          "name": "newOwner",
          "type": "address"
        }
      ],
      "name": "OwnershipTransferred",
      "type": "event"
    },
    {
      "inputs": [
        {
          "internalType": "uint256",
          "name": "",
          "type": "uint256"
        }
      ],
      "name": "ldnaToOwner",
      "outputs": [
        {
          "internalType": "address",
          "name": "",
          "type": "address"
        }
      ],
      "stateMutability": "view",
      "type": "function",
      "constant": true
    },
    {
      "inputs": [
        {
          "internalType": "uint256",
          "name": "",
          "type": "uint256"
        }
      ],
      "name": "luckDNA",
      "outputs": [
        {
          "internalType": "string",
          "name": "r",
          "type": "string"
        },
        {
          "internalType": "string",
          "name": "g",
          "type": "string"
        },
        {
          "internalType": "string",
          "name": "b",
          "type": "string"
        },
        {
          "internalType": "string",
          "name": "a",
          "type": "string"
        }
      ],
      "stateMutability": "view",
      "type": "function",
      "constant": true
    },
    {
      "inputs": [],
      "name": "owner",
      "outputs": [
        {
          "internalType": "address",
          "name": "",
          "type": "address"
        }
      ],
      "stateMutability": "view",
      "type": "function",
      "constant": true
    },
    {
      "inputs": [
        {
          "internalType": "address",
          "name": "",
          "type": "address"
        }
      ],
      "name": "playerToName",
      "outputs": [
        {
          "internalType": "string",
          "name": "",
          "type": "string"
        }
      ],
      "stateMutability": "view",
      "type": "function",
      "constant": true
    },
    {
      "inputs": [],
      "name": "renounceOwnership",
      "outputs": [],
      "stateMutability": "nonpayable",
      "type": "function"
    },
    {
      "inputs": [
        {
          "internalType": "address",
          "name": "newOwner",
          "type": "address"
        }
      ],
      "name": "transferOwnership",
      "outputs": [],
      "stateMutability": "nonpayable",
      "type": "function"
    },
    {
      "inputs": [
        {
          "internalType": "string",
          "name": "_name",
          "type": "string"
        }
      ],
      "name": "newPlayer",
      "outputs": [],
      "stateMutability": "nonpayable",
      "type": "function"
    },
    {
      "inputs": [
        {
          "internalType": "uint256",
          "name": "_ldna",
          "type": "uint256"
        }
      ],
      "name": "luckChallenge",
      "outputs": [],
      "stateMutability": "nonpayable",
      "type": "function"
    },
    {
      "inputs": [
        {
          "internalType": "string",
          "name": "_r",
          "type": "string"
        },
        {
          "internalType": "string",
          "name": "_g",
          "type": "string"
        },
        {
          "internalType": "string",
          "name": "_b",
          "type": "string"
        },
        {
          "internalType": "string",
          "name": "_a",
          "type": "string"
        }
      ],
      "name": "ldnaExists",
      "outputs": [
        {
          "internalType": "bool",
          "name": "",
          "type": "bool"
        }
      ],
      "stateMutability": "view",
      "type": "function",
      "constant": true
    },
    {
      "inputs": [
        {
          "internalType": "address",
          "name": "_owner",
          "type": "address"
        }
      ],
      "name": "playerLDNA",
      "outputs": [
        {
          "internalType": "uint256[]",
          "name": "",
          "type": "uint256[]"
        }
      ],
      "stateMutability": "view",
      "type": "function",
      "constant": true
    }
  ],
  "bytecode": "0x6080604052600060015534801561001557600080fd5b5061003261002761003760201b60201c565b61003f60201b60201c565b610103565b600033905090565b60008060009054906101000a900473ffffffffffffffffffffffffffffffffffffffff169050816000806101000a81548173ffffffffffffffffffffffffffffffffffffffff021916908373ffffffffffffffffffffffffffffffffffffffff1602179055508173ffffffffffffffffffffffffffffffffffffffff168173ffffffffffffffffffffffffffffffffffffffff167f8be0079c531659141344cd1fd0a4f28419497f9722a3daafe3b4186f6b6457e060405160405180910390a35050565b611acb806101126000396000f3fe608060405234801561001057600080fd5b506004361061009e5760003560e01c8063aae027e211610066578063aae027e214610147578063ae2585ea1461017a578063ceb95d7a146101aa578063ecfec7d8146101c6578063f2fde38b146101f65761009e565b80633653d186146100a35780634061b398146100bf578063715018a6146100ef5780638da5cb5b146100f95780639e1e159614610117575b600080fd5b6100bd60048036038101906100b891906110a0565b610212565b005b6100d960048036038101906100d491906110a0565b61021e565b6040516100e6919061110e565b60405180910390f35b6100f7610251565b005b6101016102d9565b60405161010e919061110e565b60405180910390f35b610131600480360381019061012c919061126f565b610302565b60405161013e9190611361565b60405180910390f35b610161600480360381019061015c91906110a0565b61036c565b6040516101719493929190611404565b60405180910390f35b610194600480360381019061018f9190611491565b6105cc565b6040516101a191906114be565b60405180910390f35b6101c460048036038101906101bf91906114e0565b61066c565b005b6101e060048036038101906101db9190611491565b61072d565b6040516101ed91906115e7565b60405180910390f35b610210600480360381019061020b9190611491565b61087f565b005b61021b81610976565b50565b60046020528060005260406000206000915054906101000a900473ffffffffffffffffffffffffffffffffffffffff1681565b6102596109fd565b73ffffffffffffffffffffffffffffffffffffffff166102776102d9565b73ffffffffffffffffffffffffffffffffffffffff16146102cd576040517f08c379a00000000000000000000000000000000000000000000000000000000081526004016102c490611655565b60405180910390fd5b6102d76000610a05565b565b60008060009054906101000a900473ffffffffffffffffffffffffffffffffffffffff16905090565b6000600660008686868660405160200161031f94939291906116b1565b60405160208183030381529060405280519060200120815260200190815260200160002060009054906101000a900460ff161561035f5760019050610364565b600090505b949350505050565b6002818154811061037c57600080fd5b906000526020600020906004020160009150905080600001805461039f9061171e565b80601f01602080910402602001604051908101604052809291908181526020018280546103cb9061171e565b80156104185780601f106103ed57610100808354040283529160200191610418565b820191906000526020600020905b8154815290600101906020018083116103fb57829003601f168201915b50505050509080600101805461042d9061171e565b80601f01602080910402602001604051908101604052809291908181526020018280546104599061171e565b80156104a65780601f1061047b576101008083540402835291602001916104a6565b820191906000526020600020905b81548152906001019060200180831161048957829003601f168201915b5050505050908060020180546104bb9061171e565b80601f01602080910402602001604051908101604052809291908181526020018280546104e79061171e565b80156105345780601f1061050957610100808354040283529160200191610534565b820191906000526020600020905b81548152906001019060200180831161051757829003601f168201915b5050505050908060030180546105499061171e565b80601f01602080910402602001604051908101604052809291908181526020018280546105759061171e565b80156105c25780601f10610597576101008083540402835291602001916105c2565b820191906000526020600020905b8154815290600101906020018083116105a557829003601f168201915b5050505050905084565b600360205280600052604060002060009150905080546105eb9061171e565b80601f01602080910402602001604051908101604052809291908181526020018280546106179061171e565b80156106645780601f1061063957610100808354040283529160200191610664565b820191906000526020600020905b81548152906001019060200180831161064757829003601f168201915b505050505081565b6000600360003373ffffffffffffffffffffffffffffffffffffffff1673ffffffffffffffffffffffffffffffffffffffff16815260200190815260200160002080546106b89061171e565b9050146106c457600080fd5b80600360003373ffffffffffffffffffffffffffffffffffffffff1673ffffffffffffffffffffffffffffffffffffffff1681526020019081526020016000209080519060200190610717929190610f8b565b5061072133610ac9565b61072a30610ac9565b50565b60606000600560008473ffffffffffffffffffffffffffffffffffffffff1673ffffffffffffffffffffffffffffffffffffffff1681526020019081526020016000205467ffffffffffffffff81111561078a57610789611144565b5b6040519080825280602002602001820160405280156107b85781602001602082028036833780820191505090505b5090506000805b600280549050811015610874578473ffffffffffffffffffffffffffffffffffffffff166004600083815260200190815260200160002060009054906101000a900473ffffffffffffffffffffffffffffffffffffffff1673ffffffffffffffffffffffffffffffffffffffff160361086157808383815181106108465761084561174f565b5b602002602001018181525050818061085d906117ad565b9250505b808061086c906117ad565b9150506107bf565b508192505050919050565b6108876109fd565b73ffffffffffffffffffffffffffffffffffffffff166108a56102d9565b73ffffffffffffffffffffffffffffffffffffffff16146108fb576040517f08c379a00000000000000000000000000000000000000000000000000000000081526004016108f290611655565b60405180910390fd5b600073ffffffffffffffffffffffffffffffffffffffff168173ffffffffffffffffffffffffffffffffffffffff160361096a576040517f08c379a000000000000000000000000000000000000000000000000000000000815260040161096190611867565b60405180910390fd5b61097381610a05565b50565b6000806109836064610ce9565b905060318111156109a05761099733610ac9565b600191506109af565b6109a983610d59565b50600091505b60006109ba3361072d565b90507fe047b5f9c3d6c924130d889acbcaec39a0052c0583e765e32643809bc7c4c3a38383836040516109ef93929190611896565b60405180910390a150505050565b600033905090565b60008060009054906101000a900473ffffffffffffffffffffffffffffffffffffffff169050816000806101000a81548173ffffffffffffffffffffffffffffffffffffffff021916908373ffffffffffffffffffffffffffffffffffffffff1602179055508173ffffffffffffffffffffffffffffffffffffffff168173ffffffffffffffffffffffffffffffffffffffff167f8be0079c531659141344cd1fd0a4f28419497f9722a3daafe3b4186f6b6457e060405160405180910390a35050565b6000610ad482610d63565b905060028190806001815401808255809150506001900390600052602060002090600402016000909190919091506000820151816000019080519060200190610b1e929190610f8b565b506020820151816001019080519060200190610b3b929190610f8b565b506040820151816002019080519060200190610b58929190610f8b565b506060820151816003019080519060200190610b75929190610f8b565b50505060006001600280549050610b8c91906118d4565b9050826004600083815260200190815260200160002060006101000a81548173ffffffffffffffffffffffffffffffffffffffff021916908373ffffffffffffffffffffffffffffffffffffffff160217905550610c336001600560008673ffffffffffffffffffffffffffffffffffffffff1673ffffffffffffffffffffffffffffffffffffffff16815260200190815260200160002054610e1590919063ffffffff16565b600560008573ffffffffffffffffffffffffffffffffffffffff1673ffffffffffffffffffffffffffffffffffffffff1681526020019081526020016000208190555060008260000151836020015184604001518560600151604051602001610c9f94939291906116b1565b60405160208183030381529060405280519060200120905060016006600083815260200190815260200160002060006101000a81548160ff02191690831515021790555050505050565b600080824233600154604051602001610d0493929190611971565b6040516020818303038152906040528051906020012060001c610d2791906119dd565b9050600181610d3691906118d4565b905060016000815480929190610d4b906117ad565b919050555080915050919050565b6000819050919050565b610d6b611011565b6000610d80610d7b610100610ce9565b610e2b565b90506000610d97610d92610100610ce9565b610e2b565b90506000610dae610da9610100610ce9565b610e2b565b90506000610dc4610dbf6065610ce9565b610e2b565b9050610dd284848484610302565b610e0257604051806080016040528085815260200184815260200183815260200182815250945050505050610e10565b610e0b86610ac9565b505050505b919050565b60008183610e239190611a0e565b905092915050565b606060008203610e72576040518060400160405280600181526020017f30000000000000000000000000000000000000000000000000000000000000008152509050610f86565b600082905060005b60008214610ea4578080610e8d906117ad565b915050600a82610e9d9190611a64565b9150610e7a565b60008167ffffffffffffffff811115610ec057610ebf611144565b5b6040519080825280601f01601f191660200182016040528015610ef25781602001600182028036833780820191505090505b5090505b60008514610f7f57600182610f0b91906118d4565b9150600a85610f1a91906119dd565b6030610f269190611a0e565b60f81b818381518110610f3c57610f3b61174f565b5b60200101907effffffffffffffffffffffffffffffffffffffffffffffffffffffffffffff1916908160001a905350600a85610f789190611a64565b9450610ef6565b8093505050505b919050565b828054610f979061171e565b90600052602060002090601f016020900481019282610fb95760008555611000565b82601f10610fd257805160ff1916838001178555611000565b82800160010185558215611000579182015b82811115610fff578251825591602001919060010190610fe4565b5b50905061100d9190611039565b5090565b6040518060800160405280606081526020016060815260200160608152602001606081525090565b5b8082111561105257600081600090555060010161103a565b5090565b6000604051905090565b600080fd5b600080fd5b6000819050919050565b61107d8161106a565b811461108857600080fd5b50565b60008135905061109a81611074565b92915050565b6000602082840312156110b6576110b5611060565b5b60006110c48482850161108b565b91505092915050565b600073ffffffffffffffffffffffffffffffffffffffff82169050919050565b60006110f8826110cd565b9050919050565b611108816110ed565b82525050565b600060208201905061112360008301846110ff565b92915050565b600080fd5b600080fd5b6000601f19601f8301169050919050565b7f4e487b7100000000000000000000000000000000000000000000000000000000600052604160045260246000fd5b61117c82611133565b810181811067ffffffffffffffff8211171561119b5761119a611144565b5b80604052505050565b60006111ae611056565b90506111ba8282611173565b919050565b600067ffffffffffffffff8211156111da576111d9611144565b5b6111e382611133565b9050602081019050919050565b82818337600083830152505050565b600061121261120d846111bf565b6111a4565b90508281526020810184848401111561122e5761122d61112e565b5b6112398482856111f0565b509392505050565b600082601f83011261125657611255611129565b5b81356112668482602086016111ff565b91505092915050565b6000806000806080858703121561128957611288611060565b5b600085013567ffffffffffffffff8111156112a7576112a6611065565b5b6112b387828801611241565b945050602085013567ffffffffffffffff8111156112d4576112d3611065565b5b6112e087828801611241565b935050604085013567ffffffffffffffff81111561130157611300611065565b5b61130d87828801611241565b925050606085013567ffffffffffffffff81111561132e5761132d611065565b5b61133a87828801611241565b91505092959194509250565b60008115159050919050565b61135b81611346565b82525050565b60006020820190506113766000830184611352565b92915050565b600081519050919050565b600082825260208201905092915050565b60005b838110156113b657808201518184015260208101905061139b565b838111156113c5576000848401525b50505050565b60006113d68261137c565b6113e08185611387565b93506113f0818560208601611398565b6113f981611133565b840191505092915050565b6000608082019050818103600083015261141e81876113cb565b9050818103602083015261143281866113cb565b9050818103604083015261144681856113cb565b9050818103606083015261145a81846113cb565b905095945050505050565b61146e816110ed565b811461147957600080fd5b50565b60008135905061148b81611465565b92915050565b6000602082840312156114a7576114a6611060565b5b60006114b58482850161147c565b91505092915050565b600060208201905081810360008301526114d881846113cb565b905092915050565b6000602082840312156114f6576114f5611060565b5b600082013567ffffffffffffffff81111561151457611513611065565b5b61152084828501611241565b91505092915050565b600081519050919050565b600082825260208201905092915050565b6000819050602082019050919050565b61155e8161106a565b82525050565b60006115708383611555565b60208301905092915050565b6000602082019050919050565b600061159482611529565b61159e8185611534565b93506115a983611545565b8060005b838110156115da5781516115c18882611564565b97506115cc8361157c565b9250506001810190506115ad565b5085935050505092915050565b600060208201905081810360008301526116018184611589565b905092915050565b7f4f776e61626c653a2063616c6c6572206973206e6f7420746865206f776e6572600082015250565b600061163f602083611387565b915061164a82611609565b602082019050919050565b6000602082019050818103600083015261166e81611632565b9050919050565b600081905092915050565b600061168b8261137c565b6116958185611675565b93506116a5818560208601611398565b80840191505092915050565b60006116bd8287611680565b91506116c98286611680565b91506116d58285611680565b91506116e18284611680565b915081905095945050505050565b7f4e487b7100000000000000000000000000000000000000000000000000000000600052602260045260246000fd5b6000600282049050600182168061173657607f821691505b602082108103611749576117486116ef565b5b50919050565b7f4e487b7100000000000000000000000000000000000000000000000000000000600052603260045260246000fd5b7f4e487b7100000000000000000000000000000000000000000000000000000000600052601160045260246000fd5b60006117b88261106a565b91507fffffffffffffffffffffffffffffffffffffffffffffffffffffffffffffffff82036117ea576117e961177e565b5b600182019050919050565b7f4f776e61626c653a206e6577206f776e657220697320746865207a65726f206160008201527f6464726573730000000000000000000000000000000000000000000000000000602082015250565b6000611851602683611387565b915061185c826117f5565b604082019050919050565b6000602082019050818103600083015261188081611844565b9050919050565b6118908161106a565b82525050565b60006060820190506118ab6000830186611352565b6118b86020830185611887565b81810360408301526118ca8184611589565b9050949350505050565b60006118df8261106a565b91506118ea8361106a565b9250828210156118fd576118fc61177e565b5b828203905092915050565b6000819050919050565b61192361191e8261106a565b611908565b82525050565b60008160601b9050919050565b600061194182611929565b9050919050565b600061195382611936565b9050919050565b61196b611966826110ed565b611948565b82525050565b600061197d8286611912565b60208201915061198d828561195a565b60148201915061199d8284611912565b602082019150819050949350505050565b7f4e487b7100000000000000000000000000000000000000000000000000000000600052601260045260246000fd5b60006119e88261106a565b91506119f38361106a565b925082611a0357611a026119ae565b5b828206905092915050565b6000611a198261106a565b9150611a248361106a565b9250827fffffffffffffffffffffffffffffffffffffffffffffffffffffffffffffffff03821115611a5957611a5861177e565b5b828201905092915050565b6000611a6f8261106a565b9150611a7a8361106a565b925082611a8a57611a896119ae565b5b82820490509291505056fea26469706673582212205208cc2c60af0061565ba35f2adc3a330a08c2cb34861447ddd22d4b8a9b99d564736f6c634300080d0033",
  "immutableReferences": {},
  "source": "// SPDX-License-Identifier: MIT\npragma solidity ^0.8.0;\n\nimport \"@openzeppelin/contracts/access/Ownable.sol\";\nimport \"@openzeppelin/contracts/utils/Strings.sol\";\nimport \"@openzeppelin/contracts/utils/math/SafeMath.sol\";\n\ncontract LuckDApp is Ownable {\n  using SafeMath for uint256;\n\n  event LuckChallengeResults(bool results, uint random, uint[] ldna);\n\n  uint nonce = 0;\n\n  struct LDNA {\n    string r;\n    string g;\n    string b;\n    string a;\n  }\n\n  LDNA[] public luckDNA;\n\n  mapping (address => string) public playerToName;\n  mapping (uint => address) public ldnaToOwner;\n  mapping (address => uint) ldnaCount;\n  mapping (bytes32 => bool) hashToLDNA;\n\n  function _createLDNA(address _owner) internal {\n    LDNA memory ldna = _generateRandomLDNA(_owner);\n    luckDNA.push(ldna);\n    uint id = luckDNA.length - 1;\n    ldnaToOwner[id] = _owner;\n    ldnaCount[_owner] = ldnaCount[_owner].add(1);\n    bytes32 hash = keccak256(abi.encodePacked(ldna.r, ldna.g, ldna.b, ldna.a));\n    hashToLDNA[hash] = true;\n  }\n\n  function _burnLDNA(uint _ldna) internal pure returns (uint) {\n    return _ldna;\n  }\n\n  function _generateRandomLDNA(address _owner) internal returns (LDNA memory _ldna) {\n    string memory r = Strings.toString(_random(256));\n    string memory g = Strings.toString(_random(256));\n    string memory b = Strings.toString(_random(256));\n    string memory a = Strings.toString(_random(101));\n    if (!ldnaExists(r, g, b, a)) {\n      return LDNA(r, g, b, a);\n    } else {\n      _createLDNA(_owner);\n    }\n  }\n\n  function _random(uint _num) internal returns (uint) {\n    uint random = uint(keccak256(abi.encodePacked(block.timestamp, msg.sender, nonce))) % _num;\n    random = random - 1;\n    nonce++;\n    return random;\n  }\n\n  function _runLuckChallenge(uint _ldna) internal {\n    bool results;\n    uint random = _random(100);\n    if (random > 49) {\n      _createLDNA(msg.sender);\n      results = true;\n    } else {\n      _burnLDNA(_ldna);\n      results = false;\n    }\n    uint[] memory ldna = playerLDNA(msg.sender);\n    emit LuckChallengeResults(results, random, ldna);\n  }\n\n  function newPlayer(string memory _name) public {\n    require(bytes(playerToName[msg.sender]).length == 0);\n    playerToName[msg.sender] = _name;\n    _createLDNA(msg.sender);\n    _createLDNA(address(this));\n  }\n\n  function luckChallenge(uint _ldna) public {\n    _runLuckChallenge(_ldna);\n  }\n\n  function ldnaExists(string memory _r, string memory _g, string memory _b, string memory _a) public view returns (bool) {\n    if (hashToLDNA[keccak256(abi.encodePacked(_r, _g, _b, _a))]) {\n      return true;\n    } else {\n      return false;\n    }\n  }\n\n  function playerLDNA(address _owner) public view returns(uint[] memory) {\n    uint[] memory ldna = new uint[](ldnaCount[_owner]);\n    uint counter = 0;\n    for (uint i = 0; i < luckDNA.length; i++) {\n      if (ldnaToOwner[i] == _owner) {\n        ldna[counter] = i;\n        counter++;\n      }\n    }\n    return ldna;\n  }\n}\n",
  "sourcePath": "/Users/laetadevelopment/Documents/LuckDApp/contracts/LuckDApp.sol",
  "compiler": {
    "name": "solc",
    "version": "0.8.13+commit.abaa5c0e.Emscripten.clang"
  },
  "schemaVersion": "3.4.6",
  "updatedAt": "2022-05-23T17:48:56.198Z",
  "networkType": "ethereum",
  "devdoc": {
    "kind": "dev",
    "methods": {
      "owner()": {
        "details": "Returns the address of the current owner."
      },
      "renounceOwnership()": {
        "details": "Leaves the contract without owner. It will not be possible to call `onlyOwner` functions anymore. Can only be called by the current owner. NOTE: Renouncing ownership will leave the contract without an owner, thereby removing any functionality that is only available to the owner."
      },
      "transferOwnership(address)": {
        "details": "Transfers ownership of the contract to a new account (`newOwner`). Can only be called by the current owner."
      }
    },
    "version": 1
  },
  "userdoc": {
    "kind": "user",
    "methods": {},
    "version": 1
  }
}